{
  "_format": "hh-sol-artifact-1",
  "contractName": "DataFetcher",
  "sourceName": "contracts/DataFetcher.sol",
  "abi": [
    {
      "inputs": [
        {
          "internalType": "address",
          "name": "_market",
          "type": "address"
        },
        {
          "internalType": "address",
          "name": "_dispute",
          "type": "address"
        }
      ],
      "stateMutability": "nonpayable",
      "type": "constructor"
    },
    {
      "inputs": [],
      "name": "dispute",
      "outputs": [
        {
          "internalType": "contract DisputeManager",
          "name": "",
          "type": "address"
        }
      ],
      "stateMutability": "view",
      "type": "function"
    },
    {
      "inputs": [
        {
          "internalType": "address",
          "name": "buyer",
          "type": "address"
        }
      ],
      "name": "getBuyerDashboard",
      "outputs": [
        {
          "components": [
            {
              "components": [
                {
                  "internalType": "uint256",
                  "name": "id",
                  "type": "uint256"
                },
                {
                  "internalType": "address",
                  "name": "seller",
                  "type": "address"
                },
                {
                  "internalType": "address",
                  "name": "buyer",
                  "type": "address"
                },
                {
                  "internalType": "string",
                  "name": "ipfsHash",
                  "type": "string"
                },
                {
                  "internalType": "string",
                  "name": "deliveryIpfsHash",
                  "type": "string"
                },
                {
                  "internalType": "uint256",
                  "name": "price",
                  "type": "uint256"
                },
                {
                  "internalType": "uint256",
                  "name": "listedAt",
                  "type": "uint256"
                },
                {
                  "internalType": "uint8",
                  "name": "status",
                  "type": "uint8"
                }
              ],
              "internalType": "struct DataFetcher.ProductSummary[]",
              "name": "purchases",
              "type": "tuple[]"
            },
            {
              "components": [
                {
                  "internalType": "uint256",
                  "name": "productId",
                  "type": "uint256"
                },
                {
                  "internalType": "uint8",
                  "name": "tier",
                  "type": "uint8"
                },
                {
                  "internalType": "uint256",
                  "name": "buyerVotes",
                  "type": "uint256"
                },
                {
                  "internalType": "uint256",
                  "name": "sellerVotes",
                  "type": "uint256"
                },
                {
                  "internalType": "uint256",
                  "name": "deadline",
                  "type": "uint256"
                },
                {
                  "internalType": "bool",
                  "name": "resolved",
                  "type": "bool"
                },
                {
                  "internalType": "bool",
                  "name": "buyerWon",
                  "type": "bool"
                }
              ],
              "internalType": "struct DisputeManager.PartyDisputeView[]",
              "name": "disputes",
              "type": "tuple[]"
            }
          ],
          "internalType": "struct DataFetcher.BuyerDashboard",
          "name": "",
          "type": "tuple"
        }
      ],
      "stateMutability": "view",
      "type": "function"
    },
    {
      "inputs": [
        {
          "internalType": "address",
          "name": "reviewer",
          "type": "address"
        }
      ],
      "name": "getReviewerDashboard",
      "outputs": [
        {
          "components": [
            {
              "components": [
                {
                  "internalType": "uint256",
                  "name": "productId",
                  "type": "uint256"
                },
                {
                  "internalType": "address",
                  "name": "buyer",
                  "type": "address"
                },
                {
                  "internalType": "address",
                  "name": "seller",
                  "type": "address"
                },
                {
                  "internalType": "uint8",
                  "name": "tier",
                  "type": "uint8"
                },
                {
                  "internalType": "uint256",
                  "name": "jurorStakeRequired",
                  "type": "uint256"
                },
                {
                  "internalType": "uint256",
                  "name": "buyerVotes",
                  "type": "uint256"
                },
                {
                  "internalType": "uint256",
                  "name": "sellerVotes",
                  "type": "uint256"
                },
                {
                  "internalType": "uint256",
                  "name": "deadline",
                  "type": "uint256"
                },
                {
                  "internalType": "bool",
                  "name": "resolved",
                  "type": "bool"
                },
                {
                  "internalType": "bool",
                  "name": "buyerWon",
                  "type": "bool"
                },
                {
                  "internalType": "uint8",
                  "name": "myVote",
                  "type": "uint8"
                },
                {
                  "internalType": "bool",
                  "name": "myHasStaked",
                  "type": "bool"
                },
                {
                  "internalType": "bool",
                  "name": "myHasVoted",
                  "type": "bool"
                }
              ],
              "internalType": "struct DisputeManager.DisputeView[]",
              "name": "disputes",
              "type": "tuple[]"
            },
            {
              "internalType": "uint256",
              "name": "totalEarnings",
              "type": "uint256"
            }
          ],
          "internalType": "struct DataFetcher.ReviewerDashboard",
          "name": "",
          "type": "tuple"
        }
      ],
      "stateMutability": "view",
      "type": "function"
    },
    {
      "inputs": [
        {
          "internalType": "address",
          "name": "seller",
          "type": "address"
        }
      ],
      "name": "getSellerDashboard",
      "outputs": [
        {
          "components": [
            {
              "components": [
                {
                  "internalType": "uint256",
                  "name": "id",
                  "type": "uint256"
                },
                {
                  "internalType": "address",
                  "name": "seller",
                  "type": "address"
                },
                {
                  "internalType": "address",
                  "name": "buyer",
                  "type": "address"
                },
                {
                  "internalType": "string",
                  "name": "ipfsHash",
                  "type": "string"
                },
                {
                  "internalType": "string",
                  "name": "deliveryIpfsHash",
                  "type": "string"
                },
                {
                  "internalType": "uint256",
                  "name": "price",
                  "type": "uint256"
                },
                {
                  "internalType": "uint256",
                  "name": "listedAt",
                  "type": "uint256"
                },
                {
                  "internalType": "uint8",
                  "name": "status",
                  "type": "uint8"
                }
              ],
              "internalType": "struct DataFetcher.ProductSummary[]",
              "name": "listedProducts",
              "type": "tuple[]"
            },
            {
              "components": [
                {
                  "internalType": "uint256",
                  "name": "id",
                  "type": "uint256"
                },
                {
                  "internalType": "address",
                  "name": "seller",
                  "type": "address"
                },
                {
                  "internalType": "address",
                  "name": "buyer",
                  "type": "address"
                },
                {
                  "internalType": "string",
                  "name": "ipfsHash",
                  "type": "string"
                },
                {
                  "internalType": "string",
                  "name": "deliveryIpfsHash",
                  "type": "string"
                },
                {
                  "internalType": "uint256",
                  "name": "price",
                  "type": "uint256"
                },
                {
                  "internalType": "uint256",
                  "name": "listedAt",
                  "type": "uint256"
                },
                {
                  "internalType": "uint8",
                  "name": "status",
                  "type": "uint8"
                }
              ],
              "internalType": "struct DataFetcher.ProductSummary[]",
              "name": "myProducts",
              "type": "tuple[]"
            },
            {
              "components": [
                {
                  "internalType": "uint256",
                  "name": "productId",
                  "type": "uint256"
                },
                {
                  "internalType": "uint8",
                  "name": "tier",
                  "type": "uint8"
                },
                {
                  "internalType": "uint256",
                  "name": "buyerVotes",
                  "type": "uint256"
                },
                {
                  "internalType": "uint256",
                  "name": "sellerVotes",
                  "type": "uint256"
                },
                {
                  "internalType": "uint256",
                  "name": "deadline",
                  "type": "uint256"
                },
                {
                  "internalType": "bool",
                  "name": "resolved",
                  "type": "bool"
                },
                {
                  "internalType": "bool",
                  "name": "buyerWon",
                  "type": "bool"
                }
              ],
              "internalType": "struct DisputeManager.PartyDisputeView[]",
              "name": "disputes",
              "type": "tuple[]"
            }
          ],
          "internalType": "struct DataFetcher.SellerDashboard",
          "name": "",
          "type": "tuple"
        }
      ],
      "stateMutability": "view",
      "type": "function"
    },
    {
      "inputs": [],
      "name": "getStorefront",
      "outputs": [
        {
          "components": [
            {
              "internalType": "uint256",
              "name": "id",
              "type": "uint256"
            },
            {
              "internalType": "address",
              "name": "seller",
              "type": "address"
            },
            {
              "internalType": "address",
              "name": "buyer",
              "type": "address"
            },
            {
              "internalType": "string",
              "name": "ipfsHash",
              "type": "string"
            },
            {
              "internalType": "string",
              "name": "deliveryIpfsHash",
              "type": "string"
            },
            {
              "internalType": "uint256",
              "name": "price",
              "type": "uint256"
            },
            {
              "internalType": "uint256",
              "name": "listedAt",
              "type": "uint256"
            },
            {
              "internalType": "uint8",
              "name": "status",
              "type": "uint8"
            }
          ],
          "internalType": "struct DataFetcher.ProductSummary[]",
          "name": "",
          "type": "tuple[]"
        }
      ],
      "stateMutability": "view",
      "type": "function"
    },
    {
      "inputs": [],
      "name": "market",
      "outputs": [
        {
          "internalType": "contract ProductMarket",
          "name": "",
          "type": "address"
        }
      ],
      "stateMutability": "view",
      "type": "function"
    }
  ],
  "bytecode": "0x608060405234801561001057600080fd5b50604051611f79380380611f798339818101604052810190610032919061011d565b816000806101000a81548173ffffffffffffffffffffffffffffffffffffffff021916908373ffffffffffffffffffffffffffffffffffffffff16021790555080600160006101000a81548173ffffffffffffffffffffffffffffffffffffffff021916908373ffffffffffffffffffffffffffffffffffffffff160217905550505061015d565b600080fd5b600073ffffffffffffffffffffffffffffffffffffffff82169050919050565b60006100ea826100bf565b9050919050565b6100fa816100df565b811461010557600080fd5b50565b600081519050610117816100f1565b92915050565b60008060408385031215610134576101336100ba565b5b600061014285828601610108565b925050602061015385828601610108565b9150509250929050565b611e0d8061016c6000396000f3fe608060405234801561001057600080fd5b50600436106100625760003560e01c80630cc42f961461006757806380f55605146100975780639428f056146100b5578063a7aa1106146100e5578063d84c402414610115578063f240f7c314610133575b600080fd5b610081600480360381019061007c9190610ba7565b610151565b60405161008e9190610e2b565b60405180910390f35b61009f6102ae565b6040516100ac9190610eac565b60405180910390f35b6100cf60048036038101906100ca9190610ba7565b6102d2565b6040516100dc9190611251565b60405180910390f35b6100ff60048036038101906100fa9190610ba7565b6104e8565b60405161010c91906112d1565b60405180910390f35b61011d6107a6565b60405161012a9190611379565b60405180910390f35b61013b610850565b60405161014891906113bc565b60405180910390f35b610159610a6c565b6040518060400160405280600160009054906101000a900473ffffffffffffffffffffffffffffffffffffffff1673ffffffffffffffffffffffffffffffffffffffff1663e5c397b2856040518263ffffffff1660e01b81526004016101bf91906113e6565b600060405180830381865afa1580156101dc573d6000803e3d6000fd5b505050506040513d6000823e3d601f19601f820116820180604052508101906102059190611726565b815260200160008054906101000a900473ffffffffffffffffffffffffffffffffffffffff1673ffffffffffffffffffffffffffffffffffffffff16633af10666856040518263ffffffff1660e01b815260040161026391906113e6565b602060405180830381865afa158015610280573d6000803e3d6000fd5b505050506040513d601f19601f820116820180604052508101906102a4919061176f565b8152509050919050565b60008054906101000a900473ffffffffffffffffffffffffffffffffffffffff1681565b6102da610a86565b60008060009054906101000a900473ffffffffffffffffffffffffffffffffffffffff1673ffffffffffffffffffffffffffffffffffffffff1663848b6fb5846040518263ffffffff1660e01b815260040161033691906113e6565b600060405180830381865afa158015610353573d6000803e3d6000fd5b505050506040513d6000823e3d601f19601f8201168201806040525081019061037c919061185f565b905060008060009054906101000a900473ffffffffffffffffffffffffffffffffffffffff1673ffffffffffffffffffffffffffffffffffffffff1663bd8c64fd856040518263ffffffff1660e01b81526004016103da91906113e6565b600060405180830381865afa1580156103f7573d6000803e3d6000fd5b505050506040513d6000823e3d601f19601f82011682018060405250810190610420919061185f565b9050604051806040016040528061043684610876565b8152602001600160009054906101000a900473ffffffffffffffffffffffffffffffffffffffff1673ffffffffffffffffffffffffffffffffffffffff1663d96085be846040518263ffffffff1660e01b81526004016104969190611957565b600060405180830381865afa1580156104b3573d6000803e3d6000fd5b505050506040513d6000823e3d601f19601f820116820180604052508101906104dc9190611af0565b81525092505050919050565b6104f0610aa0565b60008060009054906101000a900473ffffffffffffffffffffffffffffffffffffffff1673ffffffffffffffffffffffffffffffffffffffff166352cb26af6040518163ffffffff1660e01b8152600401600060405180830381865afa15801561055e573d6000803e3d6000fd5b505050506040513d6000823e3d601f19601f82011682018060405250810190610587919061185f565b905060008060009054906101000a900473ffffffffffffffffffffffffffffffffffffffff1673ffffffffffffffffffffffffffffffffffffffff1663bacdafe0856040518263ffffffff1660e01b81526004016105e591906113e6565b600060405180830381865afa158015610602573d6000803e3d6000fd5b505050506040513d6000823e3d601f19601f8201168201806040525081019061062b919061185f565b905060008060009054906101000a900473ffffffffffffffffffffffffffffffffffffffff1673ffffffffffffffffffffffffffffffffffffffff1663bd8c64fd866040518263ffffffff1660e01b815260040161068991906113e6565b600060405180830381865afa1580156106a6573d6000803e3d6000fd5b505050506040513d6000823e3d601f19601f820116820180604052508101906106cf919061185f565b905060405180606001604052806106e585610876565b81526020016106f384610876565b8152602001600160009054906101000a900473ffffffffffffffffffffffffffffffffffffffff1673ffffffffffffffffffffffffffffffffffffffff1663d96085be846040518263ffffffff1660e01b81526004016107539190611957565b600060405180830381865afa158015610770573d6000803e3d6000fd5b505050506040513d6000823e3d601f19601f820116820180604052508101906107999190611af0565b8152509350505050919050565b606060008060009054906101000a900473ffffffffffffffffffffffffffffffffffffffff1673ffffffffffffffffffffffffffffffffffffffff166352cb26af6040518163ffffffff1660e01b8152600401600060405180830381865afa158015610816573d6000803e3d6000fd5b505050506040513d6000823e3d601f19601f8201168201806040525081019061083f919061185f565b905061084a81610876565b91505090565b600160009054906101000a900473ffffffffffffffffffffffffffffffffffffffff1681565b60606000825167ffffffffffffffff81111561089557610894611406565b5b6040519080825280602002602001820160405280156108ce57816020015b6108bb610ac1565b8152602001906001900390816108b35790505b50905060005b8351811015610a625760008060009054906101000a900473ffffffffffffffffffffffffffffffffffffffff1673ffffffffffffffffffffffffffffffffffffffff1663b9db15b486848151811061092f5761092e611b39565b5b60200260200101516040518263ffffffff1660e01b81526004016109539190611b77565b600060405180830381865afa158015610970573d6000803e3d6000fd5b505050506040513d6000823e3d601f19601f820116820180604052508101906109999190611d5f565b905060405180610100016040528082600001518152602001826020015173ffffffffffffffffffffffffffffffffffffffff168152602001826040015173ffffffffffffffffffffffffffffffffffffffff16815260200182606001518152602001826080015181526020018260a0015181526020018260c0015181526020018260e001516005811115610a3057610a2f611da8565b5b60ff16815250838381518110610a4957610a48611b39565b5b60200260200101819052505080806001019150506108d4565b5080915050919050565b604051806040016040528060608152602001600081525090565b604051806040016040528060608152602001606081525090565b60405180606001604052806060815260200160608152602001606081525090565b60405180610100016040528060008152602001600073ffffffffffffffffffffffffffffffffffffffff168152602001600073ffffffffffffffffffffffffffffffffffffffff16815260200160608152602001606081526020016000815260200160008152602001600060ff1681525090565b6000604051905090565b600080fd5b600080fd5b600073ffffffffffffffffffffffffffffffffffffffff82169050919050565b6000610b7482610b49565b9050919050565b610b8481610b69565b8114610b8f57600080fd5b50565b600081359050610ba181610b7b565b92915050565b600060208284031215610bbd57610bbc610b3f565b5b6000610bcb84828501610b92565b91505092915050565b600081519050919050565b600082825260208201905092915050565b6000819050602082019050919050565b6000819050919050565b610c1381610c00565b82525050565b610c2281610b69565b82525050565b600060ff82169050919050565b610c3e81610c28565b82525050565b60008115159050919050565b610c5981610c44565b82525050565b6101a082016000820151610c766000850182610c0a565b506020820151610c896020850182610c19565b506040820151610c9c6040850182610c19565b506060820151610caf6060850182610c35565b506080820151610cc26080850182610c0a565b5060a0820151610cd560a0850182610c0a565b5060c0820151610ce860c0850182610c0a565b5060e0820151610cfb60e0850182610c0a565b50610100820151610d10610100850182610c50565b50610120820151610d25610120850182610c50565b50610140820151610d3a610140850182610c35565b50610160820151610d4f610160850182610c50565b50610180820151610d64610180850182610c50565b50505050565b6000610d768383610c5f565b6101a08301905092915050565b6000602082019050919050565b6000610d9b82610bd4565b610da58185610bdf565b9350610db083610bf0565b8060005b83811015610de1578151610dc88882610d6a565b9750610dd383610d83565b925050600181019050610db4565b5085935050505092915050565b60006040830160008301518482036000860152610e0b8282610d90565b9150506020830151610e206020860182610c0a565b508091505092915050565b60006020820190508181036000830152610e458184610dee565b905092915050565b6000819050919050565b6000610e72610e6d610e6884610b49565b610e4d565b610b49565b9050919050565b6000610e8482610e57565b9050919050565b6000610e9682610e79565b9050919050565b610ea681610e8b565b82525050565b6000602082019050610ec16000830184610e9d565b92915050565b600081519050919050565b600082825260208201905092915050565b6000819050602082019050919050565b600081519050919050565b600082825260208201905092915050565b60005b83811015610f2d578082015181840152602081019050610f12565b60008484015250505050565b6000601f19601f8301169050919050565b6000610f5582610ef3565b610f5f8185610efe565b9350610f6f818560208601610f0f565b610f7881610f39565b840191505092915050565b600061010083016000830151610f9c6000860182610c0a565b506020830151610faf6020860182610c19565b506040830151610fc26040860182610c19565b5060608301518482036060860152610fda8282610f4a565b91505060808301518482036080860152610ff48282610f4a565b91505060a083015161100960a0860182610c0a565b5060c083015161101c60c0860182610c0a565b5060e083015161102f60e0860182610c35565b508091505092915050565b60006110468383610f83565b905092915050565b6000602082019050919050565b600061106682610ec7565b6110708185610ed2565b93508360208202850161108285610ee3565b8060005b858110156110be578484038952815161109f858261103a565b94506110aa8361104e565b925060208a01995050600181019050611086565b50829750879550505050505092915050565b600081519050919050565b600082825260208201905092915050565b6000819050602082019050919050565b60e0820160008201516111126000850182610c0a565b5060208201516111256020850182610c35565b5060408201516111386040850182610c0a565b50606082015161114b6060850182610c0a565b50608082015161115e6080850182610c0a565b5060a082015161117160a0850182610c50565b5060c082015161118460c0850182610c50565b50505050565b600061119683836110fc565b60e08301905092915050565b6000602082019050919050565b60006111ba826110d0565b6111c481856110db565b93506111cf836110ec565b8060005b838110156112005781516111e7888261118a565b97506111f2836111a2565b9250506001810190506111d3565b5085935050505092915050565b6000604083016000830151848203600086015261122a828261105b565b9150506020830151848203602086015261124482826111af565b9150508091505092915050565b6000602082019050818103600083015261126b818461120d565b905092915050565b60006060830160008301518482036000860152611290828261105b565b915050602083015184820360208601526112aa828261105b565b915050604083015184820360408601526112c482826111af565b9150508091505092915050565b600060208201905081810360008301526112eb8184611273565b905092915050565b600082825260208201905092915050565b600061130f82610ec7565b61131981856112f3565b93508360208202850161132b85610ee3565b8060005b858110156113675784840389528151611348858261103a565b94506113538361104e565b925060208a0199505060018101905061132f565b50829750879550505050505092915050565b600060208201905081810360008301526113938184611304565b905092915050565b60006113a682610e79565b9050919050565b6113b68161139b565b82525050565b60006020820190506113d160008301846113ad565b92915050565b6113e081610b69565b82525050565b60006020820190506113fb60008301846113d7565b92915050565b600080fd5b7f4e487b7100000000000000000000000000000000000000000000000000000000600052604160045260246000fd5b61143e82610f39565b810181811067ffffffffffffffff8211171561145d5761145c611406565b5b80604052505050565b6000611470610b35565b905061147c8282611435565b919050565b600067ffffffffffffffff82111561149c5761149b611406565b5b602082029050602081019050919050565b600080fd5b600080fd5b600080fd5b6114c581610c00565b81146114d057600080fd5b50565b6000815190506114e2816114bc565b92915050565b6000815190506114f781610b7b565b92915050565b61150681610c28565b811461151157600080fd5b50565b600081519050611523816114fd565b92915050565b61153281610c44565b811461153d57600080fd5b50565b60008151905061154f81611529565b92915050565b60006101a0828403121561156c5761156b6114b2565b5b6115776101a0611466565b90506000611587848285016114d3565b600083015250602061159b848285016114e8565b60208301525060406115af848285016114e8565b60408301525060606115c384828501611514565b60608301525060806115d7848285016114d3565b60808301525060a06115eb848285016114d3565b60a08301525060c06115ff848285016114d3565b60c08301525060e0611613848285016114d3565b60e08301525061010061162884828501611540565b6101008301525061012061163e84828501611540565b6101208301525061014061165484828501611514565b6101408301525061016061166a84828501611540565b6101608301525061018061168084828501611540565b6101808301525092915050565b60006116a061169b84611481565b611466565b9050808382526020820190506101a084028301858111156116c4576116c36114ad565b5b835b818110156116ee57806116d98882611555565b8452602084019350506101a0810190506116c6565b5050509392505050565b600082601f83011261170d5761170c611401565b5b815161171d84826020860161168d565b91505092915050565b60006020828403121561173c5761173b610b3f565b5b600082015167ffffffffffffffff81111561175a57611759610b44565b5b611766848285016116f8565b91505092915050565b60006020828403121561178557611784610b3f565b5b6000611793848285016114d3565b91505092915050565b600067ffffffffffffffff8211156117b7576117b6611406565b5b602082029050602081019050919050565b60006117db6117d68461179c565b611466565b905080838252602082019050602084028301858111156117fe576117fd6114ad565b5b835b81811015611827578061181388826114d3565b845260208401935050602081019050611800565b5050509392505050565b600082601f83011261184657611845611401565b5b81516118568482602086016117c8565b91505092915050565b60006020828403121561187557611874610b3f565b5b600082015167ffffffffffffffff81111561189357611892610b44565b5b61189f84828501611831565b91505092915050565b600081519050919050565b600082825260208201905092915050565b6000819050602082019050919050565b60006118e08383610c0a565b60208301905092915050565b6000602082019050919050565b6000611904826118a8565b61190e81856118b3565b9350611919836118c4565b8060005b8381101561194a57815161193188826118d4565b975061193c836118ec565b92505060018101905061191d565b5085935050505092915050565b6000602082019050818103600083015261197181846118f9565b905092915050565b600067ffffffffffffffff82111561199457611993611406565b5b602082029050602081019050919050565b600060e082840312156119bb576119ba6114b2565b5b6119c560e0611466565b905060006119d5848285016114d3565b60008301525060206119e984828501611514565b60208301525060406119fd848285016114d3565b6040830152506060611a11848285016114d3565b6060830152506080611a25848285016114d3565b60808301525060a0611a3984828501611540565b60a08301525060c0611a4d84828501611540565b60c08301525092915050565b6000611a6c611a6784611979565b611466565b90508083825260208201905060e08402830185811115611a8f57611a8e6114ad565b5b835b81811015611ab85780611aa488826119a5565b84526020840193505060e081019050611a91565b5050509392505050565b600082601f830112611ad757611ad6611401565b5b8151611ae7848260208601611a59565b91505092915050565b600060208284031215611b0657611b05610b3f565b5b600082015167ffffffffffffffff811115611b2457611b23610b44565b5b611b3084828501611ac2565b91505092915050565b7f4e487b7100000000000000000000000000000000000000000000000000000000600052603260045260246000fd5b611b7181610c00565b82525050565b6000602082019050611b8c6000830184611b68565b92915050565b600080fd5b600067ffffffffffffffff821115611bb257611bb1611406565b5b611bbb82610f39565b9050602081019050919050565b6000611bdb611bd684611b97565b611466565b905082815260208101848484011115611bf757611bf6611b92565b5b611c02848285610f0f565b509392505050565b600082601f830112611c1f57611c1e611401565b5b8151611c2f848260208601611bc8565b91505092915050565b60068110611c4557600080fd5b50565b600081519050611c5781611c38565b92915050565b60006101008284031215611c7457611c736114b2565b5b611c7f610100611466565b90506000611c8f848285016114d3565b6000830152506020611ca3848285016114e8565b6020830152506040611cb7848285016114e8565b604083015250606082015167ffffffffffffffff811115611cdb57611cda6114b7565b5b611ce784828501611c0a565b606083015250608082015167ffffffffffffffff811115611d0b57611d0a6114b7565b5b611d1784828501611c0a565b60808301525060a0611d2b848285016114d3565b60a08301525060c0611d3f848285016114d3565b60c08301525060e0611d5384828501611c48565b60e08301525092915050565b600060208284031215611d7557611d74610b3f565b5b600082015167ffffffffffffffff811115611d9357611d92610b44565b5b611d9f84828501611c5d565b91505092915050565b7f4e487b7100000000000000000000000000000000000000000000000000000000600052602160045260246000fdfea2646970667358221220cb1a46bdcf0eb0bb1556dca625b6ba238eddf215f539f8da8b7cc37dca67c94e64736f6c634300081c0033",
  "linkReferences": {},
  "deployedLinkReferences": {}
}