{
  "_format": "hh-sol-artifact-1",
  "contractName": "DataFetcher",
  "sourceName": "contracts/DataFetcher.sol",
  "abi": [
    {
      "inputs": [
        {
          "internalType": "address",
          "name": "_market",
          "type": "address"
        },
        {
          "internalType": "address",
          "name": "_dispute",
          "type": "address"
        }
      ],
      "stateMutability": "nonpayable",
      "type": "constructor"
    },
    {
      "inputs": [],
      "name": "dispute",
      "outputs": [
        {
          "internalType": "contract DisputeManager",
          "name": "",
          "type": "address"
        }
      ],
      "stateMutability": "view",
      "type": "function"
    },
    {
      "inputs": [
        {
          "internalType": "address",
          "name": "buyer",
          "type": "address"
        }
      ],
      "name": "getBuyerDashboard",
      "outputs": [
        {
          "components": [
            {
              "components": [
                {
                  "internalType": "uint256",
                  "name": "id",
                  "type": "uint256"
                },
                {
                  "internalType": "address",
                  "name": "seller",
                  "type": "address"
                },
                {
                  "internalType": "address",
                  "name": "buyer",
                  "type": "address"
                },
                {
                  "internalType": "string",
                  "name": "ipfsHash",
                  "type": "string"
                },
                {
                  "internalType": "string",
                  "name": "deliveryIpfsHash",
                  "type": "string"
                },
                {
                  "internalType": "uint256",
                  "name": "price",
                  "type": "uint256"
                },
                {
                  "internalType": "uint256",
                  "name": "listedAt",
                  "type": "uint256"
                },
                {
                  "internalType": "uint8",
                  "name": "status",
                  "type": "uint8"
                }
              ],
              "internalType": "struct DataFetcher.ProductSummary[]",
              "name": "purchases",
              "type": "tuple[]"
            },
            {
              "components": [
                {
                  "internalType": "uint256",
                  "name": "productId",
                  "type": "uint256"
                },
                {
                  "internalType": "uint256",
                  "name": "buyerVotes",
                  "type": "uint256"
                },
                {
                  "internalType": "uint256",
                  "name": "sellerVotes",
                  "type": "uint256"
                },
                {
                  "internalType": "uint256",
                  "name": "deadline",
                  "type": "uint256"
                },
                {
                  "internalType": "bool",
                  "name": "resolved",
                  "type": "bool"
                },
                {
                  "internalType": "bool",
                  "name": "buyerWon",
                  "type": "bool"
                }
              ],
              "internalType": "struct DisputeManager.PartyDisputeView[]",
              "name": "disputes",
              "type": "tuple[]"
            }
          ],
          "internalType": "struct DataFetcher.BuyerDashboard",
          "name": "",
          "type": "tuple"
        }
      ],
      "stateMutability": "view",
      "type": "function"
    },
    {
      "inputs": [
        {
          "internalType": "address",
          "name": "reviewer",
          "type": "address"
        }
      ],
      "name": "getReviewerDashboard",
      "outputs": [
        {
          "components": [
            {
              "components": [
                {
                  "internalType": "uint256",
                  "name": "productId",
                  "type": "uint256"
                },
                {
                  "internalType": "address",
                  "name": "buyer",
                  "type": "address"
                },
                {
                  "internalType": "address",
                  "name": "seller",
                  "type": "address"
                },
                {
                  "internalType": "uint256",
                  "name": "buyerVotes",
                  "type": "uint256"
                },
                {
                  "internalType": "uint256",
                  "name": "sellerVotes",
                  "type": "uint256"
                },
                {
                  "internalType": "uint256",
                  "name": "deadline",
                  "type": "uint256"
                },
                {
                  "internalType": "bool",
                  "name": "resolved",
                  "type": "bool"
                },
                {
                  "internalType": "bool",
                  "name": "buyerWon",
                  "type": "bool"
                },
                {
                  "internalType": "uint8",
                  "name": "myVote",
                  "type": "uint8"
                },
                {
                  "internalType": "bool",
                  "name": "myHasStaked",
                  "type": "bool"
                },
                {
                  "internalType": "bool",
                  "name": "myHasVoted",
                  "type": "bool"
                }
              ],
              "internalType": "struct DisputeManager.DisputeView[]",
              "name": "disputes",
              "type": "tuple[]"
            },
            {
              "internalType": "uint256",
              "name": "totalEarnings",
              "type": "uint256"
            }
          ],
          "internalType": "struct DataFetcher.ReviewerDashboard",
          "name": "",
          "type": "tuple"
        }
      ],
      "stateMutability": "view",
      "type": "function"
    },
    {
      "inputs": [
        {
          "internalType": "address",
          "name": "seller",
          "type": "address"
        }
      ],
      "name": "getSellerDashboard",
      "outputs": [
        {
          "components": [
            {
              "components": [
                {
                  "internalType": "uint256",
                  "name": "id",
                  "type": "uint256"
                },
                {
                  "internalType": "address",
                  "name": "seller",
                  "type": "address"
                },
                {
                  "internalType": "address",
                  "name": "buyer",
                  "type": "address"
                },
                {
                  "internalType": "string",
                  "name": "ipfsHash",
                  "type": "string"
                },
                {
                  "internalType": "string",
                  "name": "deliveryIpfsHash",
                  "type": "string"
                },
                {
                  "internalType": "uint256",
                  "name": "price",
                  "type": "uint256"
                },
                {
                  "internalType": "uint256",
                  "name": "listedAt",
                  "type": "uint256"
                },
                {
                  "internalType": "uint8",
                  "name": "status",
                  "type": "uint8"
                }
              ],
              "internalType": "struct DataFetcher.ProductSummary[]",
              "name": "listedProducts",
              "type": "tuple[]"
            },
            {
              "components": [
                {
                  "internalType": "uint256",
                  "name": "id",
                  "type": "uint256"
                },
                {
                  "internalType": "address",
                  "name": "seller",
                  "type": "address"
                },
                {
                  "internalType": "address",
                  "name": "buyer",
                  "type": "address"
                },
                {
                  "internalType": "string",
                  "name": "ipfsHash",
                  "type": "string"
                },
                {
                  "internalType": "string",
                  "name": "deliveryIpfsHash",
                  "type": "string"
                },
                {
                  "internalType": "uint256",
                  "name": "price",
                  "type": "uint256"
                },
                {
                  "internalType": "uint256",
                  "name": "listedAt",
                  "type": "uint256"
                },
                {
                  "internalType": "uint8",
                  "name": "status",
                  "type": "uint8"
                }
              ],
              "internalType": "struct DataFetcher.ProductSummary[]",
              "name": "myProducts",
              "type": "tuple[]"
            },
            {
              "components": [
                {
                  "internalType": "uint256",
                  "name": "productId",
                  "type": "uint256"
                },
                {
                  "internalType": "uint256",
                  "name": "buyerVotes",
                  "type": "uint256"
                },
                {
                  "internalType": "uint256",
                  "name": "sellerVotes",
                  "type": "uint256"
                },
                {
                  "internalType": "uint256",
                  "name": "deadline",
                  "type": "uint256"
                },
                {
                  "internalType": "bool",
                  "name": "resolved",
                  "type": "bool"
                },
                {
                  "internalType": "bool",
                  "name": "buyerWon",
                  "type": "bool"
                }
              ],
              "internalType": "struct DisputeManager.PartyDisputeView[]",
              "name": "disputes",
              "type": "tuple[]"
            }
          ],
          "internalType": "struct DataFetcher.SellerDashboard",
          "name": "",
          "type": "tuple"
        }
      ],
      "stateMutability": "view",
      "type": "function"
    },
    {
      "inputs": [],
      "name": "getStorefront",
      "outputs": [
        {
          "components": [
            {
              "internalType": "uint256",
              "name": "id",
              "type": "uint256"
            },
            {
              "internalType": "address",
              "name": "seller",
              "type": "address"
            },
            {
              "internalType": "address",
              "name": "buyer",
              "type": "address"
            },
            {
              "internalType": "string",
              "name": "ipfsHash",
              "type": "string"
            },
            {
              "internalType": "string",
              "name": "deliveryIpfsHash",
              "type": "string"
            },
            {
              "internalType": "uint256",
              "name": "price",
              "type": "uint256"
            },
            {
              "internalType": "uint256",
              "name": "listedAt",
              "type": "uint256"
            },
            {
              "internalType": "uint8",
              "name": "status",
              "type": "uint8"
            }
          ],
          "internalType": "struct DataFetcher.ProductSummary[]",
          "name": "",
          "type": "tuple[]"
        }
      ],
      "stateMutability": "view",
      "type": "function"
    },
    {
      "inputs": [],
      "name": "market",
      "outputs": [
        {
          "internalType": "contract ProductMarket",
          "name": "",
          "type": "address"
        }
      ],
      "stateMutability": "view",
      "type": "function"
    }
  ],
  "bytecode": "0x608060405234801561001057600080fd5b50604051611efc380380611efc8339818101604052810190610032919061011d565b816000806101000a81548173ffffffffffffffffffffffffffffffffffffffff021916908373ffffffffffffffffffffffffffffffffffffffff16021790555080600160006101000a81548173ffffffffffffffffffffffffffffffffffffffff021916908373ffffffffffffffffffffffffffffffffffffffff160217905550505061015d565b600080fd5b600073ffffffffffffffffffffffffffffffffffffffff82169050919050565b60006100ea826100bf565b9050919050565b6100fa816100df565b811461010557600080fd5b50565b600081519050610117816100f1565b92915050565b60008060408385031215610134576101336100ba565b5b600061014285828601610108565b925050602061015385828601610108565b9150509250929050565b611d908061016c6000396000f3fe608060405234801561001057600080fd5b50600436106100625760003560e01c80630cc42f961461006757806380f55605146100975780639428f056146100b5578063a7aa1106146100e5578063d84c402414610115578063f240f7c314610133575b600080fd5b610081600480360381019061007c9190610ba7565b610151565b60405161008e9190610e01565b60405180910390f35b61009f6102ae565b6040516100ac9190610e82565b60405180910390f35b6100cf60048036038101906100ca9190610ba7565b6102d2565b6040516100dc9190611214565b60405180910390f35b6100ff60048036038101906100fa9190610ba7565b6104e8565b60405161010c9190611294565b60405180910390f35b61011d6107a6565b60405161012a919061133c565b60405180910390f35b61013b610850565b604051610148919061137f565b60405180910390f35b610159610a6c565b6040518060400160405280600160009054906101000a900473ffffffffffffffffffffffffffffffffffffffff1673ffffffffffffffffffffffffffffffffffffffff1663e5c397b2856040518263ffffffff1660e01b81526004016101bf91906113a9565b600060405180830381865afa1580156101dc573d6000803e3d6000fd5b505050506040513d6000823e3d601f19601f8201168201806040525081019061020591906116bd565b815260200160008054906101000a900473ffffffffffffffffffffffffffffffffffffffff1673ffffffffffffffffffffffffffffffffffffffff16633af10666856040518263ffffffff1660e01b815260040161026391906113a9565b602060405180830381865afa158015610280573d6000803e3d6000fd5b505050506040513d601f19601f820116820180604052508101906102a49190611706565b8152509050919050565b60008054906101000a900473ffffffffffffffffffffffffffffffffffffffff1681565b6102da610a86565b60008060009054906101000a900473ffffffffffffffffffffffffffffffffffffffff1673ffffffffffffffffffffffffffffffffffffffff1663848b6fb5846040518263ffffffff1660e01b815260040161033691906113a9565b600060405180830381865afa158015610353573d6000803e3d6000fd5b505050506040513d6000823e3d601f19601f8201168201806040525081019061037c91906117f6565b905060008060009054906101000a900473ffffffffffffffffffffffffffffffffffffffff1673ffffffffffffffffffffffffffffffffffffffff1663bd8c64fd856040518263ffffffff1660e01b81526004016103da91906113a9565b600060405180830381865afa1580156103f7573d6000803e3d6000fd5b505050506040513d6000823e3d601f19601f8201168201806040525081019061042091906117f6565b9050604051806040016040528061043684610876565b8152602001600160009054906101000a900473ffffffffffffffffffffffffffffffffffffffff1673ffffffffffffffffffffffffffffffffffffffff1663d96085be846040518263ffffffff1660e01b815260040161049691906118ee565b600060405180830381865afa1580156104b3573d6000803e3d6000fd5b505050506040513d6000823e3d601f19601f820116820180604052508101906104dc9190611a73565b81525092505050919050565b6104f0610aa0565b60008060009054906101000a900473ffffffffffffffffffffffffffffffffffffffff1673ffffffffffffffffffffffffffffffffffffffff166352cb26af6040518163ffffffff1660e01b8152600401600060405180830381865afa15801561055e573d6000803e3d6000fd5b505050506040513d6000823e3d601f19601f8201168201806040525081019061058791906117f6565b905060008060009054906101000a900473ffffffffffffffffffffffffffffffffffffffff1673ffffffffffffffffffffffffffffffffffffffff1663bacdafe0856040518263ffffffff1660e01b81526004016105e591906113a9565b600060405180830381865afa158015610602573d6000803e3d6000fd5b505050506040513d6000823e3d601f19601f8201168201806040525081019061062b91906117f6565b905060008060009054906101000a900473ffffffffffffffffffffffffffffffffffffffff1673ffffffffffffffffffffffffffffffffffffffff1663bd8c64fd866040518263ffffffff1660e01b815260040161068991906113a9565b600060405180830381865afa1580156106a6573d6000803e3d6000fd5b505050506040513d6000823e3d601f19601f820116820180604052508101906106cf91906117f6565b905060405180606001604052806106e585610876565b81526020016106f384610876565b8152602001600160009054906101000a900473ffffffffffffffffffffffffffffffffffffffff1673ffffffffffffffffffffffffffffffffffffffff1663d96085be846040518263ffffffff1660e01b815260040161075391906118ee565b600060405180830381865afa158015610770573d6000803e3d6000fd5b505050506040513d6000823e3d601f19601f820116820180604052508101906107999190611a73565b8152509350505050919050565b606060008060009054906101000a900473ffffffffffffffffffffffffffffffffffffffff1673ffffffffffffffffffffffffffffffffffffffff166352cb26af6040518163ffffffff1660e01b8152600401600060405180830381865afa158015610816573d6000803e3d6000fd5b505050506040513d6000823e3d601f19601f8201168201806040525081019061083f91906117f6565b905061084a81610876565b91505090565b600160009054906101000a900473ffffffffffffffffffffffffffffffffffffffff1681565b60606000825167ffffffffffffffff811115610895576108946113c9565b5b6040519080825280602002602001820160405280156108ce57816020015b6108bb610ac1565b8152602001906001900390816108b35790505b50905060005b8351811015610a625760008060009054906101000a900473ffffffffffffffffffffffffffffffffffffffff1673ffffffffffffffffffffffffffffffffffffffff1663b9db15b486848151811061092f5761092e611abc565b5b60200260200101516040518263ffffffff1660e01b81526004016109539190611afa565b600060405180830381865afa158015610970573d6000803e3d6000fd5b505050506040513d6000823e3d601f19601f820116820180604052508101906109999190611ce2565b905060405180610100016040528082600001518152602001826020015173ffffffffffffffffffffffffffffffffffffffff168152602001826040015173ffffffffffffffffffffffffffffffffffffffff16815260200182606001518152602001826080015181526020018260a0015181526020018260c0015181526020018260e001516005811115610a3057610a2f611d2b565b5b60ff16815250838381518110610a4957610a48611abc565b5b60200260200101819052505080806001019150506108d4565b5080915050919050565b604051806040016040528060608152602001600081525090565b604051806040016040528060608152602001606081525090565b60405180606001604052806060815260200160608152602001606081525090565b60405180610100016040528060008152602001600073ffffffffffffffffffffffffffffffffffffffff168152602001600073ffffffffffffffffffffffffffffffffffffffff16815260200160608152602001606081526020016000815260200160008152602001600060ff1681525090565b6000604051905090565b600080fd5b600080fd5b600073ffffffffffffffffffffffffffffffffffffffff82169050919050565b6000610b7482610b49565b9050919050565b610b8481610b69565b8114610b8f57600080fd5b50565b600081359050610ba181610b7b565b92915050565b600060208284031215610bbd57610bbc610b3f565b5b6000610bcb84828501610b92565b91505092915050565b600081519050919050565b600082825260208201905092915050565b6000819050602082019050919050565b6000819050919050565b610c1381610c00565b82525050565b610c2281610b69565b82525050565b60008115159050919050565b610c3d81610c28565b82525050565b600060ff82169050919050565b610c5981610c43565b82525050565b61016082016000820151610c766000850182610c0a565b506020820151610c896020850182610c19565b506040820151610c9c6040850182610c19565b506060820151610caf6060850182610c0a565b506080820151610cc26080850182610c0a565b5060a0820151610cd560a0850182610c0a565b5060c0820151610ce860c0850182610c34565b5060e0820151610cfb60e0850182610c34565b50610100820151610d10610100850182610c50565b50610120820151610d25610120850182610c34565b50610140820151610d3a610140850182610c34565b50505050565b6000610d4c8383610c5f565b6101608301905092915050565b6000602082019050919050565b6000610d7182610bd4565b610d7b8185610bdf565b9350610d8683610bf0565b8060005b83811015610db7578151610d9e8882610d40565b9750610da983610d59565b925050600181019050610d8a565b5085935050505092915050565b60006040830160008301518482036000860152610de18282610d66565b9150506020830151610df66020860182610c0a565b508091505092915050565b60006020820190508181036000830152610e1b8184610dc4565b905092915050565b6000819050919050565b6000610e48610e43610e3e84610b49565b610e23565b610b49565b9050919050565b6000610e5a82610e2d565b9050919050565b6000610e6c82610e4f565b9050919050565b610e7c81610e61565b82525050565b6000602082019050610e976000830184610e73565b92915050565b600081519050919050565b600082825260208201905092915050565b6000819050602082019050919050565b600081519050919050565b600082825260208201905092915050565b60005b83811015610f03578082015181840152602081019050610ee8565b60008484015250505050565b6000601f19601f8301169050919050565b6000610f2b82610ec9565b610f358185610ed4565b9350610f45818560208601610ee5565b610f4e81610f0f565b840191505092915050565b600061010083016000830151610f726000860182610c0a565b506020830151610f856020860182610c19565b506040830151610f986040860182610c19565b5060608301518482036060860152610fb08282610f20565b91505060808301518482036080860152610fca8282610f20565b91505060a0830151610fdf60a0860182610c0a565b5060c0830151610ff260c0860182610c0a565b5060e083015161100560e0860182610c50565b508091505092915050565b600061101c8383610f59565b905092915050565b6000602082019050919050565b600061103c82610e9d565b6110468185610ea8565b93508360208202850161105885610eb9565b8060005b8581101561109457848403895281516110758582611010565b945061108083611024565b925060208a0199505060018101905061105c565b50829750879550505050505092915050565b600081519050919050565b600082825260208201905092915050565b6000819050602082019050919050565b60c0820160008201516110e86000850182610c0a565b5060208201516110fb6020850182610c0a565b50604082015161110e6040850182610c0a565b5060608201516111216060850182610c0a565b5060808201516111346080850182610c34565b5060a082015161114760a0850182610c34565b50505050565b600061115983836110d2565b60c08301905092915050565b6000602082019050919050565b600061117d826110a6565b61118781856110b1565b9350611192836110c2565b8060005b838110156111c35781516111aa888261114d565b97506111b583611165565b925050600181019050611196565b5085935050505092915050565b600060408301600083015184820360008601526111ed8282611031565b915050602083015184820360208601526112078282611172565b9150508091505092915050565b6000602082019050818103600083015261122e81846111d0565b905092915050565b600060608301600083015184820360008601526112538282611031565b9150506020830151848203602086015261126d8282611031565b915050604083015184820360408601526112878282611172565b9150508091505092915050565b600060208201905081810360008301526112ae8184611236565b905092915050565b600082825260208201905092915050565b60006112d282610e9d565b6112dc81856112b6565b9350836020820285016112ee85610eb9565b8060005b8581101561132a578484038952815161130b8582611010565b945061131683611024565b925060208a019950506001810190506112f2565b50829750879550505050505092915050565b6000602082019050818103600083015261135681846112c7565b905092915050565b600061136982610e4f565b9050919050565b6113798161135e565b82525050565b60006020820190506113946000830184611370565b92915050565b6113a381610b69565b82525050565b60006020820190506113be600083018461139a565b92915050565b600080fd5b7f4e487b7100000000000000000000000000000000000000000000000000000000600052604160045260246000fd5b61140182610f0f565b810181811067ffffffffffffffff821117156114205761141f6113c9565b5b80604052505050565b6000611433610b35565b905061143f82826113f8565b919050565b600067ffffffffffffffff82111561145f5761145e6113c9565b5b602082029050602081019050919050565b600080fd5b600080fd5b600080fd5b61148881610c00565b811461149357600080fd5b50565b6000815190506114a58161147f565b92915050565b6000815190506114ba81610b7b565b92915050565b6114c981610c28565b81146114d457600080fd5b50565b6000815190506114e6816114c0565b92915050565b6114f581610c43565b811461150057600080fd5b50565b600081519050611512816114ec565b92915050565b6000610160828403121561152f5761152e611475565b5b61153a610160611429565b9050600061154a84828501611496565b600083015250602061155e848285016114ab565b6020830152506040611572848285016114ab565b604083015250606061158684828501611496565b606083015250608061159a84828501611496565b60808301525060a06115ae84828501611496565b60a08301525060c06115c2848285016114d7565b60c08301525060e06115d6848285016114d7565b60e0830152506101006115eb84828501611503565b61010083015250610120611601848285016114d7565b61012083015250610140611617848285016114d7565b6101408301525092915050565b600061163761163284611444565b611429565b905080838252602082019050610160840283018581111561165b5761165a611470565b5b835b8181101561168557806116708882611518565b8452602084019350506101608101905061165d565b5050509392505050565b600082601f8301126116a4576116a36113c4565b5b81516116b4848260208601611624565b91505092915050565b6000602082840312156116d3576116d2610b3f565b5b600082015167ffffffffffffffff8111156116f1576116f0610b44565b5b6116fd8482850161168f565b91505092915050565b60006020828403121561171c5761171b610b3f565b5b600061172a84828501611496565b91505092915050565b600067ffffffffffffffff82111561174e5761174d6113c9565b5b602082029050602081019050919050565b600061177261176d84611733565b611429565b9050808382526020820190506020840283018581111561179557611794611470565b5b835b818110156117be57806117aa8882611496565b845260208401935050602081019050611797565b5050509392505050565b600082601f8301126117dd576117dc6113c4565b5b81516117ed84826020860161175f565b91505092915050565b60006020828403121561180c5761180b610b3f565b5b600082015167ffffffffffffffff81111561182a57611829610b44565b5b611836848285016117c8565b91505092915050565b600081519050919050565b600082825260208201905092915050565b6000819050602082019050919050565b60006118778383610c0a565b60208301905092915050565b6000602082019050919050565b600061189b8261183f565b6118a5818561184a565b93506118b08361185b565b8060005b838110156118e15781516118c8888261186b565b97506118d383611883565b9250506001810190506118b4565b5085935050505092915050565b600060208201905081810360008301526119088184611890565b905092915050565b600067ffffffffffffffff82111561192b5761192a6113c9565b5b602082029050602081019050919050565b600060c0828403121561195257611951611475565b5b61195c60c0611429565b9050600061196c84828501611496565b600083015250602061198084828501611496565b602083015250604061199484828501611496565b60408301525060606119a884828501611496565b60608301525060806119bc848285016114d7565b60808301525060a06119d0848285016114d7565b60a08301525092915050565b60006119ef6119ea84611910565b611429565b90508083825260208201905060c08402830185811115611a1257611a11611470565b5b835b81811015611a3b5780611a27888261193c565b84526020840193505060c081019050611a14565b5050509392505050565b600082601f830112611a5a57611a596113c4565b5b8151611a6a8482602086016119dc565b91505092915050565b600060208284031215611a8957611a88610b3f565b5b600082015167ffffffffffffffff811115611aa757611aa6610b44565b5b611ab384828501611a45565b91505092915050565b7f4e487b7100000000000000000000000000000000000000000000000000000000600052603260045260246000fd5b611af481610c00565b82525050565b6000602082019050611b0f6000830184611aeb565b92915050565b600080fd5b600067ffffffffffffffff821115611b3557611b346113c9565b5b611b3e82610f0f565b9050602081019050919050565b6000611b5e611b5984611b1a565b611429565b905082815260208101848484011115611b7a57611b79611b15565b5b611b85848285610ee5565b509392505050565b600082601f830112611ba257611ba16113c4565b5b8151611bb2848260208601611b4b565b91505092915050565b60068110611bc857600080fd5b50565b600081519050611bda81611bbb565b92915050565b60006101008284031215611bf757611bf6611475565b5b611c02610100611429565b90506000611c1284828501611496565b6000830152506020611c26848285016114ab565b6020830152506040611c3a848285016114ab565b604083015250606082015167ffffffffffffffff811115611c5e57611c5d61147a565b5b611c6a84828501611b8d565b606083015250608082015167ffffffffffffffff811115611c8e57611c8d61147a565b5b611c9a84828501611b8d565b60808301525060a0611cae84828501611496565b60a08301525060c0611cc284828501611496565b60c08301525060e0611cd684828501611bcb565b60e08301525092915050565b600060208284031215611cf857611cf7610b3f565b5b600082015167ffffffffffffffff811115611d1657611d15610b44565b5b611d2284828501611be0565b91505092915050565b7f4e487b7100000000000000000000000000000000000000000000000000000000600052602160045260246000fdfea26469706673582212205369b03401192b443f4cfc33e693b55c518a203897293e1f4c22974a092149eb64736f6c634300081c0033",
  "linkReferences": {},
  "deployedLinkReferences": {}
}