{
  "_format": "hh-sol-artifact-1",
  "contractName": "DisputeManager",
  "sourceName": "contracts/DisputeManager.sol",
  "abi": [
    {
      "inputs": [
        {
          "internalType": "address",
          "name": "_registry",
          "type": "address"
        },
        {
          "internalType": "address",
          "name": "_market",
          "type": "address"
        }
      ],
      "stateMutability": "nonpayable",
      "type": "constructor"
    },
    {
      "anonymous": false,
      "inputs": [
        {
          "indexed": true,
          "internalType": "uint256",
          "name": "productId",
          "type": "uint256"
        },
        {
          "indexed": false,
          "internalType": "address[]",
          "name": "reviewers",
          "type": "address[]"
        }
      ],
      "name": "DisputeOpened",
      "type": "event"
    },
    {
      "anonymous": false,
      "inputs": [
        {
          "indexed": true,
          "internalType": "uint256",
          "name": "productId",
          "type": "uint256"
        },
        {
          "indexed": false,
          "internalType": "bool",
          "name": "buyerWon",
          "type": "bool"
        },
        {
          "indexed": false,
          "internalType": "uint256",
          "name": "buyerVotes",
          "type": "uint256"
        },
        {
          "indexed": false,
          "internalType": "uint256",
          "name": "sellerVotes",
          "type": "uint256"
        }
      ],
      "name": "DisputeResolved",
      "type": "event"
    },
    {
      "anonymous": false,
      "inputs": [
        {
          "indexed": true,
          "internalType": "uint256",
          "name": "productId",
          "type": "uint256"
        },
        {
          "indexed": true,
          "internalType": "address",
          "name": "reviewer",
          "type": "address"
        }
      ],
      "name": "ReviewerStaked",
      "type": "event"
    },
    {
      "anonymous": false,
      "inputs": [
        {
          "indexed": true,
          "internalType": "uint256",
          "name": "productId",
          "type": "uint256"
        },
        {
          "indexed": true,
          "internalType": "address",
          "name": "reviewer",
          "type": "address"
        }
      ],
      "name": "ReviewerWithdrew",
      "type": "event"
    },
    {
      "anonymous": false,
      "inputs": [
        {
          "indexed": true,
          "internalType": "uint256",
          "name": "productId",
          "type": "uint256"
        }
      ],
      "name": "TieDetected",
      "type": "event"
    },
    {
      "anonymous": false,
      "inputs": [
        {
          "indexed": true,
          "internalType": "uint256",
          "name": "productId",
          "type": "uint256"
        },
        {
          "indexed": true,
          "internalType": "address",
          "name": "reviewer",
          "type": "address"
        },
        {
          "indexed": false,
          "internalType": "enum DisputeManager.Vote",
          "name": "vote",
          "type": "uint8"
        }
      ],
      "name": "VoteCast",
      "type": "event"
    },
    {
      "inputs": [],
      "name": "DISPUTE_STAKE",
      "outputs": [
        {
          "internalType": "uint256",
          "name": "",
          "type": "uint256"
        }
      ],
      "stateMutability": "view",
      "type": "function"
    },
    {
      "inputs": [],
      "name": "PLATFORM_FEE",
      "outputs": [
        {
          "internalType": "uint256",
          "name": "",
          "type": "uint256"
        }
      ],
      "stateMutability": "view",
      "type": "function"
    },
    {
      "inputs": [],
      "name": "REVIEWER_COUNT",
      "outputs": [
        {
          "internalType": "uint256",
          "name": "",
          "type": "uint256"
        }
      ],
      "stateMutability": "view",
      "type": "function"
    },
    {
      "inputs": [],
      "name": "REVIEWER_STAKE",
      "outputs": [
        {
          "internalType": "uint256",
          "name": "",
          "type": "uint256"
        }
      ],
      "stateMutability": "view",
      "type": "function"
    },
    {
      "inputs": [],
      "name": "VOTING_PERIOD",
      "outputs": [
        {
          "internalType": "uint256",
          "name": "",
          "type": "uint256"
        }
      ],
      "stateMutability": "view",
      "type": "function"
    },
    {
      "inputs": [
        {
          "internalType": "uint256",
          "name": "productId",
          "type": "uint256"
        },
        {
          "internalType": "enum DisputeManager.Vote",
          "name": "vote",
          "type": "uint8"
        }
      ],
      "name": "castVote",
      "outputs": [],
      "stateMutability": "nonpayable",
      "type": "function"
    },
    {
      "inputs": [
        {
          "internalType": "uint256",
          "name": "productId",
          "type": "uint256"
        }
      ],
      "name": "getDisputeInfo",
      "outputs": [
        {
          "internalType": "address[]",
          "name": "assignedReviewers",
          "type": "address[]"
        },
        {
          "internalType": "uint256",
          "name": "buyerVotes",
          "type": "uint256"
        },
        {
          "internalType": "uint256",
          "name": "sellerVotes",
          "type": "uint256"
        },
        {
          "internalType": "uint256",
          "name": "deadline",
          "type": "uint256"
        },
        {
          "internalType": "bool",
          "name": "resolved",
          "type": "bool"
        },
        {
          "internalType": "bool",
          "name": "buyerWon",
          "type": "bool"
        }
      ],
      "stateMutability": "view",
      "type": "function"
    },
    {
      "inputs": [
        {
          "internalType": "uint256[]",
          "name": "productIds",
          "type": "uint256[]"
        }
      ],
      "name": "getDisputesByParty",
      "outputs": [
        {
          "components": [
            {
              "internalType": "uint256",
              "name": "productId",
              "type": "uint256"
            },
            {
              "internalType": "uint256",
              "name": "buyerVotes",
              "type": "uint256"
            },
            {
              "internalType": "uint256",
              "name": "sellerVotes",
              "type": "uint256"
            },
            {
              "internalType": "uint256",
              "name": "deadline",
              "type": "uint256"
            },
            {
              "internalType": "bool",
              "name": "resolved",
              "type": "bool"
            },
            {
              "internalType": "bool",
              "name": "buyerWon",
              "type": "bool"
            }
          ],
          "internalType": "struct DisputeManager.PartyDisputeView[]",
          "name": "",
          "type": "tuple[]"
        }
      ],
      "stateMutability": "view",
      "type": "function"
    },
    {
      "inputs": [
        {
          "internalType": "address",
          "name": "reviewer",
          "type": "address"
        }
      ],
      "name": "getDisputesByReviewer",
      "outputs": [
        {
          "internalType": "uint256[]",
          "name": "",
          "type": "uint256[]"
        }
      ],
      "stateMutability": "view",
      "type": "function"
    },
    {
      "inputs": [
        {
          "internalType": "address",
          "name": "reviewer",
          "type": "address"
        }
      ],
      "name": "getReviewerDisputeDetails",
      "outputs": [
        {
          "components": [
            {
              "internalType": "uint256",
              "name": "productId",
              "type": "uint256"
            },
            {
              "internalType": "address",
              "name": "buyer",
              "type": "address"
            },
            {
              "internalType": "address",
              "name": "seller",
              "type": "address"
            },
            {
              "internalType": "uint256",
              "name": "buyerVotes",
              "type": "uint256"
            },
            {
              "internalType": "uint256",
              "name": "sellerVotes",
              "type": "uint256"
            },
            {
              "internalType": "uint256",
              "name": "deadline",
              "type": "uint256"
            },
            {
              "internalType": "bool",
              "name": "resolved",
              "type": "bool"
            },
            {
              "internalType": "bool",
              "name": "buyerWon",
              "type": "bool"
            },
            {
              "internalType": "uint8",
              "name": "myVote",
              "type": "uint8"
            },
            {
              "internalType": "bool",
              "name": "myHasStaked",
              "type": "bool"
            },
            {
              "internalType": "bool",
              "name": "myHasVoted",
              "type": "bool"
            }
          ],
          "internalType": "struct DisputeManager.DisputeView[]",
          "name": "",
          "type": "tuple[]"
        }
      ],
      "stateMutability": "view",
      "type": "function"
    },
    {
      "inputs": [
        {
          "internalType": "uint256",
          "name": "productId",
          "type": "uint256"
        },
        {
          "internalType": "address",
          "name": "reviewer",
          "type": "address"
        }
      ],
      "name": "getReviewerStakeStatus",
      "outputs": [
        {
          "internalType": "bool",
          "name": "hasStaked",
          "type": "bool"
        },
        {
          "internalType": "bool",
          "name": "hasVoted",
          "type": "bool"
        }
      ],
      "stateMutability": "view",
      "type": "function"
    },
    {
      "inputs": [
        {
          "internalType": "uint256",
          "name": "productId",
          "type": "uint256"
        },
        {
          "internalType": "address",
          "name": "reviewer",
          "type": "address"
        }
      ],
      "name": "getReviewerVote",
      "outputs": [
        {
          "internalType": "enum DisputeManager.Vote",
          "name": "",
          "type": "uint8"
        }
      ],
      "stateMutability": "view",
      "type": "function"
    },
    {
      "inputs": [],
      "name": "market",
      "outputs": [
        {
          "internalType": "contract ProductMarket",
          "name": "",
          "type": "address"
        }
      ],
      "stateMutability": "view",
      "type": "function"
    },
    {
      "inputs": [
        {
          "internalType": "uint256",
          "name": "productId",
          "type": "uint256"
        },
        {
          "internalType": "address",
          "name": "buyer",
          "type": "address"
        },
        {
          "internalType": "address",
          "name": "seller",
          "type": "address"
        },
        {
          "internalType": "bool",
          "name": "",
          "type": "bool"
        }
      ],
      "name": "openDispute",
      "outputs": [],
      "stateMutability": "nonpayable",
      "type": "function"
    },
    {
      "inputs": [],
      "name": "platformBalance",
      "outputs": [
        {
          "internalType": "uint256",
          "name": "",
          "type": "uint256"
        }
      ],
      "stateMutability": "view",
      "type": "function"
    },
    {
      "inputs": [],
      "name": "registry",
      "outputs": [
        {
          "internalType": "contract ReviewerRegistry",
          "name": "",
          "type": "address"
        }
      ],
      "stateMutability": "view",
      "type": "function"
    },
    {
      "inputs": [
        {
          "internalType": "address",
          "name": "",
          "type": "address"
        }
      ],
      "name": "reviewerEarnings",
      "outputs": [
        {
          "internalType": "uint256",
          "name": "",
          "type": "uint256"
        }
      ],
      "stateMutability": "view",
      "type": "function"
    },
    {
      "inputs": [
        {
          "internalType": "uint256",
          "name": "productId",
          "type": "uint256"
        }
      ],
      "name": "settleDispute",
      "outputs": [],
      "stateMutability": "nonpayable",
      "type": "function"
    },
    {
      "inputs": [
        {
          "internalType": "uint256",
          "name": "productId",
          "type": "uint256"
        }
      ],
      "name": "stakeToEnter",
      "outputs": [],
      "stateMutability": "payable",
      "type": "function"
    },
    {
      "inputs": [
        {
          "internalType": "address",
          "name": "to",
          "type": "address"
        }
      ],
      "name": "withdrawPlatformFee",
      "outputs": [],
      "stateMutability": "nonpayable",
      "type": "function"
    },
    {
      "inputs": [
        {
          "internalType": "uint256",
          "name": "productId",
          "type": "uint256"
        }
      ],
      "name": "withdrawStake",
      "outputs": [],
      "stateMutability": "nonpayable",
      "type": "function"
    },
    {
      "stateMutability": "payable",
      "type": "receive"
    }
  ],
  "bytecode": "0x608060405234801561001057600080fd5b50604051613c7b380380613c7b8339818101604052810190610032919061011d565b816000806101000a81548173ffffffffffffffffffffffffffffffffffffffff021916908373ffffffffffffffffffffffffffffffffffffffff16021790555080600160006101000a81548173ffffffffffffffffffffffffffffffffffffffff021916908373ffffffffffffffffffffffffffffffffffffffff160217905550505061015d565b600080fd5b600073ffffffffffffffffffffffffffffffffffffffff82169050919050565b60006100ea826100bf565b9050919050565b6100fa816100df565b811461010557600080fd5b50565b600081519050610117816100f1565b92915050565b60008060408385031215610134576101336100ba565b5b600061014285828601610108565b925050602061015385828601610108565b9150509250929050565b613b0f8061016c6000396000f3fe60806040526004361061012e5760003560e01c806362a5dbbc116100ab578063c44705cb1161006f578063c44705cb146103f7578063c517694114610422578063d17ff07c1461044b578063d96085be14610489578063e5c397b2146104c6578063f971c7731461050357610135565b806362a5dbbc146103205780637b1039991461034b57806380f5560514610376578063b1610d7e146103a1578063b294ed13146103cc57610135565b806340c1477c116100f257806340c1477c1461021f578063525640651461023b57806356781388146102785780635fe7897f146102a15780636169c308146102de57610135565b806319372a2e1461013a5780631c099ad61461016557806325d5971f1461018e57806334fbc9a1146101b75780633af10666146101e257610135565b3661013557005b600080fd5b34801561014657600080fd5b5061014f61052c565b60405161015c9190612627565b60405180910390f35b34801561017157600080fd5b5061018c60048036038101906101879190612682565b610531565b005b34801561019a57600080fd5b506101b560048036038101906101b09190612682565b61100d565b005b3480156101c357600080fd5b506101cc6112ed565b6040516101d99190612627565b60405180910390f35b3480156101ee57600080fd5b506102096004803603810190610204919061270d565b6112f9565b6040516102169190612627565b60405180910390f35b61023960048036038101906102349190612682565b611311565b005b34801561024757600080fd5b50610262600480360381019061025d919061273a565b611639565b60405161026f91906127f1565b60405180910390f35b34801561028457600080fd5b5061029f600480360381019061029a9190612831565b6116a7565b005b3480156102ad57600080fd5b506102c860048036038101906102c3919061270d565b611a63565b6040516102d5919061292f565b60405180910390f35b3480156102ea57600080fd5b5061030560048036038101906103009190612682565b611afa565b60405161031796959493929190612a2a565b60405180910390f35b34801561032c57600080fd5b50610335611bef565b6040516103429190612627565b60405180910390f35b34801561035757600080fd5b50610360611bf5565b60405161036d9190612af1565b60405180910390f35b34801561038257600080fd5b5061038b611c19565b6040516103989190612b3f565b60405180910390f35b3480156103ad57600080fd5b506103b6611c3f565b6040516103c39190612627565b60405180910390f35b3480156103d857600080fd5b506103e1611c46565b6040516103ee9190612627565b60405180910390f35b34801561040357600080fd5b5061040c611c52565b6040516104199190612627565b60405180910390f35b34801561042e57600080fd5b506104496004803603810190610444919061270d565b611c5e565b005b34801561045757600080fd5b50610472600480360381019061046d919061273a565b611cb8565b604051610480929190612b5a565b60405180910390f35b34801561049557600080fd5b506104b060048036038101906104ab9190612be8565b611d42565b6040516104bd9190612d6e565b60405180910390f35b3480156104d257600080fd5b506104ed60048036038101906104e8919061270d565b611e8c565b6040516104fa9190612f3d565b60405180910390f35b34801561050f57600080fd5b5061052a60048036038101906105259190612f8b565b61218b565b005b600581565b60006002600083815260200190815260200160002090508060090160009054906101000a900460ff161561059a576040517f08c379a00000000000000000000000000000000000000000000000000000000081526004016105919061304f565b60405180910390fd5b80600801544210156105e1576040517f08c379a00000000000000000000000000000000000000000000000000000000081526004016105d8906130bb565b60405180910390fd5b80600601548160050154036109c75762015180426105ff919061310a565b8160080181905550600081600501819055506000816006018190555060005b81600301805490508110156107c95760008260030182815481106106455761064461313e565b5b9060005260206000200160009054906101000a900473ffffffffffffffffffffffffffffffffffffffff16905060008360040160008373ffffffffffffffffffffffffffffffffffffffff1673ffffffffffffffffffffffffffffffffffffffff16815260200190815260200160002090508060000160009054906101000a900460ff1680156106e457508060000160019054906101000a900460ff16155b156107705760008160000160006101000a81548160ff02191690831515021790555083600701600081548092919061071b9061316d565b91905055508173ffffffffffffffffffffffffffffffffffffffff166108fc67016345785d8a00009081150290604051600060405180830381858888f1935050505015801561076e573d6000803e3d6000fd5b505b60008160000160016101000a81548160ff02191690831515021790555060008160000160026101000a81548160ff021916908360028111156107b5576107b461277a565b5b02179055505050808060010191505061061e565b5060008054906101000a900473ffffffffffffffffffffffffffffffffffffffff1673ffffffffffffffffffffffffffffffffffffffff16636c1cb4cb8260010160009054906101000a900473ffffffffffffffffffffffffffffffffffffffff168360020160009054906101000a900473ffffffffffffffffffffffffffffffffffffffff1660056040518463ffffffff1660e01b8152600401610870939291906131a5565b600060405180830381865afa15801561088d573d6000803e3d6000fd5b505050506040513d6000823e3d601f19601f820116820180604052508101906108b69190613340565b8160030190805190602001906108cd92919061249c565b5060005b816003018054905081101561099357600360008360030183815481106108fa576108f961313e565b5b9060005260206000200160009054906101000a900473ffffffffffffffffffffffffffffffffffffffff1673ffffffffffffffffffffffffffffffffffffffff1673ffffffffffffffffffffffffffffffffffffffff16815260200190815260200160002083908060018154018082558091505060019003906000526020600020016000909190919091505580806001019150506108d1565b50817f117bd2bc2ac2ef65bf31c3adca2a9cf1307829a961d80914cc7f6878b93ba39a60405160405180910390a25061100a565b60008160060154826005015411905060018260090160006101000a81548160ff021916908315150217905550808260090160016101000a81548160ff021916908315150217905550600081610a1d576002610a20565b60015b905060006706f05b59d3b2000090506000805b8560030180549050811015610b73576000866003018281548110610a5a57610a5961313e565b5b9060005260206000200160009054906101000a900473ffffffffffffffffffffffffffffffffffffffff16905060008760040160008373ffffffffffffffffffffffffffffffffffffffff1673ffffffffffffffffffffffffffffffffffffffff16815260200190815260200160002090508060000160009054906101000a900460ff168015610af857508060000160019054906101000a900460ff165b15610b6457856002811115610b1057610b0f61277a565b5b8160000160029054906101000a900460ff166002811115610b3457610b3361277a565b5b03610b4c578380610b4490613389565b945050610b63565b67016345785d8a000085610b60919061310a565b94505b5b50508080600101915050610a33565b50600067016345785d8a0000831015610b8c5782610b96565b67016345785d8a00005b90508060056000828254610baa919061310a565b9250508190555060008184610bbf91906133d1565b90506000808411610bd1576000610bde565b8382610bdd9190613434565b5b905060005b8860030180549050811015610e1c576000896003018281548110610c0a57610c0961313e565b5b9060005260206000200160009054906101000a900473ffffffffffffffffffffffffffffffffffffffff16905060008a60040160008373ffffffffffffffffffffffffffffffffffffffff1673ffffffffffffffffffffffffffffffffffffffff16815260200190815260200160002090508060000160009054906101000a900460ff1615610e0d578060000160019054906101000a900460ff168015610ce55750886002811115610cbf57610cbe61277a565b5b8160000160029054906101000a900460ff166002811115610ce357610ce261277a565b5b145b15610da55760008467016345785d8a0000610d00919061310a565b905084600460008573ffffffffffffffffffffffffffffffffffffffff1673ffffffffffffffffffffffffffffffffffffffff1681526020019081526020016000206000828254610d51919061310a565b925050819055508273ffffffffffffffffffffffffffffffffffffffff166108fc829081150290604051600060405180830381858888f19350505050158015610d9e573d6000803e3d6000fd5b5050610e0c565b8060000160019054906101000a900460ff16610e0b578173ffffffffffffffffffffffffffffffffffffffff166108fc67016345785d8a00009081150290604051600060405180830381858888f19350505050158015610e09573d6000803e3d6000fd5b505b5b5b50508080600101915050610be3565b50600087610e2b576000610e35565b6706f05b59d3b200005b9050600088610e4c576706f05b59d3b20000610e4f565b60005b90506000600160009054906101000a900473ffffffffffffffffffffffffffffffffffffffff1673ffffffffffffffffffffffffffffffffffffffff166706f05b59d3b20000604051610ea190613496565b60006040518083038185875af1925050503d8060008114610ede576040519150601f19603f3d011682016040523d82523d6000602084013e610ee3565b606091505b5050905080610f27576040517f08c379a0000000000000000000000000000000000000000000000000000000008152600401610f1e906134f7565b60405180910390fd5b600160009054906101000a900473ffffffffffffffffffffffffffffffffffffffff1673ffffffffffffffffffffffffffffffffffffffff166351f112598d8c86866040518563ffffffff1660e01b8152600401610f889493929190613517565b600060405180830381600087803b158015610fa257600080fd5b505af1158015610fb6573d6000803e3d6000fd5b505050508b7f88eecbbf54eddf9adbeb289ef36beac8d141af4274d667ccc04a40044df75b398b8d600501548e60060154604051610ff69392919061355c565b60405180910390a250505050505050505050505b50565b60006002600083815260200190815260200160002090508060090160009054906101000a900460ff1615611076576040517f08c379a000000000000000000000000000000000000000000000000000000000815260040161106d9061304f565b60405180910390fd5b806008015442106110bc576040517f08c379a00000000000000000000000000000000000000000000000000000000081526004016110b3906135df565b60405180910390fd5b8060040160003373ffffffffffffffffffffffffffffffffffffffff1673ffffffffffffffffffffffffffffffffffffffff16815260200190815260200160002060000160009054906101000a900460ff1661114d576040517f08c379a00000000000000000000000000000000000000000000000000000000081526004016111449061364b565b60405180910390fd5b8060040160003373ffffffffffffffffffffffffffffffffffffffff1673ffffffffffffffffffffffffffffffffffffffff16815260200190815260200160002060000160019054906101000a900460ff16156111df576040517f08c379a00000000000000000000000000000000000000000000000000000000081526004016111d6906136b7565b60405180910390fd5b60008160040160003373ffffffffffffffffffffffffffffffffffffffff1673ffffffffffffffffffffffffffffffffffffffff16815260200190815260200160002060000160006101000a81548160ff0219169083151502179055508060070160008154809291906112519061316d565b91905055503373ffffffffffffffffffffffffffffffffffffffff166108fc67016345785d8a00009081150290604051600060405180830381858888f193505050501580156112a4573d6000803e3d6000fd5b503373ffffffffffffffffffffffffffffffffffffffff16827fae2af8c9373892348f61e22094b950d4809b52470d9e15f99a6819713afed53d60405160405180910390a35050565b67016345785d8a000081565b60046020528060005260406000206000915090505481565b60006002600083815260200190815260200160002090508060090160009054906101000a900460ff161561137a576040517f08c379a00000000000000000000000000000000000000000000000000000000081526004016113719061304f565b60405180910390fd5b806008015442106113c0576040517f08c379a00000000000000000000000000000000000000000000000000000000081526004016113b7906135df565b60405180910390fd5b67016345785d8a0000341461140a576040517f08c379a000000000000000000000000000000000000000000000000000000000815260040161140190613723565b60405180910390fd5b6000805b82600301805490508110156114a6573373ffffffffffffffffffffffffffffffffffffffff1683600301828154811061144a5761144961313e565b5b9060005260206000200160009054906101000a900473ffffffffffffffffffffffffffffffffffffffff1673ffffffffffffffffffffffffffffffffffffffff160361149957600191506114a6565b808060010191505061140e565b50806114e7576040517f08c379a00000000000000000000000000000000000000000000000000000000081526004016114de9061378f565b60405180910390fd5b8160040160003373ffffffffffffffffffffffffffffffffffffffff1673ffffffffffffffffffffffffffffffffffffffff16815260200190815260200160002060000160009054906101000a900460ff1615611579576040517f08c379a0000000000000000000000000000000000000000000000000000000008152600401611570906137fb565b60405180910390fd5b60018260040160003373ffffffffffffffffffffffffffffffffffffffff1673ffffffffffffffffffffffffffffffffffffffff16815260200190815260200160002060000160006101000a81548160ff0219169083151502179055508160070160008154809291906115eb90613389565b91905055503373ffffffffffffffffffffffffffffffffffffffff16837faf968206e0bfdc195661fb241e701b4bb1e5f60a8c86630a6da0d36b005645eb60405160405180910390a3505050565b60006002600084815260200190815260200160002060040160008373ffffffffffffffffffffffffffffffffffffffff1673ffffffffffffffffffffffffffffffffffffffff16815260200190815260200160002060000160029054906101000a900460ff16905092915050565b60006002600084815260200190815260200160002090508060090160009054906101000a900460ff1615611710576040517f08c379a00000000000000000000000000000000000000000000000000000000081526004016117079061304f565b60405180910390fd5b80600801544210611756576040517f08c379a000000000000000000000000000000000000000000000000000000000815260040161174d906135df565b60405180910390fd5b6000600281111561176a5761176961277a565b5b82600281111561177d5761177c61277a565b5b036117bd576040517f08c379a00000000000000000000000000000000000000000000000000000000081526004016117b490613867565b60405180910390fd5b8060040160003373ffffffffffffffffffffffffffffffffffffffff1673ffffffffffffffffffffffffffffffffffffffff16815260200190815260200160002060000160009054906101000a900460ff1661184e576040517f08c379a0000000000000000000000000000000000000000000000000000000008152600401611845906138d3565b60405180910390fd5b8060040160003373ffffffffffffffffffffffffffffffffffffffff1673ffffffffffffffffffffffffffffffffffffffff16815260200190815260200160002060000160019054906101000a900460ff16156118e0576040517f08c379a00000000000000000000000000000000000000000000000000000000081526004016118d79061393f565b60405180910390fd5b818160040160003373ffffffffffffffffffffffffffffffffffffffff1673ffffffffffffffffffffffffffffffffffffffff16815260200190815260200160002060000160026101000a81548160ff021916908360028111156119475761194661277a565b5b021790555060018160040160003373ffffffffffffffffffffffffffffffffffffffff1673ffffffffffffffffffffffffffffffffffffffff16815260200190815260200160002060000160016101000a81548160ff021916908315150217905550600160028111156119bd576119bc61277a565b5b8260028111156119d0576119cf61277a565b5b036119f4578060050160008154809291906119ea90613389565b9190505550611a0f565b806006016000815480929190611a0990613389565b91905055505b3373ffffffffffffffffffffffffffffffffffffffff16837feba4866100b822f0f391e610e7edfab790b9e8766c0012733c26b2f1858e8dd784604051611a5691906127f1565b60405180910390a3505050565b6060600360008373ffffffffffffffffffffffffffffffffffffffff1673ffffffffffffffffffffffffffffffffffffffff168152602001908152602001600020805480602002602001604051908101604052809291908181526020018280548015611aee57602002820191906000526020600020905b815481526020019060010190808311611ada575b50505050509050919050565b6060600080600080600080600260008981526020019081526020016000209050806003018160050154826006015483600801548460090160009054906101000a900460ff168560090160019054906101000a900460ff1685805480602002602001604051908101604052809291908181526020018280548015611bd257602002820191906000526020600020905b8160009054906101000a900473ffffffffffffffffffffffffffffffffffffffff1673ffffffffffffffffffffffffffffffffffffffff1681526020019060010190808311611b88575b505050505095509650965096509650965096505091939550919395565b60055481565b60008054906101000a900473ffffffffffffffffffffffffffffffffffffffff1681565b600160009054906101000a900473ffffffffffffffffffffffffffffffffffffffff1681565b6201518081565b6706f05b59d3b2000081565b67016345785d8a000081565b6000600554905060006005819055508173ffffffffffffffffffffffffffffffffffffffff166108fc829081150290604051600060405180830381858888f19350505050158015611cb3573d6000803e3d6000fd5b505050565b60008060006002600086815260200190815260200160002060040160008573ffffffffffffffffffffffffffffffffffffffff1673ffffffffffffffffffffffffffffffffffffffff16815260200190815260200160002090508060000160009054906101000a900460ff168160000160019054906101000a900460ff1692509250509250929050565b606060008383905067ffffffffffffffff811115611d6357611d626131ed565b5b604051908082528060200260200182016040528015611d9c57816020015b611d89612526565b815260200190600190039081611d815790505b50905060005b84849050811015611e8157600060026000878785818110611dc657611dc561313e565b5b90506020020135815260200190815260200160002090506040518060c00160405280878785818110611dfb57611dfa61313e565b5b9050602002013581526020018260050154815260200182600601548152602001826008015481526020018260090160009054906101000a900460ff16151581526020018260090160019054906101000a900460ff161515815250838381518110611e6857611e6761313e565b5b6020026020010181905250508080600101915050611da2565b508091505092915050565b60606000600360008473ffffffffffffffffffffffffffffffffffffffff1673ffffffffffffffffffffffffffffffffffffffff168152602001908152602001600020805480602002602001604051908101604052809291908181526020018280548015611f1957602002820191906000526020600020905b815481526020019060010190808311611f05575b505050505090506000815167ffffffffffffffff811115611f3d57611f3c6131ed565b5b604051908082528060200260200182016040528015611f7657816020015b611f63612560565b815260200190600190039081611f5b5790505b50905060005b825181101561218057600060026000858481518110611f9e57611f9d61313e565b5b60200260200101518152602001908152602001600020905060008160040160008873ffffffffffffffffffffffffffffffffffffffff1673ffffffffffffffffffffffffffffffffffffffff168152602001908152602001600020905060405180610160016040528086858151811061201a5761201961313e565b5b602002602001015181526020018360010160009054906101000a900473ffffffffffffffffffffffffffffffffffffffff1673ffffffffffffffffffffffffffffffffffffffff1681526020018360020160009054906101000a900473ffffffffffffffffffffffffffffffffffffffff1673ffffffffffffffffffffffffffffffffffffffff1681526020018360050154815260200183600601548152602001836008015481526020018360090160009054906101000a900460ff16151581526020018360090160019054906101000a900460ff16151581526020018260000160029054906101000a900460ff16600281111561211b5761211a61277a565b5b60ff1681526020018260000160009054906101000a900460ff16151581526020018260000160019054906101000a900460ff1615158152508484815181106121665761216561313e565b5b602002602001018190525050508080600101915050611f7c565b508092505050919050565b600160009054906101000a900473ffffffffffffffffffffffffffffffffffffffff1673ffffffffffffffffffffffffffffffffffffffff163373ffffffffffffffffffffffffffffffffffffffff161461221b576040517f08c379a0000000000000000000000000000000000000000000000000000000008152600401612212906139ab565b60405180910390fd5b6000600260008681526020019081526020016000209050848160000181905550838160010160006101000a81548173ffffffffffffffffffffffffffffffffffffffff021916908373ffffffffffffffffffffffffffffffffffffffff160217905550828160020160006101000a81548173ffffffffffffffffffffffffffffffffffffffff021916908373ffffffffffffffffffffffffffffffffffffffff16021790555062015180426122d0919061310a565b816008018190555060008054906101000a900473ffffffffffffffffffffffffffffffffffffffff1673ffffffffffffffffffffffffffffffffffffffff16636c1cb4cb858560056040518463ffffffff1660e01b8152600401612336939291906131a5565b600060405180830381865afa158015612353573d6000803e3d6000fd5b505050506040513d6000823e3d601f19601f8201168201806040525081019061237c9190613340565b81600301908051906020019061239392919061249c565b5060005b816003018054905081101561245957600360008360030183815481106123c0576123bf61313e565b5b9060005260206000200160009054906101000a900473ffffffffffffffffffffffffffffffffffffffff1673ffffffffffffffffffffffffffffffffffffffff1673ffffffffffffffffffffffffffffffffffffffff1681526020019081526020016000208690806001815401808255809150506001900390600052602060002001600090919091909150558080600101915050612397565b50847f8926bb53a77b2466d63ec9ee5d3edc04cd5ff8a10119e8f65d923527ec2abc5c8260030160405161248d9190613ab7565b60405180910390a25050505050565b828054828255906000526020600020908101928215612515579160200282015b828111156125145782518260006101000a81548173ffffffffffffffffffffffffffffffffffffffff021916908373ffffffffffffffffffffffffffffffffffffffff160217905550916020019190600101906124bc565b5b50905061252291906125f1565b5090565b6040518060c00160405280600081526020016000815260200160008152602001600081526020016000151581526020016000151581525090565b60405180610160016040528060008152602001600073ffffffffffffffffffffffffffffffffffffffff168152602001600073ffffffffffffffffffffffffffffffffffffffff168152602001600081526020016000815260200160008152602001600015158152602001600015158152602001600060ff1681526020016000151581526020016000151581525090565b5b8082111561260a5760008160009055506001016125f2565b5090565b6000819050919050565b6126218161260e565b82525050565b600060208201905061263c6000830184612618565b92915050565b6000604051905090565b600080fd5b600080fd5b61265f8161260e565b811461266a57600080fd5b50565b60008135905061267c81612656565b92915050565b6000602082840312156126985761269761264c565b5b60006126a68482850161266d565b91505092915050565b600073ffffffffffffffffffffffffffffffffffffffff82169050919050565b60006126da826126af565b9050919050565b6126ea816126cf565b81146126f557600080fd5b50565b600081359050612707816126e1565b92915050565b6000602082840312156127235761272261264c565b5b6000612731848285016126f8565b91505092915050565b600080604083850312156127515761275061264c565b5b600061275f8582860161266d565b9250506020612770858286016126f8565b9150509250929050565b7f4e487b7100000000000000000000000000000000000000000000000000000000600052602160045260246000fd5b600381106127ba576127b961277a565b5b50565b60008190506127cb826127a9565b919050565b60006127db826127bd565b9050919050565b6127eb816127d0565b82525050565b600060208201905061280660008301846127e2565b92915050565b6003811061281957600080fd5b50565b60008135905061282b8161280c565b92915050565b600080604083850312156128485761284761264c565b5b60006128568582860161266d565b92505060206128678582860161281c565b9150509250929050565b600081519050919050565b600082825260208201905092915050565b6000819050602082019050919050565b6128a68161260e565b82525050565b60006128b8838361289d565b60208301905092915050565b6000602082019050919050565b60006128dc82612871565b6128e6818561287c565b93506128f18361288d565b8060005b8381101561292257815161290988826128ac565b9750612914836128c4565b9250506001810190506128f5565b5085935050505092915050565b6000602082019050818103600083015261294981846128d1565b905092915050565b600081519050919050565b600082825260208201905092915050565b6000819050602082019050919050565b612986816126cf565b82525050565b6000612998838361297d565b60208301905092915050565b6000602082019050919050565b60006129bc82612951565b6129c6818561295c565b93506129d18361296d565b8060005b83811015612a025781516129e9888261298c565b97506129f4836129a4565b9250506001810190506129d5565b5085935050505092915050565b60008115159050919050565b612a2481612a0f565b82525050565b600060c0820190508181036000830152612a4481896129b1565b9050612a536020830188612618565b612a606040830187612618565b612a6d6060830186612618565b612a7a6080830185612a1b565b612a8760a0830184612a1b565b979650505050505050565b6000819050919050565b6000612ab7612ab2612aad846126af565b612a92565b6126af565b9050919050565b6000612ac982612a9c565b9050919050565b6000612adb82612abe565b9050919050565b612aeb81612ad0565b82525050565b6000602082019050612b066000830184612ae2565b92915050565b6000612b1782612a9c565b9050919050565b6000612b2982612b0c565b9050919050565b612b3981612b1e565b82525050565b6000602082019050612b546000830184612b30565b92915050565b6000604082019050612b6f6000830185612a1b565b612b7c6020830184612a1b565b9392505050565b600080fd5b600080fd5b600080fd5b60008083601f840112612ba857612ba7612b83565b5b8235905067ffffffffffffffff811115612bc557612bc4612b88565b5b602083019150836020820283011115612be157612be0612b8d565b5b9250929050565b60008060208385031215612bff57612bfe61264c565b5b600083013567ffffffffffffffff811115612c1d57612c1c612651565b5b612c2985828601612b92565b92509250509250929050565b600081519050919050565b600082825260208201905092915050565b6000819050602082019050919050565b612c6a81612a0f565b82525050565b60c082016000820151612c86600085018261289d565b506020820151612c99602085018261289d565b506040820151612cac604085018261289d565b506060820151612cbf606085018261289d565b506080820151612cd26080850182612c61565b5060a0820151612ce560a0850182612c61565b50505050565b6000612cf78383612c70565b60c08301905092915050565b6000602082019050919050565b6000612d1b82612c35565b612d258185612c40565b9350612d3083612c51565b8060005b83811015612d61578151612d488882612ceb565b9750612d5383612d03565b925050600181019050612d34565b5085935050505092915050565b60006020820190508181036000830152612d888184612d10565b905092915050565b600081519050919050565b600082825260208201905092915050565b6000819050602082019050919050565b600060ff82169050919050565b612dd281612dbc565b82525050565b61016082016000820151612def600085018261289d565b506020820151612e02602085018261297d565b506040820151612e15604085018261297d565b506060820151612e28606085018261289d565b506080820151612e3b608085018261289d565b5060a0820151612e4e60a085018261289d565b5060c0820151612e6160c0850182612c61565b5060e0820151612e7460e0850182612c61565b50610100820151612e89610100850182612dc9565b50610120820151612e9e610120850182612c61565b50610140820151612eb3610140850182612c61565b50505050565b6000612ec58383612dd8565b6101608301905092915050565b6000602082019050919050565b6000612eea82612d90565b612ef48185612d9b565b9350612eff83612dac565b8060005b83811015612f30578151612f178882612eb9565b9750612f2283612ed2565b925050600181019050612f03565b5085935050505092915050565b60006020820190508181036000830152612f578184612edf565b905092915050565b612f6881612a0f565b8114612f7357600080fd5b50565b600081359050612f8581612f5f565b92915050565b60008060008060808587031215612fa557612fa461264c565b5b6000612fb38782880161266d565b9450506020612fc4878288016126f8565b9350506040612fd5878288016126f8565b9250506060612fe687828801612f76565b91505092959194509250565b600082825260208201905092915050565b7f416c7265616479207265736f6c76656400000000000000000000000000000000600082015250565b6000613039601083612ff2565b915061304482613003565b602082019050919050565b600060208201905081810360008301526130688161302c565b9050919050565b7f566f74696e67207374696c6c206f6e676f696e67000000000000000000000000600082015250565b60006130a5601483612ff2565b91506130b08261306f565b602082019050919050565b600060208201905081810360008301526130d481613098565b9050919050565b7f4e487b7100000000000000000000000000000000000000000000000000000000600052601160045260246000fd5b60006131158261260e565b91506131208361260e565b9250828201905080821115613138576131376130db565b5b92915050565b7f4e487b7100000000000000000000000000000000000000000000000000000000600052603260045260246000fd5b60006131788261260e565b91506000820361318b5761318a6130db565b5b600182039050919050565b61319f816126cf565b82525050565b60006060820190506131ba6000830186613196565b6131c76020830185613196565b6131d46040830184612618565b949350505050565b6000601f19601f8301169050919050565b7f4e487b7100000000000000000000000000000000000000000000000000000000600052604160045260246000fd5b613225826131dc565b810181811067ffffffffffffffff82111715613244576132436131ed565b5b80604052505050565b6000613257612642565b9050613263828261321c565b919050565b600067ffffffffffffffff821115613283576132826131ed565b5b602082029050602081019050919050565b6000815190506132a3816126e1565b92915050565b60006132bc6132b784613268565b61324d565b905080838252602082019050602084028301858111156132df576132de612b8d565b5b835b8181101561330857806132f48882613294565b8452602084019350506020810190506132e1565b5050509392505050565b600082601f83011261332757613326612b83565b5b81516133378482602086016132a9565b91505092915050565b6000602082840312156133565761335561264c565b5b600082015167ffffffffffffffff81111561337457613373612651565b5b61338084828501613312565b91505092915050565b60006133948261260e565b91507fffffffffffffffffffffffffffffffffffffffffffffffffffffffffffffffff82036133c6576133c56130db565b5b600182019050919050565b60006133dc8261260e565b91506133e78361260e565b92508282039050818111156133ff576133fe6130db565b5b92915050565b7f4e487b7100000000000000000000000000000000000000000000000000000000600052601260045260246000fd5b600061343f8261260e565b915061344a8361260e565b92508261345a57613459613405565b5b828204905092915050565b600081905092915050565b50565b6000613480600083613465565b915061348b82613470565b600082019050919050565b60006134a182613473565b9150819050919050565b7f4661696c656420746f2073656e64207374616b6520746f206d61726b65740000600082015250565b60006134e1601e83612ff2565b91506134ec826134ab565b602082019050919050565b60006020820190508181036000830152613510816134d4565b9050919050565b600060808201905061352c6000830187612618565b6135396020830186612a1b565b6135466040830185612618565b6135536060830184612618565b95945050505050565b60006060820190506135716000830186612a1b565b61357e6020830185612618565b61358b6040830184612618565b949350505050565b7f566f74696e6720706572696f6420656e64656400000000000000000000000000600082015250565b60006135c9601383612ff2565b91506135d482613593565b602082019050919050565b600060208201905081810360008301526135f8816135bc565b9050919050565b7f4e6f74207374616b656400000000000000000000000000000000000000000000600082015250565b6000613635600a83612ff2565b9150613640826135ff565b602082019050919050565b6000602082019050818103600083015261366481613628565b9050919050565b7f416c726561647920766f7465642c2063616e6e6f742077697468647261770000600082015250565b60006136a1601e83612ff2565b91506136ac8261366b565b602082019050919050565b600060208201905081810360008301526136d081613694565b9050919050565b7f4d757374207374616b652065786163746c7920302e3120455448000000000000600082015250565b600061370d601a83612ff2565b9150613718826136d7565b602082019050919050565b6000602082019050818103600083015261373c81613700565b9050919050565b7f4e6f742061737369676e656420746f2074686973206469737075746500000000600082015250565b6000613779601c83612ff2565b915061378482613743565b602082019050919050565b600060208201905081810360008301526137a88161376c565b9050919050565b7f416c7265616479207374616b6564000000000000000000000000000000000000600082015250565b60006137e5600e83612ff2565b91506137f0826137af565b602082019050919050565b60006020820190508181036000830152613814816137d8565b9050919050565b7f496e76616c696420766f74650000000000000000000000000000000000000000600082015250565b6000613851600c83612ff2565b915061385c8261381b565b602082019050919050565b6000602082019050818103600083015261388081613844565b9050919050565b7f4d757374207374616b65206265666f726520766f74696e670000000000000000600082015250565b60006138bd601883612ff2565b91506138c882613887565b602082019050919050565b600060208201905081810360008301526138ec816138b0565b9050919050565b7f416c726561647920766f74656400000000000000000000000000000000000000600082015250565b6000613929600d83612ff2565b9150613934826138f3565b602082019050919050565b600060208201905081810360008301526139588161391c565b9050919050565b7f4f6e6c79206d61726b657420636f6e7472616374000000000000000000000000600082015250565b6000613995601483612ff2565b91506139a08261395f565b602082019050919050565b600060208201905081810360008301526139c481613988565b9050919050565b600081549050919050565b60008190508160005260206000209050919050565b60008160001c9050919050565b600073ffffffffffffffffffffffffffffffffffffffff82169050919050565b6000613a2b613a26836139eb565b6139f8565b9050919050565b6000613a3e8254613a18565b9050919050565b6000600182019050919050565b6000613a5d826139cb565b613a67818561295c565b9350613a72836139d6565b8060005b83811015613aaa57613a8782613a32565b613a91888261298c565b9750613a9c83613a45565b925050600181019050613a76565b5085935050505092915050565b60006020820190508181036000830152613ad18184613a52565b90509291505056fea26469706673582212205be31e7f8e1c2475b44d75bb7c11fe16134eb374d254e0d220ab0894341c80f064736f6c634300081c0033",
  "linkReferences": {},
  "deployedLinkReferences": {}
}