{
  "_format": "hh-sol-artifact-1",
  "contractName": "DisputeManager",
  "sourceName": "contracts/DisputeManager.sol",
  "abi": [
    {
      "inputs": [
        {
          "internalType": "address",
          "name": "_registry",
          "type": "address"
        },
        {
          "internalType": "address",
          "name": "_market",
          "type": "address"
        }
      ],
      "stateMutability": "nonpayable",
      "type": "constructor"
    },
    {
      "anonymous": false,
      "inputs": [
        {
          "indexed": true,
          "internalType": "uint256",
          "name": "productId",
          "type": "uint256"
        },
        {
          "indexed": false,
          "internalType": "address[]",
          "name": "reviewers",
          "type": "address[]"
        },
        {
          "indexed": false,
          "internalType": "uint8",
          "name": "tier",
          "type": "uint8"
        }
      ],
      "name": "DisputeOpened",
      "type": "event"
    },
    {
      "anonymous": false,
      "inputs": [
        {
          "indexed": true,
          "internalType": "uint256",
          "name": "productId",
          "type": "uint256"
        },
        {
          "indexed": false,
          "internalType": "bool",
          "name": "buyerWon",
          "type": "bool"
        },
        {
          "indexed": false,
          "internalType": "uint256",
          "name": "buyerVotes",
          "type": "uint256"
        },
        {
          "indexed": false,
          "internalType": "uint256",
          "name": "sellerVotes",
          "type": "uint256"
        }
      ],
      "name": "DisputeResolved",
      "type": "event"
    },
    {
      "anonymous": false,
      "inputs": [
        {
          "indexed": true,
          "internalType": "uint256",
          "name": "productId",
          "type": "uint256"
        },
        {
          "indexed": true,
          "internalType": "address",
          "name": "reviewer",
          "type": "address"
        }
      ],
      "name": "ReviewerStaked",
      "type": "event"
    },
    {
      "anonymous": false,
      "inputs": [
        {
          "indexed": true,
          "internalType": "uint256",
          "name": "productId",
          "type": "uint256"
        },
        {
          "indexed": true,
          "internalType": "address",
          "name": "reviewer",
          "type": "address"
        }
      ],
      "name": "ReviewerWithdrew",
      "type": "event"
    },
    {
      "anonymous": false,
      "inputs": [
        {
          "indexed": true,
          "internalType": "uint256",
          "name": "productId",
          "type": "uint256"
        }
      ],
      "name": "TieDetected",
      "type": "event"
    },
    {
      "anonymous": false,
      "inputs": [
        {
          "indexed": true,
          "internalType": "uint256",
          "name": "productId",
          "type": "uint256"
        },
        {
          "indexed": true,
          "internalType": "address",
          "name": "reviewer",
          "type": "address"
        },
        {
          "indexed": false,
          "internalType": "enum DisputeManager.Vote",
          "name": "vote",
          "type": "uint8"
        }
      ],
      "name": "VoteCast",
      "type": "event"
    },
    {
      "inputs": [],
      "name": "REVIEWER_COUNT",
      "outputs": [
        {
          "internalType": "uint256",
          "name": "",
          "type": "uint256"
        }
      ],
      "stateMutability": "view",
      "type": "function"
    },
    {
      "inputs": [],
      "name": "TIER1_DISPUTE_STAKE",
      "outputs": [
        {
          "internalType": "uint256",
          "name": "",
          "type": "uint256"
        }
      ],
      "stateMutability": "view",
      "type": "function"
    },
    {
      "inputs": [],
      "name": "TIER1_JUROR_STAKE",
      "outputs": [
        {
          "internalType": "uint256",
          "name": "",
          "type": "uint256"
        }
      ],
      "stateMutability": "view",
      "type": "function"
    },
    {
      "inputs": [],
      "name": "TIER1_PLATFORM_FEE",
      "outputs": [
        {
          "internalType": "uint256",
          "name": "",
          "type": "uint256"
        }
      ],
      "stateMutability": "view",
      "type": "function"
    },
    {
      "inputs": [],
      "name": "TIER2_DISPUTE_STAKE",
      "outputs": [
        {
          "internalType": "uint256",
          "name": "",
          "type": "uint256"
        }
      ],
      "stateMutability": "view",
      "type": "function"
    },
    {
      "inputs": [],
      "name": "TIER2_JUROR_STAKE",
      "outputs": [
        {
          "internalType": "uint256",
          "name": "",
          "type": "uint256"
        }
      ],
      "stateMutability": "view",
      "type": "function"
    },
    {
      "inputs": [],
      "name": "TIER2_PLATFORM_FEE",
      "outputs": [
        {
          "internalType": "uint256",
          "name": "",
          "type": "uint256"
        }
      ],
      "stateMutability": "view",
      "type": "function"
    },
    {
      "inputs": [],
      "name": "TIER3_DISPUTE_STAKE",
      "outputs": [
        {
          "internalType": "uint256",
          "name": "",
          "type": "uint256"
        }
      ],
      "stateMutability": "view",
      "type": "function"
    },
    {
      "inputs": [],
      "name": "TIER3_JUROR_STAKE",
      "outputs": [
        {
          "internalType": "uint256",
          "name": "",
          "type": "uint256"
        }
      ],
      "stateMutability": "view",
      "type": "function"
    },
    {
      "inputs": [],
      "name": "TIER3_PLATFORM_FEE",
      "outputs": [
        {
          "internalType": "uint256",
          "name": "",
          "type": "uint256"
        }
      ],
      "stateMutability": "view",
      "type": "function"
    },
    {
      "inputs": [],
      "name": "VOTING_PERIOD",
      "outputs": [
        {
          "internalType": "uint256",
          "name": "",
          "type": "uint256"
        }
      ],
      "stateMutability": "view",
      "type": "function"
    },
    {
      "inputs": [
        {
          "internalType": "uint256",
          "name": "productId",
          "type": "uint256"
        },
        {
          "internalType": "enum DisputeManager.Vote",
          "name": "vote",
          "type": "uint8"
        }
      ],
      "name": "castVote",
      "outputs": [],
      "stateMutability": "nonpayable",
      "type": "function"
    },
    {
      "inputs": [
        {
          "internalType": "uint256",
          "name": "productId",
          "type": "uint256"
        }
      ],
      "name": "getDisputeInfo",
      "outputs": [
        {
          "internalType": "address[]",
          "name": "assignedReviewers",
          "type": "address[]"
        },
        {
          "internalType": "uint256",
          "name": "buyerVotes",
          "type": "uint256"
        },
        {
          "internalType": "uint256",
          "name": "sellerVotes",
          "type": "uint256"
        },
        {
          "internalType": "uint256",
          "name": "deadline",
          "type": "uint256"
        },
        {
          "internalType": "bool",
          "name": "resolved",
          "type": "bool"
        },
        {
          "internalType": "bool",
          "name": "buyerWon",
          "type": "bool"
        },
        {
          "internalType": "uint8",
          "name": "tier",
          "type": "uint8"
        }
      ],
      "stateMutability": "view",
      "type": "function"
    },
    {
      "inputs": [
        {
          "internalType": "uint256[]",
          "name": "productIds",
          "type": "uint256[]"
        }
      ],
      "name": "getDisputesByParty",
      "outputs": [
        {
          "components": [
            {
              "internalType": "uint256",
              "name": "productId",
              "type": "uint256"
            },
            {
              "internalType": "uint8",
              "name": "tier",
              "type": "uint8"
            },
            {
              "internalType": "uint256",
              "name": "buyerVotes",
              "type": "uint256"
            },
            {
              "internalType": "uint256",
              "name": "sellerVotes",
              "type": "uint256"
            },
            {
              "internalType": "uint256",
              "name": "deadline",
              "type": "uint256"
            },
            {
              "internalType": "bool",
              "name": "resolved",
              "type": "bool"
            },
            {
              "internalType": "bool",
              "name": "buyerWon",
              "type": "bool"
            }
          ],
          "internalType": "struct DisputeManager.PartyDisputeView[]",
          "name": "",
          "type": "tuple[]"
        }
      ],
      "stateMutability": "view",
      "type": "function"
    },
    {
      "inputs": [
        {
          "internalType": "address",
          "name": "reviewer",
          "type": "address"
        }
      ],
      "name": "getDisputesByReviewer",
      "outputs": [
        {
          "internalType": "uint256[]",
          "name": "",
          "type": "uint256[]"
        }
      ],
      "stateMutability": "view",
      "type": "function"
    },
    {
      "inputs": [
        {
          "internalType": "uint256",
          "name": "productId",
          "type": "uint256"
        }
      ],
      "name": "getJurorStakeRequired",
      "outputs": [
        {
          "internalType": "uint256",
          "name": "",
          "type": "uint256"
        }
      ],
      "stateMutability": "view",
      "type": "function"
    },
    {
      "inputs": [
        {
          "internalType": "address",
          "name": "reviewer",
          "type": "address"
        }
      ],
      "name": "getReviewerDisputeDetails",
      "outputs": [
        {
          "components": [
            {
              "internalType": "uint256",
              "name": "productId",
              "type": "uint256"
            },
            {
              "internalType": "address",
              "name": "buyer",
              "type": "address"
            },
            {
              "internalType": "address",
              "name": "seller",
              "type": "address"
            },
            {
              "internalType": "uint8",
              "name": "tier",
              "type": "uint8"
            },
            {
              "internalType": "uint256",
              "name": "jurorStakeRequired",
              "type": "uint256"
            },
            {
              "internalType": "uint256",
              "name": "buyerVotes",
              "type": "uint256"
            },
            {
              "internalType": "uint256",
              "name": "sellerVotes",
              "type": "uint256"
            },
            {
              "internalType": "uint256",
              "name": "deadline",
              "type": "uint256"
            },
            {
              "internalType": "bool",
              "name": "resolved",
              "type": "bool"
            },
            {
              "internalType": "bool",
              "name": "buyerWon",
              "type": "bool"
            },
            {
              "internalType": "uint8",
              "name": "myVote",
              "type": "uint8"
            },
            {
              "internalType": "bool",
              "name": "myHasStaked",
              "type": "bool"
            },
            {
              "internalType": "bool",
              "name": "myHasVoted",
              "type": "bool"
            }
          ],
          "internalType": "struct DisputeManager.DisputeView[]",
          "name": "",
          "type": "tuple[]"
        }
      ],
      "stateMutability": "view",
      "type": "function"
    },
    {
      "inputs": [
        {
          "internalType": "uint256",
          "name": "productId",
          "type": "uint256"
        },
        {
          "internalType": "address",
          "name": "reviewer",
          "type": "address"
        }
      ],
      "name": "getReviewerStakeStatus",
      "outputs": [
        {
          "internalType": "bool",
          "name": "hasStaked",
          "type": "bool"
        },
        {
          "internalType": "bool",
          "name": "hasVoted",
          "type": "bool"
        }
      ],
      "stateMutability": "view",
      "type": "function"
    },
    {
      "inputs": [
        {
          "internalType": "uint256",
          "name": "productId",
          "type": "uint256"
        },
        {
          "internalType": "address",
          "name": "reviewer",
          "type": "address"
        }
      ],
      "name": "getReviewerVote",
      "outputs": [
        {
          "internalType": "enum DisputeManager.Vote",
          "name": "",
          "type": "uint8"
        }
      ],
      "stateMutability": "view",
      "type": "function"
    },
    {
      "inputs": [],
      "name": "market",
      "outputs": [
        {
          "internalType": "contract ProductMarket",
          "name": "",
          "type": "address"
        }
      ],
      "stateMutability": "view",
      "type": "function"
    },
    {
      "inputs": [
        {
          "internalType": "uint256",
          "name": "productId",
          "type": "uint256"
        },
        {
          "internalType": "address",
          "name": "buyer",
          "type": "address"
        },
        {
          "internalType": "address",
          "name": "seller",
          "type": "address"
        },
        {
          "internalType": "bool",
          "name": "",
          "type": "bool"
        },
        {
          "internalType": "uint8",
          "name": "tier",
          "type": "uint8"
        }
      ],
      "name": "openDispute",
      "outputs": [],
      "stateMutability": "nonpayable",
      "type": "function"
    },
    {
      "inputs": [],
      "name": "registry",
      "outputs": [
        {
          "internalType": "contract ReviewerRegistry",
          "name": "",
          "type": "address"
        }
      ],
      "stateMutability": "view",
      "type": "function"
    },
    {
      "inputs": [
        {
          "internalType": "uint256",
          "name": "productId",
          "type": "uint256"
        }
      ],
      "name": "settleDispute",
      "outputs": [],
      "stateMutability": "nonpayable",
      "type": "function"
    },
    {
      "inputs": [
        {
          "internalType": "uint256",
          "name": "productId",
          "type": "uint256"
        }
      ],
      "name": "stakeToEnter",
      "outputs": [],
      "stateMutability": "nonpayable",
      "type": "function"
    },
    {
      "inputs": [
        {
          "internalType": "uint256",
          "name": "productId",
          "type": "uint256"
        }
      ],
      "name": "withdrawStake",
      "outputs": [],
      "stateMutability": "nonpayable",
      "type": "function"
    },
    {
      "stateMutability": "payable",
      "type": "receive"
    }
  ],
  "bytecode": "0x608060405234801561001057600080fd5b506040516141d53803806141d58339818101604052810190610032919061011d565b816000806101000a81548173ffffffffffffffffffffffffffffffffffffffff021916908373ffffffffffffffffffffffffffffffffffffffff16021790555080600160006101000a81548173ffffffffffffffffffffffffffffffffffffffff021916908373ffffffffffffffffffffffffffffffffffffffff160217905550505061015d565b600080fd5b600073ffffffffffffffffffffffffffffffffffffffff82169050919050565b60006100ea826100bf565b9050919050565b6100fa816100df565b811461010557600080fd5b50565b600081519050610117816100f1565b92915050565b60008060408385031215610134576101336100ba565b5b600061014285828601610108565b925050602061015385828601610108565b9150509250929050565b6140698061016c6000396000f3fe60806040526004361061016a5760003560e01c806380f55605116100d1578063cf5a6e7d1161008a578063d96085be11610064578063d96085be14610554578063e5c397b214610591578063e6be5583146105ce578063ea9903a1146105f957610171565b8063cf5a6e7d146104ae578063d17ff07c146104eb578063d2433de61461052957610171565b806380f55605146103ac5780639e533bee146103d7578063a043f60414610402578063b1610d7e1461042d578063b1fec90714610458578063cb19f0e71461048357610171565b80635256406511610123578063525640651461027057806356781388146102ad5780635fe7897f146102d65780636169c308146103135780637b103999146103565780637bf7514c1461038157610171565b806319372a2e146101765780631c099ad6146101a157806325d5971f146101ca5780633edafbe5146101f357806340c1477c1461021e5780634930d5571461024757610171565b3661017157005b600080fd5b34801561018257600080fd5b5061018b610624565b6040516101989190612b2b565b60405180910390f35b3480156101ad57600080fd5b506101c860048036038101906101c39190612b86565b610629565b005b3480156101d657600080fd5b506101f160048036038101906101ec9190612b86565b610b2c565b005b3480156101ff57600080fd5b50610208610e65565b6040516102159190612b2b565b60405180910390f35b34801561022a57600080fd5b5061024560048036038101906102409190612b86565b610e71565b005b34801561025357600080fd5b5061026e60048036038101906102699190612c82565b6111fd565b005b34801561027c57600080fd5b5061029760048036038101906102929190612cfd565b611585565b6040516102a49190612db4565b60405180910390f35b3480156102b957600080fd5b506102d460048036038101906102cf9190612df4565b6115f3565b005b3480156102e257600080fd5b506102fd60048036038101906102f89190612e34565b6119d4565b60405161030a9190612f1f565b60405180910390f35b34801561031f57600080fd5b5061033a60048036038101906103359190612b86565b611a6b565b60405161034d979695949392919061301d565b60405180910390f35b34801561036257600080fd5b5061036b611b78565b60405161037891906130f2565b60405180910390f35b34801561038d57600080fd5b50610396611b9c565b6040516103a39190612b2b565b60405180910390f35b3480156103b857600080fd5b506103c1611ba8565b6040516103ce9190613140565b60405180910390f35b3480156103e357600080fd5b506103ec611bce565b6040516103f99190612b2b565b60405180910390f35b34801561040e57600080fd5b50610417611bda565b6040516104249190612b2b565b60405180910390f35b34801561043957600080fd5b50610442611be6565b60405161044f9190612b2b565b60405180910390f35b34801561046457600080fd5b5061046d611bed565b60405161047a9190612b2b565b60405180910390f35b34801561048f57600080fd5b50610498611bf9565b6040516104a59190612b2b565b60405180910390f35b3480156104ba57600080fd5b506104d560048036038101906104d09190612b86565b611c05565b6040516104e29190612b2b565b60405180910390f35b3480156104f757600080fd5b50610512600480360381019061050d9190612cfd565b611c3a565b60405161052092919061315b565b60405180910390f35b34801561053557600080fd5b5061053e611cc4565b60405161054b9190612b2b565b60405180910390f35b34801561056057600080fd5b5061057b600480360381019061057691906131e9565b611cd0565b6040516105889190613391565b60405180910390f35b34801561059d57600080fd5b506105b860048036038101906105b39190612e34565b611e34565b6040516105c5919061356e565b60405180910390f35b3480156105da57600080fd5b506105e361216c565b6040516105f09190612b2b565b60405180910390f35b34801561060557600080fd5b5061060e612178565b60405161061b9190612b2b565b60405180910390f35b600581565b60006002600083815260200190815260200160002090508060090160009054906101000a900460ff1615610692576040517f08c379a0000000000000000000000000000000000000000000000000000000008152600401610689906135ed565b60405180910390fd5b80600801544210156106d9576040517f08c379a00000000000000000000000000000000000000000000000000000000081526004016106d090613659565b60405180910390fd5b8060060154816005015403610b1e5762015180426106f791906136a8565b81600801819055506000816005018190555060008160060181905550600061072f8260020160149054906101000a900460ff16612184565b905060005b826003018054905081101561091f57600083600301828154811061075b5761075a6136dc565b5b9060005260206000200160009054906101000a900473ffffffffffffffffffffffffffffffffffffffff16905060008460040160008373ffffffffffffffffffffffffffffffffffffffff1673ffffffffffffffffffffffffffffffffffffffff16815260200190815260200160002090508060000160009054906101000a900460ff1680156107fa57508060000160019054906101000a900460ff16155b156108c65760008160000160006101000a81548160ff0219169083151502179055508460070160008154809291906108319061370b565b9190505550600160009054906101000a900473ffffffffffffffffffffffffffffffffffffffff1673ffffffffffffffffffffffffffffffffffffffff16631603378e83866040518363ffffffff1660e01b8152600401610893929190613743565b600060405180830381600087803b1580156108ad57600080fd5b505af11580156108c1573d6000803e3d6000fd5b505050505b60008160000160016101000a81548160ff02191690831515021790555060008160000160026101000a81548160ff0219169083600281111561090b5761090a612d3d565b5b021790555050508080600101915050610734565b5060008054906101000a900473ffffffffffffffffffffffffffffffffffffffff1673ffffffffffffffffffffffffffffffffffffffff16636c1cb4cb8360010160009054906101000a900473ffffffffffffffffffffffffffffffffffffffff168460020160009054906101000a900473ffffffffffffffffffffffffffffffffffffffff1660056040518463ffffffff1660e01b81526004016109c69392919061376c565b600060405180830381865afa1580156109e3573d6000803e3d6000fd5b505050506040513d6000823e3d601f19601f82011682018060405250810190610a0c9190613907565b826003019080519060200190610a23929190612985565b5060005b8260030180549050811015610ae95760036000846003018381548110610a5057610a4f6136dc565b5b9060005260206000200160009054906101000a900473ffffffffffffffffffffffffffffffffffffffff1673ffffffffffffffffffffffffffffffffffffffff1673ffffffffffffffffffffffffffffffffffffffff1681526020019081526020016000208490806001815401808255809150506001900390600052602060002001600090919091909150558080600101915050610a27565b50827f117bd2bc2ac2ef65bf31c3adca2a9cf1307829a961d80914cc7f6878b93ba39a60405160405180910390a25050610b29565b610b27826121cd565b505b50565b60006002600083815260200190815260200160002090508060090160009054906101000a900460ff1615610b95576040517f08c379a0000000000000000000000000000000000000000000000000000000008152600401610b8c906135ed565b60405180910390fd5b80600801544210610bdb576040517f08c379a0000000000000000000000000000000000000000000000000000000008152600401610bd29061399c565b60405180910390fd5b8060040160003373ffffffffffffffffffffffffffffffffffffffff1673ffffffffffffffffffffffffffffffffffffffff16815260200190815260200160002060000160009054906101000a900460ff16610c6c576040517f08c379a0000000000000000000000000000000000000000000000000000000008152600401610c6390613a08565b60405180910390fd5b8060040160003373ffffffffffffffffffffffffffffffffffffffff1673ffffffffffffffffffffffffffffffffffffffff16815260200190815260200160002060000160019054906101000a900460ff1615610cfe576040517f08c379a0000000000000000000000000000000000000000000000000000000008152600401610cf590613a74565b60405180910390fd5b60008160040160003373ffffffffffffffffffffffffffffffffffffffff1673ffffffffffffffffffffffffffffffffffffffff16815260200190815260200160002060000160006101000a81548160ff021916908315150217905550806007016000815480929190610d709061370b565b9190505550600160009054906101000a900473ffffffffffffffffffffffffffffffffffffffff1673ffffffffffffffffffffffffffffffffffffffff16631603378e33610dce8460020160149054906101000a900460ff16612184565b6040518363ffffffff1660e01b8152600401610deb929190613743565b600060405180830381600087803b158015610e0557600080fd5b505af1158015610e19573d6000803e3d6000fd5b505050503373ffffffffffffffffffffffffffffffffffffffff16827fae2af8c9373892348f61e22094b950d4809b52470d9e15f99a6819713afed53d60405160405180910390a35050565b670214e8348c4f000081565b60006002600083815260200190815260200160002090508060090160009054906101000a900460ff1615610eda576040517f08c379a0000000000000000000000000000000000000000000000000000000008152600401610ed1906135ed565b60405180910390fd5b80600801544210610f20576040517f08c379a0000000000000000000000000000000000000000000000000000000008152600401610f179061399c565b60405180910390fd5b6000805b8260030180549050811015610fbc573373ffffffffffffffffffffffffffffffffffffffff16836003018281548110610f6057610f5f6136dc565b5b9060005260206000200160009054906101000a900473ffffffffffffffffffffffffffffffffffffffff1673ffffffffffffffffffffffffffffffffffffffff1603610faf5760019150610fbc565b8080600101915050610f24565b5080610ffd576040517f08c379a0000000000000000000000000000000000000000000000000000000008152600401610ff490613ae0565b60405180910390fd5b8160040160003373ffffffffffffffffffffffffffffffffffffffff1673ffffffffffffffffffffffffffffffffffffffff16815260200190815260200160002060000160009054906101000a900460ff161561108f576040517f08c379a000000000000000000000000000000000000000000000000000000000815260040161108690613b4c565b60405180910390fd5b60006110ab8360020160149054906101000a900460ff16612184565b9050600160009054906101000a900473ffffffffffffffffffffffffffffffffffffffff1673ffffffffffffffffffffffffffffffffffffffff166303e9770b33836040518363ffffffff1660e01b815260040161110a929190613743565b600060405180830381600087803b15801561112457600080fd5b505af1158015611138573d6000803e3d6000fd5b5050505060018360040160003373ffffffffffffffffffffffffffffffffffffffff1673ffffffffffffffffffffffffffffffffffffffff16815260200190815260200160002060000160006101000a81548160ff0219169083151502179055508260070160008154809291906111ae90613b6c565b91905055503373ffffffffffffffffffffffffffffffffffffffff16847faf968206e0bfdc195661fb241e701b4bb1e5f60a8c86630a6da0d36b005645eb60405160405180910390a350505050565b600160009054906101000a900473ffffffffffffffffffffffffffffffffffffffff1673ffffffffffffffffffffffffffffffffffffffff163373ffffffffffffffffffffffffffffffffffffffff161461128d576040517f08c379a000000000000000000000000000000000000000000000000000000000815260040161128490613c00565b60405180910390fd5b60018160ff16101580156112a5575060038160ff1611155b6112e4576040517f08c379a00000000000000000000000000000000000000000000000000000000081526004016112db90613c6c565b60405180910390fd5b6000600260008781526020019081526020016000209050858160000181905550848160010160006101000a81548173ffffffffffffffffffffffffffffffffffffffff021916908373ffffffffffffffffffffffffffffffffffffffff160217905550838160020160006101000a81548173ffffffffffffffffffffffffffffffffffffffff021916908373ffffffffffffffffffffffffffffffffffffffff160217905550818160020160146101000a81548160ff021916908360ff16021790555062015180426113b691906136a8565b816008018190555060008054906101000a900473ffffffffffffffffffffffffffffffffffffffff1673ffffffffffffffffffffffffffffffffffffffff16636c1cb4cb868660056040518463ffffffff1660e01b815260040161141c9392919061376c565b600060405180830381865afa158015611439573d6000803e3d6000fd5b505050506040513d6000823e3d601f19601f820116820180604052508101906114629190613907565b816003019080519060200190611479929190612985565b5060005b816003018054905081101561153f57600360008360030183815481106114a6576114a56136dc565b5b9060005260206000200160009054906101000a900473ffffffffffffffffffffffffffffffffffffffff1673ffffffffffffffffffffffffffffffffffffffff1673ffffffffffffffffffffffffffffffffffffffff168152602001908152602001600020879080600181540180825580915050600190039060005260206000200160009091909190915055808060010191505061147d565b50857fc32d9d8129c811ec63e08c5228716149f682cb44ff661df55897fd72a6820d0d8260030184604051611575929190613d78565b60405180910390a2505050505050565b60006002600084815260200190815260200160002060040160008373ffffffffffffffffffffffffffffffffffffffff1673ffffffffffffffffffffffffffffffffffffffff16815260200190815260200160002060000160029054906101000a900460ff16905092915050565b60006002600084815260200190815260200160002090508060090160009054906101000a900460ff161561165c576040517f08c379a0000000000000000000000000000000000000000000000000000000008152600401611653906135ed565b60405180910390fd5b806008015442106116a2576040517f08c379a00000000000000000000000000000000000000000000000000000000081526004016116999061399c565b60405180910390fd5b600060028111156116b6576116b5612d3d565b5b8260028111156116c9576116c8612d3d565b5b03611709576040517f08c379a000000000000000000000000000000000000000000000000000000000815260040161170090613df4565b60405180910390fd5b8060040160003373ffffffffffffffffffffffffffffffffffffffff1673ffffffffffffffffffffffffffffffffffffffff16815260200190815260200160002060000160009054906101000a900460ff1661179a576040517f08c379a000000000000000000000000000000000000000000000000000000000815260040161179190613e60565b60405180910390fd5b8060040160003373ffffffffffffffffffffffffffffffffffffffff1673ffffffffffffffffffffffffffffffffffffffff16815260200190815260200160002060000160019054906101000a900460ff161561182c576040517f08c379a000000000000000000000000000000000000000000000000000000000815260040161182390613ecc565b60405180910390fd5b818160040160003373ffffffffffffffffffffffffffffffffffffffff1673ffffffffffffffffffffffffffffffffffffffff16815260200190815260200160002060000160026101000a81548160ff0219169083600281111561189357611892612d3d565b5b021790555060018160040160003373ffffffffffffffffffffffffffffffffffffffff1673ffffffffffffffffffffffffffffffffffffffff16815260200190815260200160002060000160016101000a81548160ff0219169083151502179055506001600281111561190957611908612d3d565b5b82600281111561191c5761191b612d3d565b5b036119405780600501600081548092919061193690613b6c565b919050555061195b565b80600601600081548092919061195590613b6c565b91905055505b3373ffffffffffffffffffffffffffffffffffffffff16837feba4866100b822f0f391e610e7edfab790b9e8766c0012733c26b2f1858e8dd7846040516119a29190612db4565b60405180910390a36003816006015482600501546119c091906136a8565b106119cf576119ce836121cd565b5b505050565b6060600360008373ffffffffffffffffffffffffffffffffffffffff1673ffffffffffffffffffffffffffffffffffffffff168152602001908152602001600020805480602002602001604051908101604052809291908181526020018280548015611a5f57602002820191906000526020600020905b815481526020019060010190808311611a4b575b50505050509050919050565b60606000806000806000806000600260008a81526020019081526020016000209050806003018160050154826006015483600801548460090160009054906101000a900460ff168560090160019054906101000a900460ff168660020160149054906101000a900460ff1686805480602002602001604051908101604052809291908181526020018280548015611b5757602002820191906000526020600020905b8160009054906101000a900473ffffffffffffffffffffffffffffffffffffffff1673ffffffffffffffffffffffffffffffffffffffff1681526020019060010190808311611b0d575b50505050509650975097509750975097509750975050919395979092949650565b60008054906101000a900473ffffffffffffffffffffffffffffffffffffffff1681565b6706f05b59d3b2000081565b600160009054906101000a900473ffffffffffffffffffffffffffffffffffffffff1681565b670de0b6b3a764000081565b67016345785d8a000081565b6201518081565b6703782dace9d9000081565b670853a0d2313c000081565b6000611c336002600084815260200190815260200160002060020160149054906101000a900460ff16612184565b9050919050565b60008060006002600086815260200190815260200160002060040160008573ffffffffffffffffffffffffffffffffffffffff1673ffffffffffffffffffffffffffffffffffffffff16815260200190815260200160002090508060000160009054906101000a900460ff168160000160019054906101000a900460ff1692509250509250929050565b6729a2241af62c000081565b606060008383905067ffffffffffffffff811115611cf157611cf06137b4565b5b604051908082528060200260200182016040528015611d2a57816020015b611d17612a0f565b815260200190600190039081611d0f5790505b50905060005b84849050811015611e2957600060026000878785818110611d5457611d536136dc565b5b90506020020135815260200190815260200160002090506040518060e00160405280878785818110611d8957611d886136dc565b5b9050602002013581526020018260020160149054906101000a900460ff1660ff1681526020018260050154815260200182600601548152602001826008015481526020018260090160009054906101000a900460ff16151581526020018260090160019054906101000a900460ff161515815250838381518110611e1057611e0f6136dc565b5b6020026020010181905250508080600101915050611d30565b508091505092915050565b60606000600360008473ffffffffffffffffffffffffffffffffffffffff1673ffffffffffffffffffffffffffffffffffffffff168152602001908152602001600020805480602002602001604051908101604052809291908181526020018280548015611ec157602002820191906000526020600020905b815481526020019060010190808311611ead575b505050505090506000815167ffffffffffffffff811115611ee557611ee46137b4565b5b604051908082528060200260200182016040528015611f1e57816020015b611f0b612a53565b815260200190600190039081611f035790505b50905060005b825181101561216157600060026000858481518110611f4657611f456136dc565b5b60200260200101518152602001908152602001600020905060008160040160008873ffffffffffffffffffffffffffffffffffffffff1673ffffffffffffffffffffffffffffffffffffffff1681526020019081526020016000209050604051806101a00160405280868581518110611fc257611fc16136dc565b5b602002602001015181526020018360010160009054906101000a900473ffffffffffffffffffffffffffffffffffffffff1673ffffffffffffffffffffffffffffffffffffffff1681526020018360020160009054906101000a900473ffffffffffffffffffffffffffffffffffffffff1673ffffffffffffffffffffffffffffffffffffffff1681526020018360020160149054906101000a900460ff1660ff1681526020016120838460020160149054906101000a900460ff16612184565b81526020018360050154815260200183600601548152602001836008015481526020018360090160009054906101000a900460ff16151581526020018360090160019054906101000a900460ff16151581526020018260000160029054906101000a900460ff1660028111156120fc576120fb612d3d565b5b60ff1681526020018260000160009054906101000a900460ff16151581526020018260000160019054906101000a900460ff161515815250848481518110612147576121466136dc565b5b602002602001018190525050508080600101915050611f24565b508092505050919050565b6702c68af0bb14000081565b67016345785d8a000081565b600060038260ff16036121a157670853a0d2313c000090506121c8565b60028260ff16036121bc576702c68af0bb14000090506121c8565b67016345785d8a000090505b919050565b60006002600083815260200190815260200160002090508060090160009054906101000a900460ff16156122015750612424565b60008160060154826005015411905060018260090160006101000a81548160ff021916908315150217905550808260090160016101000a81548160ff021916908315150217905550428260080181905550600081612260576002612263565b60015b90506000806122728684612427565b9150915061228186848461261f565b600160009054906101000a900473ffffffffffffffffffffffffffffffffffffffff1673ffffffffffffffffffffffffffffffffffffffff1663067d50dc826040518263ffffffff1660e01b81526004016122dc9190612b2b565b600060405180830381600087803b1580156122f657600080fd5b505af115801561230a573d6000803e3d6000fd5b50505050600061232a8660020160149054906101000a900460ff166128f3565b9050600160009054906101000a900473ffffffffffffffffffffffffffffffffffffffff1673ffffffffffffffffffffffffffffffffffffffff166351f1125988878861237857600061237a565b845b896123855785612388565b60005b6040518563ffffffff1660e01b81526004016123a79493929190613eec565b600060405180830381600087803b1580156123c157600080fd5b505af11580156123d5573d6000803e3d6000fd5b50505050867f88eecbbf54eddf9adbeb289ef36beac8d141af4274d667ccc04a40044df75b39868860050154896006015460405161241593929190613f31565b60405180910390a25050505050505b50565b6000806000600260008681526020019081526020016000209050600061245d8260020160149054906101000a900460ff16612184565b9050600061247b8360020160149054906101000a900460ff1661293c565b905060006124998460020160149054906101000a900460ff166128f3565b90506000805b85600301805490508110156125d15760008660040160008860030184815481106124cc576124cb6136dc565b5b9060005260206000200160009054906101000a900473ffffffffffffffffffffffffffffffffffffffff1673ffffffffffffffffffffffffffffffffffffffff1673ffffffffffffffffffffffffffffffffffffffff16815260200190815260200160002090508060000160009054906101000a900460ff16801561255f57508060000160019054906101000a900460ff165b156125c35789600281111561257757612576612d3d565b5b8160000160029054906101000a900460ff16600281111561259b5761259a612d3d565b5b036125b35782806125ab90613b6c565b9350506125c2565b85846125bf91906136a8565b93505b5b50808060010191505061249f565b50828210156125e057816125e2565b825b9550600086836125f29190613f68565b905060008211612603576000612610565b818161260f9190613fcb565b5b97505050505050509250929050565b600060026000858152602001908152602001600020905060006126528260020160149054906101000a900460ff16612184565b905060005b82600301805490508110156128eb57600083600301828154811061267e5761267d6136dc565b5b9060005260206000200160009054906101000a900473ffffffffffffffffffffffffffffffffffffffff16905060008460040160008373ffffffffffffffffffffffffffffffffffffffff1673ffffffffffffffffffffffffffffffffffffffff16815260200190815260200160002090508060000160009054906101000a900460ff1661270d5750506128de565b8060000160019054906101000a900460ff16801561275f575086600281111561273957612738612d3d565b5b8160000160029054906101000a900460ff16600281111561275d5761275c612d3d565b5b145b156127fa57600160009054906101000a900473ffffffffffffffffffffffffffffffffffffffff1673ffffffffffffffffffffffffffffffffffffffff1663664bc6c48386896040518463ffffffff1660e01b81526004016127c393929190613ffc565b600060405180830381600087803b1580156127dd57600080fd5b505af11580156127f1573d6000803e3d6000fd5b505050506128a1565b8060000160019054906101000a900460ff166128a057600160009054906101000a900473ffffffffffffffffffffffffffffffffffffffff1673ffffffffffffffffffffffffffffffffffffffff16631603378e83866040518363ffffffff1660e01b815260040161286d929190613743565b600060405180830381600087803b15801561288757600080fd5b505af115801561289b573d6000803e3d6000fd5b505050505b5b60008160000160006101000a81548160ff02191690831515021790555060008160000160016101000a81548160ff02191690831515021790555050505b8080600101915050612657565b505050505050565b600060038260ff1603612910576729a2241af62c00009050612937565b60028260ff160361292b57670de0b6b3a76400009050612937565b6706f05b59d3b2000090505b919050565b600060038260ff1603612959576703782dace9d900009050612980565b60028260ff160361297457670214e8348c4f00009050612980565b67016345785d8a000090505b919050565b8280548282559060005260206000209081019282156129fe579160200282015b828111156129fd5782518260006101000a81548173ffffffffffffffffffffffffffffffffffffffff021916908373ffffffffffffffffffffffffffffffffffffffff160217905550916020019190600101906129a5565b5b509050612a0b9190612af5565b5090565b6040518060e0016040528060008152602001600060ff1681526020016000815260200160008152602001600081526020016000151581526020016000151581525090565b604051806101a0016040528060008152602001600073ffffffffffffffffffffffffffffffffffffffff168152602001600073ffffffffffffffffffffffffffffffffffffffff168152602001600060ff16815260200160008152602001600081526020016000815260200160008152602001600015158152602001600015158152602001600060ff1681526020016000151581526020016000151581525090565b5b80821115612b0e576000816000905550600101612af6565b5090565b6000819050919050565b612b2581612b12565b82525050565b6000602082019050612b406000830184612b1c565b92915050565b6000604051905090565b600080fd5b600080fd5b612b6381612b12565b8114612b6e57600080fd5b50565b600081359050612b8081612b5a565b92915050565b600060208284031215612b9c57612b9b612b50565b5b6000612baa84828501612b71565b91505092915050565b600073ffffffffffffffffffffffffffffffffffffffff82169050919050565b6000612bde82612bb3565b9050919050565b612bee81612bd3565b8114612bf957600080fd5b50565b600081359050612c0b81612be5565b92915050565b60008115159050919050565b612c2681612c11565b8114612c3157600080fd5b50565b600081359050612c4381612c1d565b92915050565b600060ff82169050919050565b612c5f81612c49565b8114612c6a57600080fd5b50565b600081359050612c7c81612c56565b92915050565b600080600080600060a08688031215612c9e57612c9d612b50565b5b6000612cac88828901612b71565b9550506020612cbd88828901612bfc565b9450506040612cce88828901612bfc565b9350506060612cdf88828901612c34565b9250506080612cf088828901612c6d565b9150509295509295909350565b60008060408385031215612d1457612d13612b50565b5b6000612d2285828601612b71565b9250506020612d3385828601612bfc565b9150509250929050565b7f4e487b7100000000000000000000000000000000000000000000000000000000600052602160045260246000fd5b60038110612d7d57612d7c612d3d565b5b50565b6000819050612d8e82612d6c565b919050565b6000612d9e82612d80565b9050919050565b612dae81612d93565b82525050565b6000602082019050612dc96000830184612da5565b92915050565b60038110612ddc57600080fd5b50565b600081359050612dee81612dcf565b92915050565b60008060408385031215612e0b57612e0a612b50565b5b6000612e1985828601612b71565b9250506020612e2a85828601612ddf565b9150509250929050565b600060208284031215612e4a57612e49612b50565b5b6000612e5884828501612bfc565b91505092915050565b600081519050919050565b600082825260208201905092915050565b6000819050602082019050919050565b612e9681612b12565b82525050565b6000612ea88383612e8d565b60208301905092915050565b6000602082019050919050565b6000612ecc82612e61565b612ed68185612e6c565b9350612ee183612e7d565b8060005b83811015612f12578151612ef98882612e9c565b9750612f0483612eb4565b925050600181019050612ee5565b5085935050505092915050565b60006020820190508181036000830152612f398184612ec1565b905092915050565b600081519050919050565b600082825260208201905092915050565b6000819050602082019050919050565b612f7681612bd3565b82525050565b6000612f888383612f6d565b60208301905092915050565b6000602082019050919050565b6000612fac82612f41565b612fb68185612f4c565b9350612fc183612f5d565b8060005b83811015612ff2578151612fd98882612f7c565b9750612fe483612f94565b925050600181019050612fc5565b5085935050505092915050565b61300881612c11565b82525050565b61301781612c49565b82525050565b600060e0820190508181036000830152613037818a612fa1565b90506130466020830189612b1c565b6130536040830188612b1c565b6130606060830187612b1c565b61306d6080830186612fff565b61307a60a0830185612fff565b61308760c083018461300e565b98975050505050505050565b6000819050919050565b60006130b86130b36130ae84612bb3565b613093565b612bb3565b9050919050565b60006130ca8261309d565b9050919050565b60006130dc826130bf565b9050919050565b6130ec816130d1565b82525050565b600060208201905061310760008301846130e3565b92915050565b60006131188261309d565b9050919050565b600061312a8261310d565b9050919050565b61313a8161311f565b82525050565b60006020820190506131556000830184613131565b92915050565b60006040820190506131706000830185612fff565b61317d6020830184612fff565b9392505050565b600080fd5b600080fd5b600080fd5b60008083601f8401126131a9576131a8613184565b5b8235905067ffffffffffffffff8111156131c6576131c5613189565b5b6020830191508360208202830111156131e2576131e161318e565b5b9250929050565b60008060208385031215613200576131ff612b50565b5b600083013567ffffffffffffffff81111561321e5761321d612b55565b5b61322a85828601613193565b92509250509250929050565b600081519050919050565b600082825260208201905092915050565b6000819050602082019050919050565b61326b81612c49565b82525050565b61327a81612c11565b82525050565b60e0820160008201516132966000850182612e8d565b5060208201516132a96020850182613262565b5060408201516132bc6040850182612e8d565b5060608201516132cf6060850182612e8d565b5060808201516132e26080850182612e8d565b5060a08201516132f560a0850182613271565b5060c082015161330860c0850182613271565b50505050565b600061331a8383613280565b60e08301905092915050565b6000602082019050919050565b600061333e82613236565b6133488185613241565b935061335383613252565b8060005b8381101561338457815161336b888261330e565b975061337683613326565b925050600181019050613357565b5085935050505092915050565b600060208201905081810360008301526133ab8184613333565b905092915050565b600081519050919050565b600082825260208201905092915050565b6000819050602082019050919050565b6101a0820160008201516133f66000850182612e8d565b5060208201516134096020850182612f6d565b50604082015161341c6040850182612f6d565b50606082015161342f6060850182613262565b5060808201516134426080850182612e8d565b5060a082015161345560a0850182612e8d565b5060c082015161346860c0850182612e8d565b5060e082015161347b60e0850182612e8d565b50610100820151613490610100850182613271565b506101208201516134a5610120850182613271565b506101408201516134ba610140850182613262565b506101608201516134cf610160850182613271565b506101808201516134e4610180850182613271565b50505050565b60006134f683836133df565b6101a08301905092915050565b6000602082019050919050565b600061351b826133b3565b61352581856133be565b9350613530836133cf565b8060005b8381101561356157815161354888826134ea565b975061355383613503565b925050600181019050613534565b5085935050505092915050565b600060208201905081810360008301526135888184613510565b905092915050565b600082825260208201905092915050565b7f416c7265616479207265736f6c76656400000000000000000000000000000000600082015250565b60006135d7601083613590565b91506135e2826135a1565b602082019050919050565b60006020820190508181036000830152613606816135ca565b9050919050565b7f566f74696e67207374696c6c206f6e676f696e67000000000000000000000000600082015250565b6000613643601483613590565b915061364e8261360d565b602082019050919050565b6000602082019050818103600083015261367281613636565b9050919050565b7f4e487b7100000000000000000000000000000000000000000000000000000000600052601160045260246000fd5b60006136b382612b12565b91506136be83612b12565b92508282019050808211156136d6576136d5613679565b5b92915050565b7f4e487b7100000000000000000000000000000000000000000000000000000000600052603260045260246000fd5b600061371682612b12565b91506000820361372957613728613679565b5b600182039050919050565b61373d81612bd3565b82525050565b60006040820190506137586000830185613734565b6137656020830184612b1c565b9392505050565b60006060820190506137816000830186613734565b61378e6020830185613734565b61379b6040830184612b1c565b949350505050565b6000601f19601f8301169050919050565b7f4e487b7100000000000000000000000000000000000000000000000000000000600052604160045260246000fd5b6137ec826137a3565b810181811067ffffffffffffffff8211171561380b5761380a6137b4565b5b80604052505050565b600061381e612b46565b905061382a82826137e3565b919050565b600067ffffffffffffffff82111561384a576138496137b4565b5b602082029050602081019050919050565b60008151905061386a81612be5565b92915050565b600061388361387e8461382f565b613814565b905080838252602082019050602084028301858111156138a6576138a561318e565b5b835b818110156138cf57806138bb888261385b565b8452602084019350506020810190506138a8565b5050509392505050565b600082601f8301126138ee576138ed613184565b5b81516138fe848260208601613870565b91505092915050565b60006020828403121561391d5761391c612b50565b5b600082015167ffffffffffffffff81111561393b5761393a612b55565b5b613947848285016138d9565b91505092915050565b7f566f74696e6720706572696f6420656e64656400000000000000000000000000600082015250565b6000613986601383613590565b915061399182613950565b602082019050919050565b600060208201905081810360008301526139b581613979565b9050919050565b7f4e6f74207374616b656400000000000000000000000000000000000000000000600082015250565b60006139f2600a83613590565b91506139fd826139bc565b602082019050919050565b60006020820190508181036000830152613a21816139e5565b9050919050565b7f416c726561647920766f7465642c2063616e6e6f742077697468647261770000600082015250565b6000613a5e601e83613590565b9150613a6982613a28565b602082019050919050565b60006020820190508181036000830152613a8d81613a51565b9050919050565b7f4e6f742061737369676e656420746f2074686973206469737075746500000000600082015250565b6000613aca601c83613590565b9150613ad582613a94565b602082019050919050565b60006020820190508181036000830152613af981613abd565b9050919050565b7f416c7265616479207374616b6564000000000000000000000000000000000000600082015250565b6000613b36600e83613590565b9150613b4182613b00565b602082019050919050565b60006020820190508181036000830152613b6581613b29565b9050919050565b6000613b7782612b12565b91507fffffffffffffffffffffffffffffffffffffffffffffffffffffffffffffffff8203613ba957613ba8613679565b5b600182019050919050565b7f4f6e6c79206d61726b657420636f6e7472616374000000000000000000000000600082015250565b6000613bea601483613590565b9150613bf582613bb4565b602082019050919050565b60006020820190508181036000830152613c1981613bdd565b9050919050565b7f496e76616c696420746965720000000000000000000000000000000000000000600082015250565b6000613c56600c83613590565b9150613c6182613c20565b602082019050919050565b60006020820190508181036000830152613c8581613c49565b9050919050565b600081549050919050565b60008190508160005260206000209050919050565b60008160001c9050919050565b600073ffffffffffffffffffffffffffffffffffffffff82169050919050565b6000613cec613ce783613cac565b613cb9565b9050919050565b6000613cff8254613cd9565b9050919050565b6000600182019050919050565b6000613d1e82613c8c565b613d288185612f4c565b9350613d3383613c97565b8060005b83811015613d6b57613d4882613cf3565b613d528882612f7c565b9750613d5d83613d06565b925050600181019050613d37565b5085935050505092915050565b60006040820190508181036000830152613d928185613d13565b9050613da1602083018461300e565b9392505050565b7f496e76616c696420766f74650000000000000000000000000000000000000000600082015250565b6000613dde600c83613590565b9150613de982613da8565b602082019050919050565b60006020820190508181036000830152613e0d81613dd1565b9050919050565b7f4d757374207374616b65206265666f726520766f74696e670000000000000000600082015250565b6000613e4a601883613590565b9150613e5582613e14565b602082019050919050565b60006020820190508181036000830152613e7981613e3d565b9050919050565b7f416c726561647920766f74656400000000000000000000000000000000000000600082015250565b6000613eb6600d83613590565b9150613ec182613e80565b602082019050919050565b60006020820190508181036000830152613ee581613ea9565b9050919050565b6000608082019050613f016000830187612b1c565b613f0e6020830186612fff565b613f1b6040830185612b1c565b613f286060830184612b1c565b95945050505050565b6000606082019050613f466000830186612fff565b613f536020830185612b1c565b613f606040830184612b1c565b949350505050565b6000613f7382612b12565b9150613f7e83612b12565b9250828203905081811115613f9657613f95613679565b5b92915050565b7f4e487b7100000000000000000000000000000000000000000000000000000000600052601260045260246000fd5b6000613fd682612b12565b9150613fe183612b12565b925082613ff157613ff0613f9c565b5b828204905092915050565b60006060820190506140116000830186613734565b61401e6020830185612b1c565b61402b6040830184612b1c565b94935050505056fea264697066735822122079cd5e468ed0abfa5a82ef38bce62a07f1cac1dc114e0224dea4f22c48d994e564736f6c634300081c0033",
  "linkReferences": {},
  "deployedLinkReferences": {}
}