{
  "_format": "hh-sol-artifact-1",
  "contractName": "DisputeManager",
  "sourceName": "contracts/DisputeManager.sol",
  "abi": [
    {
      "inputs": [
        {
          "internalType": "address",
          "name": "_registry",
          "type": "address"
        },
        {
          "internalType": "address",
          "name": "_market",
          "type": "address"
        }
      ],
      "stateMutability": "nonpayable",
      "type": "constructor"
    },
    {
      "anonymous": false,
      "inputs": [
        {
          "indexed": true,
          "internalType": "uint256",
          "name": "productId",
          "type": "uint256"
        },
        {
          "indexed": false,
          "internalType": "address[]",
          "name": "reviewers",
          "type": "address[]"
        }
      ],
      "name": "DisputeOpened",
      "type": "event"
    },
    {
      "anonymous": false,
      "inputs": [
        {
          "indexed": true,
          "internalType": "uint256",
          "name": "productId",
          "type": "uint256"
        },
        {
          "indexed": false,
          "internalType": "bool",
          "name": "buyerWon",
          "type": "bool"
        },
        {
          "indexed": false,
          "internalType": "uint256",
          "name": "buyerVotes",
          "type": "uint256"
        },
        {
          "indexed": false,
          "internalType": "uint256",
          "name": "sellerVotes",
          "type": "uint256"
        }
      ],
      "name": "DisputeResolved",
      "type": "event"
    },
    {
      "anonymous": false,
      "inputs": [
        {
          "indexed": true,
          "internalType": "uint256",
          "name": "productId",
          "type": "uint256"
        },
        {
          "indexed": true,
          "internalType": "address",
          "name": "reviewer",
          "type": "address"
        }
      ],
      "name": "ReviewerStaked",
      "type": "event"
    },
    {
      "anonymous": false,
      "inputs": [
        {
          "indexed": true,
          "internalType": "uint256",
          "name": "productId",
          "type": "uint256"
        },
        {
          "indexed": true,
          "internalType": "address",
          "name": "reviewer",
          "type": "address"
        }
      ],
      "name": "ReviewerWithdrew",
      "type": "event"
    },
    {
      "anonymous": false,
      "inputs": [
        {
          "indexed": true,
          "internalType": "uint256",
          "name": "productId",
          "type": "uint256"
        }
      ],
      "name": "TieDetected",
      "type": "event"
    },
    {
      "anonymous": false,
      "inputs": [
        {
          "indexed": true,
          "internalType": "uint256",
          "name": "productId",
          "type": "uint256"
        },
        {
          "indexed": true,
          "internalType": "address",
          "name": "reviewer",
          "type": "address"
        },
        {
          "indexed": false,
          "internalType": "enum DisputeManager.Vote",
          "name": "vote",
          "type": "uint8"
        }
      ],
      "name": "VoteCast",
      "type": "event"
    },
    {
      "inputs": [],
      "name": "DISPUTE_STAKE",
      "outputs": [
        {
          "internalType": "uint256",
          "name": "",
          "type": "uint256"
        }
      ],
      "stateMutability": "view",
      "type": "function"
    },
    {
      "inputs": [],
      "name": "PLATFORM_FEE",
      "outputs": [
        {
          "internalType": "uint256",
          "name": "",
          "type": "uint256"
        }
      ],
      "stateMutability": "view",
      "type": "function"
    },
    {
      "inputs": [],
      "name": "REVIEWER_COUNT",
      "outputs": [
        {
          "internalType": "uint256",
          "name": "",
          "type": "uint256"
        }
      ],
      "stateMutability": "view",
      "type": "function"
    },
    {
      "inputs": [],
      "name": "REVIEWER_STAKE",
      "outputs": [
        {
          "internalType": "uint256",
          "name": "",
          "type": "uint256"
        }
      ],
      "stateMutability": "view",
      "type": "function"
    },
    {
      "inputs": [],
      "name": "VOTING_PERIOD",
      "outputs": [
        {
          "internalType": "uint256",
          "name": "",
          "type": "uint256"
        }
      ],
      "stateMutability": "view",
      "type": "function"
    },
    {
      "inputs": [
        {
          "internalType": "uint256",
          "name": "productId",
          "type": "uint256"
        },
        {
          "internalType": "enum DisputeManager.Vote",
          "name": "vote",
          "type": "uint8"
        }
      ],
      "name": "castVote",
      "outputs": [],
      "stateMutability": "nonpayable",
      "type": "function"
    },
    {
      "inputs": [
        {
          "internalType": "uint256",
          "name": "productId",
          "type": "uint256"
        }
      ],
      "name": "getDisputeInfo",
      "outputs": [
        {
          "internalType": "address[]",
          "name": "assignedReviewers",
          "type": "address[]"
        },
        {
          "internalType": "uint256",
          "name": "buyerVotes",
          "type": "uint256"
        },
        {
          "internalType": "uint256",
          "name": "sellerVotes",
          "type": "uint256"
        },
        {
          "internalType": "uint256",
          "name": "deadline",
          "type": "uint256"
        },
        {
          "internalType": "bool",
          "name": "resolved",
          "type": "bool"
        },
        {
          "internalType": "bool",
          "name": "buyerWon",
          "type": "bool"
        }
      ],
      "stateMutability": "view",
      "type": "function"
    },
    {
      "inputs": [
        {
          "internalType": "uint256[]",
          "name": "productIds",
          "type": "uint256[]"
        }
      ],
      "name": "getDisputesByParty",
      "outputs": [
        {
          "components": [
            {
              "internalType": "uint256",
              "name": "productId",
              "type": "uint256"
            },
            {
              "internalType": "uint256",
              "name": "buyerVotes",
              "type": "uint256"
            },
            {
              "internalType": "uint256",
              "name": "sellerVotes",
              "type": "uint256"
            },
            {
              "internalType": "uint256",
              "name": "deadline",
              "type": "uint256"
            },
            {
              "internalType": "bool",
              "name": "resolved",
              "type": "bool"
            },
            {
              "internalType": "bool",
              "name": "buyerWon",
              "type": "bool"
            }
          ],
          "internalType": "struct DisputeManager.PartyDisputeView[]",
          "name": "",
          "type": "tuple[]"
        }
      ],
      "stateMutability": "view",
      "type": "function"
    },
    {
      "inputs": [
        {
          "internalType": "address",
          "name": "reviewer",
          "type": "address"
        }
      ],
      "name": "getDisputesByReviewer",
      "outputs": [
        {
          "internalType": "uint256[]",
          "name": "",
          "type": "uint256[]"
        }
      ],
      "stateMutability": "view",
      "type": "function"
    },
    {
      "inputs": [
        {
          "internalType": "address",
          "name": "reviewer",
          "type": "address"
        }
      ],
      "name": "getReviewerDisputeDetails",
      "outputs": [
        {
          "components": [
            {
              "internalType": "uint256",
              "name": "productId",
              "type": "uint256"
            },
            {
              "internalType": "address",
              "name": "buyer",
              "type": "address"
            },
            {
              "internalType": "address",
              "name": "seller",
              "type": "address"
            },
            {
              "internalType": "uint256",
              "name": "buyerVotes",
              "type": "uint256"
            },
            {
              "internalType": "uint256",
              "name": "sellerVotes",
              "type": "uint256"
            },
            {
              "internalType": "uint256",
              "name": "deadline",
              "type": "uint256"
            },
            {
              "internalType": "bool",
              "name": "resolved",
              "type": "bool"
            },
            {
              "internalType": "bool",
              "name": "buyerWon",
              "type": "bool"
            },
            {
              "internalType": "uint8",
              "name": "myVote",
              "type": "uint8"
            },
            {
              "internalType": "bool",
              "name": "myHasStaked",
              "type": "bool"
            },
            {
              "internalType": "bool",
              "name": "myHasVoted",
              "type": "bool"
            }
          ],
          "internalType": "struct DisputeManager.DisputeView[]",
          "name": "",
          "type": "tuple[]"
        }
      ],
      "stateMutability": "view",
      "type": "function"
    },
    {
      "inputs": [
        {
          "internalType": "uint256",
          "name": "productId",
          "type": "uint256"
        },
        {
          "internalType": "address",
          "name": "reviewer",
          "type": "address"
        }
      ],
      "name": "getReviewerStakeStatus",
      "outputs": [
        {
          "internalType": "bool",
          "name": "hasStaked",
          "type": "bool"
        },
        {
          "internalType": "bool",
          "name": "hasVoted",
          "type": "bool"
        }
      ],
      "stateMutability": "view",
      "type": "function"
    },
    {
      "inputs": [
        {
          "internalType": "uint256",
          "name": "productId",
          "type": "uint256"
        },
        {
          "internalType": "address",
          "name": "reviewer",
          "type": "address"
        }
      ],
      "name": "getReviewerVote",
      "outputs": [
        {
          "internalType": "enum DisputeManager.Vote",
          "name": "",
          "type": "uint8"
        }
      ],
      "stateMutability": "view",
      "type": "function"
    },
    {
      "inputs": [],
      "name": "market",
      "outputs": [
        {
          "internalType": "contract ProductMarket",
          "name": "",
          "type": "address"
        }
      ],
      "stateMutability": "view",
      "type": "function"
    },
    {
      "inputs": [
        {
          "internalType": "uint256",
          "name": "productId",
          "type": "uint256"
        },
        {
          "internalType": "address",
          "name": "buyer",
          "type": "address"
        },
        {
          "internalType": "address",
          "name": "seller",
          "type": "address"
        },
        {
          "internalType": "bool",
          "name": "",
          "type": "bool"
        }
      ],
      "name": "openDispute",
      "outputs": [],
      "stateMutability": "nonpayable",
      "type": "function"
    },
    {
      "inputs": [],
      "name": "registry",
      "outputs": [
        {
          "internalType": "contract ReviewerRegistry",
          "name": "",
          "type": "address"
        }
      ],
      "stateMutability": "view",
      "type": "function"
    },
    {
      "inputs": [
        {
          "internalType": "uint256",
          "name": "productId",
          "type": "uint256"
        }
      ],
      "name": "settleDispute",
      "outputs": [],
      "stateMutability": "nonpayable",
      "type": "function"
    },
    {
      "inputs": [
        {
          "internalType": "uint256",
          "name": "productId",
          "type": "uint256"
        }
      ],
      "name": "stakeToEnter",
      "outputs": [],
      "stateMutability": "nonpayable",
      "type": "function"
    },
    {
      "inputs": [
        {
          "internalType": "uint256",
          "name": "productId",
          "type": "uint256"
        }
      ],
      "name": "withdrawStake",
      "outputs": [],
      "stateMutability": "nonpayable",
      "type": "function"
    },
    {
      "stateMutability": "payable",
      "type": "receive"
    }
  ],
  "bytecode": "0x608060405234801561001057600080fd5b50604051613bf5380380613bf58339818101604052810190610032919061011d565b816000806101000a81548173ffffffffffffffffffffffffffffffffffffffff021916908373ffffffffffffffffffffffffffffffffffffffff16021790555080600160006101000a81548173ffffffffffffffffffffffffffffffffffffffff021916908373ffffffffffffffffffffffffffffffffffffffff160217905550505061015d565b600080fd5b600073ffffffffffffffffffffffffffffffffffffffff82169050919050565b60006100ea826100bf565b9050919050565b6100fa816100df565b811461010557600080fd5b50565b600081519050610117816100f1565b92915050565b60008060408385031215610134576101336100ba565b5b600061014285828601610108565b925050602061015385828601610108565b9150509250929050565b613a898061016c6000396000f3fe60806040526004361061010d5760003560e01c80637b10399911610095578063c44705cb11610064578063c44705cb1461037b578063d17ff07c146103a6578063d96085be146103e4578063e5c397b214610421578063f971c7731461045e57610114565b80637b103999146102cf57806380f55605146102fa578063b1610d7e14610325578063b294ed131461035057610114565b806340c1477c116100dc57806340c1477c146101c157806352564065146101ea57806356781388146102275780635fe7897f146102505780636169c3081461028d57610114565b806319372a2e146101195780631c099ad61461014457806325d5971f1461016d57806334fbc9a11461019657610114565b3661011457005b600080fd5b34801561012557600080fd5b5061012e610487565b60405161013b919061265f565b60405180910390f35b34801561015057600080fd5b5061016b600480360381019061016691906126ba565b61048c565b005b34801561017957600080fd5b50610194600480360381019061018f91906126ba565b610978565b005b3480156101a257600080fd5b506101ab610ca0565b6040516101b8919061265f565b60405180910390f35b3480156101cd57600080fd5b506101e860048036038101906101e391906126ba565b610cac565b005b3480156101f657600080fd5b50610211600480360381019061020c9190612745565b611021565b60405161021e91906127fc565b60405180910390f35b34801561023357600080fd5b5061024e6004803603810190610249919061283c565b61108f565b005b34801561025c57600080fd5b506102776004803603810190610272919061287c565b611470565b6040516102849190612967565b60405180910390f35b34801561029957600080fd5b506102b460048036038101906102af91906126ba565b611507565b6040516102c696959493929190612a62565b60405180910390f35b3480156102db57600080fd5b506102e46115fc565b6040516102f19190612b29565b60405180910390f35b34801561030657600080fd5b5061030f611620565b60405161031c9190612b77565b60405180910390f35b34801561033157600080fd5b5061033a611646565b604051610347919061265f565b60405180910390f35b34801561035c57600080fd5b5061036561164d565b604051610372919061265f565b60405180910390f35b34801561038757600080fd5b50610390611659565b60405161039d919061265f565b60405180910390f35b3480156103b257600080fd5b506103cd60048036038101906103c89190612745565b611665565b6040516103db929190612b92565b60405180910390f35b3480156103f057600080fd5b5061040b60048036038101906104069190612c20565b6116ef565b6040516104189190612da6565b60405180910390f35b34801561042d57600080fd5b506104486004803603810190610443919061287c565b611839565b6040516104559190612f75565b60405180910390f35b34801561046a57600080fd5b5061048560048036038101906104809190612fc3565b611b38565b005b600581565b60006002600083815260200190815260200160002090508060090160009054906101000a900460ff16156104f5576040517f08c379a00000000000000000000000000000000000000000000000000000000081526004016104ec90613087565b60405180910390fd5b806008015442101561053c576040517f08c379a0000000000000000000000000000000000000000000000000000000008152600401610533906130f3565b60405180910390fd5b806006015481600501540361096a57620151804261055a9190613142565b8160080181905550600081600501819055506000816006018190555060005b816003018054905081101561076c5760008260030182815481106105a05761059f613176565b5b9060005260206000200160009054906101000a900473ffffffffffffffffffffffffffffffffffffffff16905060008360040160008373ffffffffffffffffffffffffffffffffffffffff1673ffffffffffffffffffffffffffffffffffffffff16815260200190815260200160002090508060000160009054906101000a900460ff16801561063f57508060000160019054906101000a900460ff16155b156107135760008160000160006101000a81548160ff021916908315150217905550836007016000815480929190610676906131a5565b9190505550600160009054906101000a900473ffffffffffffffffffffffffffffffffffffffff1673ffffffffffffffffffffffffffffffffffffffff16631603378e8367016345785d8a00006040518363ffffffff1660e01b81526004016106e09291906131dd565b600060405180830381600087803b1580156106fa57600080fd5b505af115801561070e573d6000803e3d6000fd5b505050505b60008160000160016101000a81548160ff02191690831515021790555060008160000160026101000a81548160ff0219169083600281111561075857610757612785565b5b021790555050508080600101915050610579565b5060008054906101000a900473ffffffffffffffffffffffffffffffffffffffff1673ffffffffffffffffffffffffffffffffffffffff16636c1cb4cb8260010160009054906101000a900473ffffffffffffffffffffffffffffffffffffffff168360020160009054906101000a900473ffffffffffffffffffffffffffffffffffffffff1660056040518463ffffffff1660e01b815260040161081393929190613206565b600060405180830381865afa158015610830573d6000803e3d6000fd5b505050506040513d6000823e3d601f19601f8201168201806040525081019061085991906133a1565b8160030190805190602001906108709291906124d4565b5060005b8160030180549050811015610936576003600083600301838154811061089d5761089c613176565b5b9060005260206000200160009054906101000a900473ffffffffffffffffffffffffffffffffffffffff1673ffffffffffffffffffffffffffffffffffffffff1673ffffffffffffffffffffffffffffffffffffffff1681526020019081526020016000208390806001815401808255809150506001900390600052602060002001600090919091909150558080600101915050610874565b50817f117bd2bc2ac2ef65bf31c3adca2a9cf1307829a961d80914cc7f6878b93ba39a60405160405180910390a250610975565b61097382611e49565b505b50565b60006002600083815260200190815260200160002090508060090160009054906101000a900460ff16156109e1576040517f08c379a00000000000000000000000000000000000000000000000000000000081526004016109d890613087565b60405180910390fd5b80600801544210610a27576040517f08c379a0000000000000000000000000000000000000000000000000000000008152600401610a1e90613436565b60405180910390fd5b8060040160003373ffffffffffffffffffffffffffffffffffffffff1673ffffffffffffffffffffffffffffffffffffffff16815260200190815260200160002060000160009054906101000a900460ff16610ab8576040517f08c379a0000000000000000000000000000000000000000000000000000000008152600401610aaf906134a2565b60405180910390fd5b8060040160003373ffffffffffffffffffffffffffffffffffffffff1673ffffffffffffffffffffffffffffffffffffffff16815260200190815260200160002060000160019054906101000a900460ff1615610b4a576040517f08c379a0000000000000000000000000000000000000000000000000000000008152600401610b419061350e565b60405180910390fd5b60008160040160003373ffffffffffffffffffffffffffffffffffffffff1673ffffffffffffffffffffffffffffffffffffffff16815260200190815260200160002060000160006101000a81548160ff021916908315150217905550806007016000815480929190610bbc906131a5565b9190505550600160009054906101000a900473ffffffffffffffffffffffffffffffffffffffff1673ffffffffffffffffffffffffffffffffffffffff16631603378e3367016345785d8a00006040518363ffffffff1660e01b8152600401610c269291906131dd565b600060405180830381600087803b158015610c4057600080fd5b505af1158015610c54573d6000803e3d6000fd5b505050503373ffffffffffffffffffffffffffffffffffffffff16827fae2af8c9373892348f61e22094b950d4809b52470d9e15f99a6819713afed53d60405160405180910390a35050565b67016345785d8a000081565b60006002600083815260200190815260200160002090508060090160009054906101000a900460ff1615610d15576040517f08c379a0000000000000000000000000000000000000000000000000000000008152600401610d0c90613087565b60405180910390fd5b80600801544210610d5b576040517f08c379a0000000000000000000000000000000000000000000000000000000008152600401610d5290613436565b60405180910390fd5b6000805b8260030180549050811015610df7573373ffffffffffffffffffffffffffffffffffffffff16836003018281548110610d9b57610d9a613176565b5b9060005260206000200160009054906101000a900473ffffffffffffffffffffffffffffffffffffffff1673ffffffffffffffffffffffffffffffffffffffff1603610dea5760019150610df7565b8080600101915050610d5f565b5080610e38576040517f08c379a0000000000000000000000000000000000000000000000000000000008152600401610e2f9061357a565b60405180910390fd5b8160040160003373ffffffffffffffffffffffffffffffffffffffff1673ffffffffffffffffffffffffffffffffffffffff16815260200190815260200160002060000160009054906101000a900460ff1615610eca576040517f08c379a0000000000000000000000000000000000000000000000000000000008152600401610ec1906135e6565b60405180910390fd5b600160009054906101000a900473ffffffffffffffffffffffffffffffffffffffff1673ffffffffffffffffffffffffffffffffffffffff166303e9770b3367016345785d8a00006040518363ffffffff1660e01b8152600401610f2f9291906131dd565b600060405180830381600087803b158015610f4957600080fd5b505af1158015610f5d573d6000803e3d6000fd5b5050505060018260040160003373ffffffffffffffffffffffffffffffffffffffff1673ffffffffffffffffffffffffffffffffffffffff16815260200190815260200160002060000160006101000a81548160ff021916908315150217905550816007016000815480929190610fd390613606565b91905055503373ffffffffffffffffffffffffffffffffffffffff16837faf968206e0bfdc195661fb241e701b4bb1e5f60a8c86630a6da0d36b005645eb60405160405180910390a3505050565b60006002600084815260200190815260200160002060040160008373ffffffffffffffffffffffffffffffffffffffff1673ffffffffffffffffffffffffffffffffffffffff16815260200190815260200160002060000160029054906101000a900460ff16905092915050565b60006002600084815260200190815260200160002090508060090160009054906101000a900460ff16156110f8576040517f08c379a00000000000000000000000000000000000000000000000000000000081526004016110ef90613087565b60405180910390fd5b8060080154421061113e576040517f08c379a000000000000000000000000000000000000000000000000000000000815260040161113590613436565b60405180910390fd5b6000600281111561115257611151612785565b5b82600281111561116557611164612785565b5b036111a5576040517f08c379a000000000000000000000000000000000000000000000000000000000815260040161119c9061369a565b60405180910390fd5b8060040160003373ffffffffffffffffffffffffffffffffffffffff1673ffffffffffffffffffffffffffffffffffffffff16815260200190815260200160002060000160009054906101000a900460ff16611236576040517f08c379a000000000000000000000000000000000000000000000000000000000815260040161122d90613706565b60405180910390fd5b8060040160003373ffffffffffffffffffffffffffffffffffffffff1673ffffffffffffffffffffffffffffffffffffffff16815260200190815260200160002060000160019054906101000a900460ff16156112c8576040517f08c379a00000000000000000000000000000000000000000000000000000000081526004016112bf90613772565b60405180910390fd5b818160040160003373ffffffffffffffffffffffffffffffffffffffff1673ffffffffffffffffffffffffffffffffffffffff16815260200190815260200160002060000160026101000a81548160ff0219169083600281111561132f5761132e612785565b5b021790555060018160040160003373ffffffffffffffffffffffffffffffffffffffff1673ffffffffffffffffffffffffffffffffffffffff16815260200190815260200160002060000160016101000a81548160ff021916908315150217905550600160028111156113a5576113a4612785565b5b8260028111156113b8576113b7612785565b5b036113dc578060050160008154809291906113d290613606565b91905055506113f7565b8060060160008154809291906113f190613606565b91905055505b3373ffffffffffffffffffffffffffffffffffffffff16837feba4866100b822f0f391e610e7edfab790b9e8766c0012733c26b2f1858e8dd78460405161143e91906127fc565b60405180910390a360038160060154826005015461145c9190613142565b1061146b5761146a83611e49565b5b505050565b6060600360008373ffffffffffffffffffffffffffffffffffffffff1673ffffffffffffffffffffffffffffffffffffffff1681526020019081526020016000208054806020026020016040519081016040528092919081815260200182805480156114fb57602002820191906000526020600020905b8154815260200190600101908083116114e7575b50505050509050919050565b6060600080600080600080600260008981526020019081526020016000209050806003018160050154826006015483600801548460090160009054906101000a900460ff168560090160019054906101000a900460ff16858054806020026020016040519081016040528092919081815260200182805480156115df57602002820191906000526020600020905b8160009054906101000a900473ffffffffffffffffffffffffffffffffffffffff1673ffffffffffffffffffffffffffffffffffffffff1681526020019060010190808311611595575b505050505095509650965096509650965096505091939550919395565b60008054906101000a900473ffffffffffffffffffffffffffffffffffffffff1681565b600160009054906101000a900473ffffffffffffffffffffffffffffffffffffffff1681565b6201518081565b6706f05b59d3b2000081565b67016345785d8a000081565b60008060006002600086815260200190815260200160002060040160008573ffffffffffffffffffffffffffffffffffffffff1673ffffffffffffffffffffffffffffffffffffffff16815260200190815260200160002090508060000160009054906101000a900460ff168160000160019054906101000a900460ff1692509250509250929050565b606060008383905067ffffffffffffffff8111156117105761170f61324e565b5b60405190808252806020026020018201604052801561174957816020015b61173661255e565b81526020019060019003908161172e5790505b50905060005b8484905081101561182e5760006002600087878581811061177357611772613176565b5b90506020020135815260200190815260200160002090506040518060c001604052808787858181106117a8576117a7613176565b5b9050602002013581526020018260050154815260200182600601548152602001826008015481526020018260090160009054906101000a900460ff16151581526020018260090160019054906101000a900460ff16151581525083838151811061181557611814613176565b5b602002602001018190525050808060010191505061174f565b508091505092915050565b60606000600360008473ffffffffffffffffffffffffffffffffffffffff1673ffffffffffffffffffffffffffffffffffffffff1681526020019081526020016000208054806020026020016040519081016040528092919081815260200182805480156118c657602002820191906000526020600020905b8154815260200190600101908083116118b2575b505050505090506000815167ffffffffffffffff8111156118ea576118e961324e565b5b60405190808252806020026020018201604052801561192357816020015b611910612598565b8152602001906001900390816119085790505b50905060005b8251811015611b2d5760006002600085848151811061194b5761194a613176565b5b60200260200101518152602001908152602001600020905060008160040160008873ffffffffffffffffffffffffffffffffffffffff1673ffffffffffffffffffffffffffffffffffffffff16815260200190815260200160002090506040518061016001604052808685815181106119c7576119c6613176565b5b602002602001015181526020018360010160009054906101000a900473ffffffffffffffffffffffffffffffffffffffff1673ffffffffffffffffffffffffffffffffffffffff1681526020018360020160009054906101000a900473ffffffffffffffffffffffffffffffffffffffff1673ffffffffffffffffffffffffffffffffffffffff1681526020018360050154815260200183600601548152602001836008015481526020018360090160009054906101000a900460ff16151581526020018360090160019054906101000a900460ff16151581526020018260000160029054906101000a900460ff166002811115611ac857611ac7612785565b5b60ff1681526020018260000160009054906101000a900460ff16151581526020018260000160019054906101000a900460ff161515815250848481518110611b1357611b12613176565b5b602002602001018190525050508080600101915050611929565b508092505050919050565b600160009054906101000a900473ffffffffffffffffffffffffffffffffffffffff1673ffffffffffffffffffffffffffffffffffffffff163373ffffffffffffffffffffffffffffffffffffffff1614611bc8576040517f08c379a0000000000000000000000000000000000000000000000000000000008152600401611bbf906137de565b60405180910390fd5b6000600260008681526020019081526020016000209050848160000181905550838160010160006101000a81548173ffffffffffffffffffffffffffffffffffffffff021916908373ffffffffffffffffffffffffffffffffffffffff160217905550828160020160006101000a81548173ffffffffffffffffffffffffffffffffffffffff021916908373ffffffffffffffffffffffffffffffffffffffff1602179055506201518042611c7d9190613142565b816008018190555060008054906101000a900473ffffffffffffffffffffffffffffffffffffffff1673ffffffffffffffffffffffffffffffffffffffff16636c1cb4cb858560056040518463ffffffff1660e01b8152600401611ce393929190613206565b600060405180830381865afa158015611d00573d6000803e3d6000fd5b505050506040513d6000823e3d601f19601f82011682018060405250810190611d2991906133a1565b816003019080519060200190611d409291906124d4565b5060005b8160030180549050811015611e065760036000836003018381548110611d6d57611d6c613176565b5b9060005260206000200160009054906101000a900473ffffffffffffffffffffffffffffffffffffffff1673ffffffffffffffffffffffffffffffffffffffff1673ffffffffffffffffffffffffffffffffffffffff1681526020019081526020016000208690806001815401808255809150506001900390600052602060002001600090919091909150558080600101915050611d44565b50847f8926bb53a77b2466d63ec9ee5d3edc04cd5ff8a10119e8f65d923527ec2abc5c82600301604051611e3a91906138ea565b60405180910390a25050505050565b60006002600083815260200190815260200160002090508060090160009054906101000a900460ff1615611e7d57506124d1565b60008160060154826005015411905060018260090160006101000a81548160ff021916908315150217905550808260090160016101000a81548160ff021916908315150217905550428260080181905550600081611edc576002611edf565b60015b905060006706f05b59d3b2000090506000805b8560030180549050811015612032576000866003018281548110611f1957611f18613176565b5b9060005260206000200160009054906101000a900473ffffffffffffffffffffffffffffffffffffffff16905060008760040160008373ffffffffffffffffffffffffffffffffffffffff1673ffffffffffffffffffffffffffffffffffffffff16815260200190815260200160002090508060000160009054906101000a900460ff168015611fb757508060000160019054906101000a900460ff165b1561202357856002811115611fcf57611fce612785565b5b8160000160029054906101000a900460ff166002811115611ff357611ff2612785565b5b0361200b57838061200390613606565b945050612022565b67016345785d8a00008561201f9190613142565b94505b5b50508080600101915050611ef2565b50600067016345785d8a000083101561204b5782612055565b67016345785d8a00005b905060008184612065919061390c565b90506000808411612077576000612084565b8382612083919061396f565b5b905060005b886003018054905081101561232d5760008960030182815481106120b0576120af613176565b5b9060005260206000200160009054906101000a900473ffffffffffffffffffffffffffffffffffffffff16905060008a60040160008373ffffffffffffffffffffffffffffffffffffffff1673ffffffffffffffffffffffffffffffffffffffff16815260200190815260200160002090508060000160009054906101000a900460ff1661213f575050612320565b8060000160019054906101000a900460ff168015612191575088600281111561216b5761216a612785565b5b8160000160029054906101000a900460ff16600281111561218f5761218e612785565b5b145b1561223457600160009054906101000a900473ffffffffffffffffffffffffffffffffffffffff1673ffffffffffffffffffffffffffffffffffffffff1663664bc6c48367016345785d8a0000876040518463ffffffff1660e01b81526004016121fd939291906139a0565b600060405180830381600087803b15801561221757600080fd5b505af115801561222b573d6000803e3d6000fd5b505050506122e3565b8060000160019054906101000a900460ff166122e257600160009054906101000a900473ffffffffffffffffffffffffffffffffffffffff1673ffffffffffffffffffffffffffffffffffffffff16631603378e8367016345785d8a00006040518363ffffffff1660e01b81526004016122af9291906131dd565b600060405180830381600087803b1580156122c957600080fd5b505af11580156122dd573d6000803e3d6000fd5b505050505b5b60008160000160006101000a81548160ff02191690831515021790555060008160000160016101000a81548160ff02191690831515021790555050505b8080600101915050612089565b50600160009054906101000a900473ffffffffffffffffffffffffffffffffffffffff1673ffffffffffffffffffffffffffffffffffffffff1663067d50dc846040518263ffffffff1660e01b8152600401612389919061265f565b600060405180830381600087803b1580156123a357600080fd5b505af11580156123b7573d6000803e3d6000fd5b505050506000876123c95760006123d3565b6706f05b59d3b200005b90506000886123ea576706f05b59d3b200006123ed565b60005b9050600160009054906101000a900473ffffffffffffffffffffffffffffffffffffffff1673ffffffffffffffffffffffffffffffffffffffff166351f112598c8b85856040518563ffffffff1660e01b815260040161245094939291906139d7565b600060405180830381600087803b15801561246a57600080fd5b505af115801561247e573d6000803e3d6000fd5b505050508a7f88eecbbf54eddf9adbeb289ef36beac8d141af4274d667ccc04a40044df75b398a8c600501548d600601546040516124be93929190613a1c565b60405180910390a2505050505050505050505b50565b82805482825590600052602060002090810192821561254d579160200282015b8281111561254c5782518260006101000a81548173ffffffffffffffffffffffffffffffffffffffff021916908373ffffffffffffffffffffffffffffffffffffffff160217905550916020019190600101906124f4565b5b50905061255a9190612629565b5090565b6040518060c00160405280600081526020016000815260200160008152602001600081526020016000151581526020016000151581525090565b60405180610160016040528060008152602001600073ffffffffffffffffffffffffffffffffffffffff168152602001600073ffffffffffffffffffffffffffffffffffffffff168152602001600081526020016000815260200160008152602001600015158152602001600015158152602001600060ff1681526020016000151581526020016000151581525090565b5b8082111561264257600081600090555060010161262a565b5090565b6000819050919050565b61265981612646565b82525050565b60006020820190506126746000830184612650565b92915050565b6000604051905090565b600080fd5b600080fd5b61269781612646565b81146126a257600080fd5b50565b6000813590506126b48161268e565b92915050565b6000602082840312156126d0576126cf612684565b5b60006126de848285016126a5565b91505092915050565b600073ffffffffffffffffffffffffffffffffffffffff82169050919050565b6000612712826126e7565b9050919050565b61272281612707565b811461272d57600080fd5b50565b60008135905061273f81612719565b92915050565b6000806040838503121561275c5761275b612684565b5b600061276a858286016126a5565b925050602061277b85828601612730565b9150509250929050565b7f4e487b7100000000000000000000000000000000000000000000000000000000600052602160045260246000fd5b600381106127c5576127c4612785565b5b50565b60008190506127d6826127b4565b919050565b60006127e6826127c8565b9050919050565b6127f6816127db565b82525050565b600060208201905061281160008301846127ed565b92915050565b6003811061282457600080fd5b50565b60008135905061283681612817565b92915050565b6000806040838503121561285357612852612684565b5b6000612861858286016126a5565b925050602061287285828601612827565b9150509250929050565b60006020828403121561289257612891612684565b5b60006128a084828501612730565b91505092915050565b600081519050919050565b600082825260208201905092915050565b6000819050602082019050919050565b6128de81612646565b82525050565b60006128f083836128d5565b60208301905092915050565b6000602082019050919050565b6000612914826128a9565b61291e81856128b4565b9350612929836128c5565b8060005b8381101561295a57815161294188826128e4565b975061294c836128fc565b92505060018101905061292d565b5085935050505092915050565b600060208201905081810360008301526129818184612909565b905092915050565b600081519050919050565b600082825260208201905092915050565b6000819050602082019050919050565b6129be81612707565b82525050565b60006129d083836129b5565b60208301905092915050565b6000602082019050919050565b60006129f482612989565b6129fe8185612994565b9350612a09836129a5565b8060005b83811015612a3a578151612a2188826129c4565b9750612a2c836129dc565b925050600181019050612a0d565b5085935050505092915050565b60008115159050919050565b612a5c81612a47565b82525050565b600060c0820190508181036000830152612a7c81896129e9565b9050612a8b6020830188612650565b612a986040830187612650565b612aa56060830186612650565b612ab26080830185612a53565b612abf60a0830184612a53565b979650505050505050565b6000819050919050565b6000612aef612aea612ae5846126e7565b612aca565b6126e7565b9050919050565b6000612b0182612ad4565b9050919050565b6000612b1382612af6565b9050919050565b612b2381612b08565b82525050565b6000602082019050612b3e6000830184612b1a565b92915050565b6000612b4f82612ad4565b9050919050565b6000612b6182612b44565b9050919050565b612b7181612b56565b82525050565b6000602082019050612b8c6000830184612b68565b92915050565b6000604082019050612ba76000830185612a53565b612bb46020830184612a53565b9392505050565b600080fd5b600080fd5b600080fd5b60008083601f840112612be057612bdf612bbb565b5b8235905067ffffffffffffffff811115612bfd57612bfc612bc0565b5b602083019150836020820283011115612c1957612c18612bc5565b5b9250929050565b60008060208385031215612c3757612c36612684565b5b600083013567ffffffffffffffff811115612c5557612c54612689565b5b612c6185828601612bca565b92509250509250929050565b600081519050919050565b600082825260208201905092915050565b6000819050602082019050919050565b612ca281612a47565b82525050565b60c082016000820151612cbe60008501826128d5565b506020820151612cd160208501826128d5565b506040820151612ce460408501826128d5565b506060820151612cf760608501826128d5565b506080820151612d0a6080850182612c99565b5060a0820151612d1d60a0850182612c99565b50505050565b6000612d2f8383612ca8565b60c08301905092915050565b6000602082019050919050565b6000612d5382612c6d565b612d5d8185612c78565b9350612d6883612c89565b8060005b83811015612d99578151612d808882612d23565b9750612d8b83612d3b565b925050600181019050612d6c565b5085935050505092915050565b60006020820190508181036000830152612dc08184612d48565b905092915050565b600081519050919050565b600082825260208201905092915050565b6000819050602082019050919050565b600060ff82169050919050565b612e0a81612df4565b82525050565b61016082016000820151612e2760008501826128d5565b506020820151612e3a60208501826129b5565b506040820151612e4d60408501826129b5565b506060820151612e6060608501826128d5565b506080820151612e7360808501826128d5565b5060a0820151612e8660a08501826128d5565b5060c0820151612e9960c0850182612c99565b5060e0820151612eac60e0850182612c99565b50610100820151612ec1610100850182612e01565b50610120820151612ed6610120850182612c99565b50610140820151612eeb610140850182612c99565b50505050565b6000612efd8383612e10565b6101608301905092915050565b6000602082019050919050565b6000612f2282612dc8565b612f2c8185612dd3565b9350612f3783612de4565b8060005b83811015612f68578151612f4f8882612ef1565b9750612f5a83612f0a565b925050600181019050612f3b565b5085935050505092915050565b60006020820190508181036000830152612f8f8184612f17565b905092915050565b612fa081612a47565b8114612fab57600080fd5b50565b600081359050612fbd81612f97565b92915050565b60008060008060808587031215612fdd57612fdc612684565b5b6000612feb878288016126a5565b9450506020612ffc87828801612730565b935050604061300d87828801612730565b925050606061301e87828801612fae565b91505092959194509250565b600082825260208201905092915050565b7f416c7265616479207265736f6c76656400000000000000000000000000000000600082015250565b600061307160108361302a565b915061307c8261303b565b602082019050919050565b600060208201905081810360008301526130a081613064565b9050919050565b7f566f74696e67207374696c6c206f6e676f696e67000000000000000000000000600082015250565b60006130dd60148361302a565b91506130e8826130a7565b602082019050919050565b6000602082019050818103600083015261310c816130d0565b9050919050565b7f4e487b7100000000000000000000000000000000000000000000000000000000600052601160045260246000fd5b600061314d82612646565b915061315883612646565b92508282019050808211156131705761316f613113565b5b92915050565b7f4e487b7100000000000000000000000000000000000000000000000000000000600052603260045260246000fd5b60006131b082612646565b9150600082036131c3576131c2613113565b5b600182039050919050565b6131d781612707565b82525050565b60006040820190506131f260008301856131ce565b6131ff6020830184612650565b9392505050565b600060608201905061321b60008301866131ce565b61322860208301856131ce565b6132356040830184612650565b949350505050565b6000601f19601f8301169050919050565b7f4e487b7100000000000000000000000000000000000000000000000000000000600052604160045260246000fd5b6132868261323d565b810181811067ffffffffffffffff821117156132a5576132a461324e565b5b80604052505050565b60006132b861267a565b90506132c4828261327d565b919050565b600067ffffffffffffffff8211156132e4576132e361324e565b5b602082029050602081019050919050565b60008151905061330481612719565b92915050565b600061331d613318846132c9565b6132ae565b905080838252602082019050602084028301858111156133405761333f612bc5565b5b835b81811015613369578061335588826132f5565b845260208401935050602081019050613342565b5050509392505050565b600082601f83011261338857613387612bbb565b5b815161339884826020860161330a565b91505092915050565b6000602082840312156133b7576133b6612684565b5b600082015167ffffffffffffffff8111156133d5576133d4612689565b5b6133e184828501613373565b91505092915050565b7f566f74696e6720706572696f6420656e64656400000000000000000000000000600082015250565b600061342060138361302a565b915061342b826133ea565b602082019050919050565b6000602082019050818103600083015261344f81613413565b9050919050565b7f4e6f74207374616b656400000000000000000000000000000000000000000000600082015250565b600061348c600a8361302a565b915061349782613456565b602082019050919050565b600060208201905081810360008301526134bb8161347f565b9050919050565b7f416c726561647920766f7465642c2063616e6e6f742077697468647261770000600082015250565b60006134f8601e8361302a565b9150613503826134c2565b602082019050919050565b60006020820190508181036000830152613527816134eb565b9050919050565b7f4e6f742061737369676e656420746f2074686973206469737075746500000000600082015250565b6000613564601c8361302a565b915061356f8261352e565b602082019050919050565b6000602082019050818103600083015261359381613557565b9050919050565b7f416c7265616479207374616b6564000000000000000000000000000000000000600082015250565b60006135d0600e8361302a565b91506135db8261359a565b602082019050919050565b600060208201905081810360008301526135ff816135c3565b9050919050565b600061361182612646565b91507fffffffffffffffffffffffffffffffffffffffffffffffffffffffffffffffff820361364357613642613113565b5b600182019050919050565b7f496e76616c696420766f74650000000000000000000000000000000000000000600082015250565b6000613684600c8361302a565b915061368f8261364e565b602082019050919050565b600060208201905081810360008301526136b381613677565b9050919050565b7f4d757374207374616b65206265666f726520766f74696e670000000000000000600082015250565b60006136f060188361302a565b91506136fb826136ba565b602082019050919050565b6000602082019050818103600083015261371f816136e3565b9050919050565b7f416c726561647920766f74656400000000000000000000000000000000000000600082015250565b600061375c600d8361302a565b915061376782613726565b602082019050919050565b6000602082019050818103600083015261378b8161374f565b9050919050565b7f4f6e6c79206d61726b657420636f6e7472616374000000000000000000000000600082015250565b60006137c860148361302a565b91506137d382613792565b602082019050919050565b600060208201905081810360008301526137f7816137bb565b9050919050565b600081549050919050565b60008190508160005260206000209050919050565b60008160001c9050919050565b600073ffffffffffffffffffffffffffffffffffffffff82169050919050565b600061385e6138598361381e565b61382b565b9050919050565b6000613871825461384b565b9050919050565b6000600182019050919050565b6000613890826137fe565b61389a8185612994565b93506138a583613809565b8060005b838110156138dd576138ba82613865565b6138c488826129c4565b97506138cf83613878565b9250506001810190506138a9565b5085935050505092915050565b600060208201905081810360008301526139048184613885565b905092915050565b600061391782612646565b915061392283612646565b925082820390508181111561393a57613939613113565b5b92915050565b7f4e487b7100000000000000000000000000000000000000000000000000000000600052601260045260246000fd5b600061397a82612646565b915061398583612646565b92508261399557613994613940565b5b828204905092915050565b60006060820190506139b560008301866131ce565b6139c26020830185612650565b6139cf6040830184612650565b949350505050565b60006080820190506139ec6000830187612650565b6139f96020830186612a53565b613a066040830185612650565b613a136060830184612650565b95945050505050565b6000606082019050613a316000830186612a53565b613a3e6020830185612650565b613a4b6040830184612650565b94935050505056fea2646970667358221220c3e9c3233db8d9d03bd65d457d68c1102aacc3acd54bab924745a032c227feee64736f6c634300081c0033",
  "linkReferences": {},
  "deployedLinkReferences": {}
}