{
  "_format": "hh-sol-artifact-1",
  "contractName": "ProductMarket",
  "sourceName": "contracts/ProductMarket.sol",
  "abi": [
    {
      "inputs": [
        {
          "internalType": "address",
          "name": "_registry",
          "type": "address"
        }
      ],
      "stateMutability": "nonpayable",
      "type": "constructor"
    },
    {
      "anonymous": false,
      "inputs": [
        {
          "indexed": true,
          "internalType": "address",
          "name": "user",
          "type": "address"
        },
        {
          "indexed": false,
          "internalType": "uint256",
          "name": "amount",
          "type": "uint256"
        }
      ],
      "name": "Deposited",
      "type": "event"
    },
    {
      "anonymous": false,
      "inputs": [
        {
          "indexed": true,
          "internalType": "uint256",
          "name": "id",
          "type": "uint256"
        }
      ],
      "name": "ProductCompleted",
      "type": "event"
    },
    {
      "anonymous": false,
      "inputs": [
        {
          "indexed": true,
          "internalType": "uint256",
          "name": "id",
          "type": "uint256"
        }
      ],
      "name": "ProductDelisted",
      "type": "event"
    },
    {
      "anonymous": false,
      "inputs": [
        {
          "indexed": true,
          "internalType": "uint256",
          "name": "id",
          "type": "uint256"
        },
        {
          "indexed": false,
          "internalType": "address",
          "name": "raisedBy",
          "type": "address"
        }
      ],
      "name": "ProductDisputed",
      "type": "event"
    },
    {
      "anonymous": false,
      "inputs": [
        {
          "indexed": true,
          "internalType": "uint256",
          "name": "id",
          "type": "uint256"
        },
        {
          "indexed": true,
          "internalType": "address",
          "name": "seller",
          "type": "address"
        },
        {
          "indexed": false,
          "internalType": "string",
          "name": "ipfsHash",
          "type": "string"
        },
        {
          "indexed": false,
          "internalType": "uint256",
          "name": "price",
          "type": "uint256"
        }
      ],
      "name": "ProductListed",
      "type": "event"
    },
    {
      "anonymous": false,
      "inputs": [
        {
          "indexed": true,
          "internalType": "uint256",
          "name": "id",
          "type": "uint256"
        },
        {
          "indexed": true,
          "internalType": "address",
          "name": "buyer",
          "type": "address"
        }
      ],
      "name": "ProductPurchased",
      "type": "event"
    },
    {
      "anonymous": false,
      "inputs": [
        {
          "indexed": true,
          "internalType": "uint256",
          "name": "id",
          "type": "uint256"
        },
        {
          "indexed": false,
          "internalType": "string",
          "name": "deliveryIpfsHash",
          "type": "string"
        }
      ],
      "name": "ProductShipped",
      "type": "event"
    },
    {
      "anonymous": false,
      "inputs": [
        {
          "indexed": true,
          "internalType": "address",
          "name": "user",
          "type": "address"
        },
        {
          "indexed": false,
          "internalType": "uint256",
          "name": "amount",
          "type": "uint256"
        }
      ],
      "name": "Withdrawn",
      "type": "event"
    },
    {
      "inputs": [],
      "name": "DISPUTE_STAKE",
      "outputs": [
        {
          "internalType": "uint256",
          "name": "",
          "type": "uint256"
        }
      ],
      "stateMutability": "view",
      "type": "function"
    },
    {
      "inputs": [],
      "name": "LISTING_DEADLINE",
      "outputs": [
        {
          "internalType": "uint256",
          "name": "",
          "type": "uint256"
        }
      ],
      "stateMutability": "view",
      "type": "function"
    },
    {
      "inputs": [],
      "name": "MIN_DEPOSIT",
      "outputs": [
        {
          "internalType": "uint256",
          "name": "",
          "type": "uint256"
        }
      ],
      "stateMutability": "view",
      "type": "function"
    },
    {
      "inputs": [
        {
          "internalType": "address",
          "name": "",
          "type": "address"
        }
      ],
      "name": "activeDisputeCount",
      "outputs": [
        {
          "internalType": "uint256",
          "name": "",
          "type": "uint256"
        }
      ],
      "stateMutability": "view",
      "type": "function"
    },
    {
      "inputs": [
        {
          "internalType": "uint256",
          "name": "productId",
          "type": "uint256"
        }
      ],
      "name": "confirmReceipt",
      "outputs": [],
      "stateMutability": "nonpayable",
      "type": "function"
    },
    {
      "inputs": [
        {
          "internalType": "uint256",
          "name": "productId",
          "type": "uint256"
        },
        {
          "internalType": "string",
          "name": "deliveryIpfsHash",
          "type": "string"
        }
      ],
      "name": "confirmShipment",
      "outputs": [],
      "stateMutability": "nonpayable",
      "type": "function"
    },
    {
      "inputs": [
        {
          "internalType": "uint256",
          "name": "productId",
          "type": "uint256"
        }
      ],
      "name": "delistProduct",
      "outputs": [],
      "stateMutability": "nonpayable",
      "type": "function"
    },
    {
      "inputs": [],
      "name": "deposit",
      "outputs": [],
      "stateMutability": "payable",
      "type": "function"
    },
    {
      "inputs": [
        {
          "internalType": "address",
          "name": "",
          "type": "address"
        }
      ],
      "name": "depositBalance",
      "outputs": [
        {
          "internalType": "uint256",
          "name": "",
          "type": "uint256"
        }
      ],
      "stateMutability": "view",
      "type": "function"
    },
    {
      "inputs": [],
      "name": "disputeManager",
      "outputs": [
        {
          "internalType": "contract DisputeManager",
          "name": "",
          "type": "address"
        }
      ],
      "stateMutability": "view",
      "type": "function"
    },
    {
      "inputs": [],
      "name": "getLatestProductId",
      "outputs": [
        {
          "internalType": "uint256",
          "name": "",
          "type": "uint256"
        }
      ],
      "stateMutability": "view",
      "type": "function"
    },
    {
      "inputs": [],
      "name": "getListedProducts",
      "outputs": [
        {
          "internalType": "uint256[]",
          "name": "",
          "type": "uint256[]"
        }
      ],
      "stateMutability": "view",
      "type": "function"
    },
    {
      "inputs": [
        {
          "internalType": "address",
          "name": "party",
          "type": "address"
        }
      ],
      "name": "getMyDisputes",
      "outputs": [
        {
          "internalType": "uint256[]",
          "name": "",
          "type": "uint256[]"
        }
      ],
      "stateMutability": "view",
      "type": "function"
    },
    {
      "inputs": [
        {
          "internalType": "uint256",
          "name": "productId",
          "type": "uint256"
        }
      ],
      "name": "getProduct",
      "outputs": [
        {
          "components": [
            {
              "internalType": "uint256",
              "name": "id",
              "type": "uint256"
            },
            {
              "internalType": "address",
              "name": "seller",
              "type": "address"
            },
            {
              "internalType": "address",
              "name": "buyer",
              "type": "address"
            },
            {
              "internalType": "string",
              "name": "ipfsHash",
              "type": "string"
            },
            {
              "internalType": "string",
              "name": "deliveryIpfsHash",
              "type": "string"
            },
            {
              "internalType": "uint256",
              "name": "price",
              "type": "uint256"
            },
            {
              "internalType": "uint256",
              "name": "listedAt",
              "type": "uint256"
            },
            {
              "internalType": "enum ProductMarket.ProductStatus",
              "name": "status",
              "type": "uint8"
            }
          ],
          "internalType": "struct ProductMarket.Product",
          "name": "",
          "type": "tuple"
        }
      ],
      "stateMutability": "view",
      "type": "function"
    },
    {
      "inputs": [
        {
          "internalType": "address",
          "name": "buyer",
          "type": "address"
        }
      ],
      "name": "getProductsByBuyer",
      "outputs": [
        {
          "internalType": "uint256[]",
          "name": "",
          "type": "uint256[]"
        }
      ],
      "stateMutability": "view",
      "type": "function"
    },
    {
      "inputs": [
        {
          "internalType": "address",
          "name": "seller",
          "type": "address"
        }
      ],
      "name": "getProductsBySeller",
      "outputs": [
        {
          "internalType": "uint256[]",
          "name": "",
          "type": "uint256[]"
        }
      ],
      "stateMutability": "view",
      "type": "function"
    },
    {
      "inputs": [
        {
          "internalType": "string",
          "name": "ipfsHash",
          "type": "string"
        },
        {
          "internalType": "uint256",
          "name": "price",
          "type": "uint256"
        }
      ],
      "name": "listProduct",
      "outputs": [
        {
          "internalType": "uint256",
          "name": "",
          "type": "uint256"
        }
      ],
      "stateMutability": "nonpayable",
      "type": "function"
    },
    {
      "inputs": [
        {
          "internalType": "uint256",
          "name": "",
          "type": "uint256"
        }
      ],
      "name": "products",
      "outputs": [
        {
          "internalType": "uint256",
          "name": "id",
          "type": "uint256"
        },
        {
          "internalType": "address",
          "name": "seller",
          "type": "address"
        },
        {
          "internalType": "address",
          "name": "buyer",
          "type": "address"
        },
        {
          "internalType": "string",
          "name": "ipfsHash",
          "type": "string"
        },
        {
          "internalType": "string",
          "name": "deliveryIpfsHash",
          "type": "string"
        },
        {
          "internalType": "uint256",
          "name": "price",
          "type": "uint256"
        },
        {
          "internalType": "uint256",
          "name": "listedAt",
          "type": "uint256"
        },
        {
          "internalType": "enum ProductMarket.ProductStatus",
          "name": "status",
          "type": "uint8"
        }
      ],
      "stateMutability": "view",
      "type": "function"
    },
    {
      "inputs": [
        {
          "internalType": "uint256",
          "name": "productId",
          "type": "uint256"
        }
      ],
      "name": "purchaseProduct",
      "outputs": [],
      "stateMutability": "payable",
      "type": "function"
    },
    {
      "inputs": [
        {
          "internalType": "uint256",
          "name": "productId",
          "type": "uint256"
        }
      ],
      "name": "raiseDispute",
      "outputs": [],
      "stateMutability": "nonpayable",
      "type": "function"
    },
    {
      "inputs": [],
      "name": "registry",
      "outputs": [
        {
          "internalType": "contract ReviewerRegistry",
          "name": "",
          "type": "address"
        }
      ],
      "stateMutability": "view",
      "type": "function"
    },
    {
      "inputs": [
        {
          "internalType": "uint256",
          "name": "productId",
          "type": "uint256"
        },
        {
          "internalType": "bool",
          "name": "buyerWins",
          "type": "bool"
        },
        {
          "internalType": "uint256",
          "name": "buyerStakeReturn",
          "type": "uint256"
        },
        {
          "internalType": "uint256",
          "name": "sellerStakeReturn",
          "type": "uint256"
        }
      ],
      "name": "resolveByDispute",
      "outputs": [],
      "stateMutability": "nonpayable",
      "type": "function"
    },
    {
      "inputs": [
        {
          "internalType": "address",
          "name": "_dm",
          "type": "address"
        }
      ],
      "name": "setDisputeManager",
      "outputs": [],
      "stateMutability": "nonpayable",
      "type": "function"
    },
    {
      "inputs": [
        {
          "internalType": "address",
          "name": "_registry",
          "type": "address"
        }
      ],
      "name": "setRegistry",
      "outputs": [],
      "stateMutability": "nonpayable",
      "type": "function"
    },
    {
      "inputs": [
        {
          "internalType": "uint256",
          "name": "amount",
          "type": "uint256"
        }
      ],
      "name": "withdrawDeposit",
      "outputs": [],
      "stateMutability": "nonpayable",
      "type": "function"
    },
    {
      "stateMutability": "payable",
      "type": "receive"
    }
  ],
  "bytecode": "0x608060405234801561001057600080fd5b5060405161465538038061465583398181016040528101906100329190610110565b600073ffffffffffffffffffffffffffffffffffffffff168173ffffffffffffffffffffffffffffffffffffffff16146100a757806000806101000a81548173ffffffffffffffffffffffffffffffffffffffff021916908373ffffffffffffffffffffffffffffffffffffffff1602179055505b5061013d565b600080fd5b600073ffffffffffffffffffffffffffffffffffffffff82169050919050565b60006100dd826100b2565b9050919050565b6100ed816100d2565b81146100f857600080fd5b50565b60008151905061010a816100e4565b92915050565b600060208284031215610126576101256100ad565b5b6000610134848285016100fb565b91505092915050565b6145098061014c6000396000f3fe60806040526004361061016a5760003560e01c8063848b6fb5116100d1578063b9db15b41161008a578063d0e30db011610064578063d0e30db014610577578063e1e158a514610581578063f07172cb146105ac578063f544c3a6146105d557610171565b8063b9db15b4146104c0578063bacdafe0146104fd578063bd8c64fd1461053a57610171565b8063848b6fb51461038c57806389a1b523146103c9578063956501bb14610406578063a5c1674e14610443578063a91ee0dc1461046c578063b294ed131461049557610171565b806338e76a031161012357806338e76a031461028457806351f11259146102a057806352cb26af146102c95780637acc0b20146102f45780637b10399914610338578063843cba131461036357610171565b80630283a1c8146101765780630d3a5a48146101b35780632958bacd146101de5780632cef6575146102075780632de91d8b1461023057806333289a461461025b57610171565b3661017157005b600080fd5b34801561018257600080fd5b5061019d60048036038101906101989190612db8565b610600565b6040516101aa9190612dfe565b60405180910390f35b3480156101bf57600080fd5b506101c8610618565b6040516101d59190612dfe565b60405180910390f35b3480156101ea57600080fd5b5061020560048036038101906102009190612db8565b610622565b005b34801561021357600080fd5b5061022e60048036038101906102299190612eaa565b6106f7565b005b34801561023c57600080fd5b50610245610899565b6040516102529190612dfe565b60405180910390f35b34801561026757600080fd5b50610282600480360381019061027d9190612f0a565b6108a0565b005b61029e60048036038101906102999190612f0a565b610a92565b005b3480156102ac57600080fd5b506102c760048036038101906102c29190612f6f565b610d3b565b005b3480156102d557600080fd5b506102de611219565b6040516102eb9190613094565b60405180910390f35b34801561030057600080fd5b5061031b60048036038101906103169190612f0a565b611395565b60405161032f9897969594939291906131cc565b60405180910390f35b34801561034457600080fd5b5061034d61153a565b60405161035a91906132b7565b60405180910390f35b34801561036f57600080fd5b5061038a60048036038101906103859190612f0a565b61155e565b005b34801561039857600080fd5b506103b360048036038101906103ae9190612db8565b6117fb565b6040516103c09190613094565b60405180910390f35b3480156103d557600080fd5b506103f060048036038101906103eb91906132d2565b6119ad565b6040516103fd9190612dfe565b60405180910390f35b34801561041257600080fd5b5061042d60048036038101906104289190612db8565b611ce3565b60405161043a9190612dfe565b60405180910390f35b34801561044f57600080fd5b5061046a60048036038101906104659190612f0a565b611cfb565b005b34801561047857600080fd5b50610493600480360381019061048e9190612db8565b612544565b005b3480156104a157600080fd5b506104aa612587565b6040516104b79190612dfe565b60405180910390f35b3480156104cc57600080fd5b506104e760048036038101906104e29190612f0a565b612593565b6040516104f49190613451565b60405180910390f35b34801561050957600080fd5b50610524600480360381019061051f9190612db8565b6127ea565b6040516105319190613094565b60405180910390f35b34801561054657600080fd5b50610561600480360381019061055c9190612db8565b61299c565b60405161056e9190613094565b60405180910390f35b61057f612a33565b005b34801561058d57600080fd5b50610596612b1c565b6040516105a39190612dfe565b60405180910390f35b3480156105b857600080fd5b506105d360048036038101906105ce9190612f0a565b612b28565b005b3480156105e157600080fd5b506105ea612ca7565b6040516105f791906134a6565b60405180910390f35b60066020528060005260406000206000915090505481565b6000600254905090565b600073ffffffffffffffffffffffffffffffffffffffff16600160009054906101000a900473ffffffffffffffffffffffffffffffffffffffff1673ffffffffffffffffffffffffffffffffffffffff16146106b3576040517f08c379a00000000000000000000000000000000000000000000000000000000081526004016106aa9061350d565b60405180910390fd5b80600160006101000a81548173ffffffffffffffffffffffffffffffffffffffff021916908373ffffffffffffffffffffffffffffffffffffffff16021790555050565b60006003600085815260200190815260200160002090508060010160009054906101000a900473ffffffffffffffffffffffffffffffffffffffff1673ffffffffffffffffffffffffffffffffffffffff163373ffffffffffffffffffffffffffffffffffffffff16146107a0576040517f08c379a000000000000000000000000000000000000000000000000000000000815260040161079790613579565b60405180910390fd5b600160058111156107b4576107b3613155565b5b8160070160009054906101000a900460ff1660058111156107d8576107d7613155565b5b14610818576040517f08c379a000000000000000000000000000000000000000000000000000000000815260040161080f906135e5565b60405180910390fd5b828282600401918261082b929190613841565b5060028160070160006101000a81548160ff0219169083600581111561085457610853613155565b5b0217905550837f93ab3b862ce2f90030f6e137a2dd9907ee94550e63fa63f7446ca20a381a81c0848460405161088b92919061394d565b60405180910390a250505050565b62093a8081565b6000600660003373ffffffffffffffffffffffffffffffffffffffff1673ffffffffffffffffffffffffffffffffffffffff1681526020019081526020016000205414610922576040517f08c379a0000000000000000000000000000000000000000000000000000000008152600401610919906139e3565b60405180910390fd5b80600560003373ffffffffffffffffffffffffffffffffffffffff1673ffffffffffffffffffffffffffffffffffffffff1681526020019081526020016000205410156109a4576040517f08c379a000000000000000000000000000000000000000000000000000000000815260040161099b90613a4f565b60405180910390fd5b80600560003373ffffffffffffffffffffffffffffffffffffffff1673ffffffffffffffffffffffffffffffffffffffff16815260200190815260200160002060008282546109f39190613a9e565b925050819055503373ffffffffffffffffffffffffffffffffffffffff166108fc829081150290604051600060405180830381858888f19350505050158015610a40573d6000803e3d6000fd5b503373ffffffffffffffffffffffffffffffffffffffff167f7084f5476618d8e60b11ef0d7d3f06914655adb8793e28ff7f018d4c76d505d582604051610a879190612dfe565b60405180910390a250565b600060036000838152602001908152602001600020905060006005811115610abd57610abc613155565b5b8160070160009054906101000a900460ff166005811115610ae157610ae0613155565b5b14610b21576040517f08c379a0000000000000000000000000000000000000000000000000000000008152600401610b1890613b1e565b60405180910390fd5b3373ffffffffffffffffffffffffffffffffffffffff168160010160009054906101000a900473ffffffffffffffffffffffffffffffffffffffff1673ffffffffffffffffffffffffffffffffffffffff1603610bb3576040517f08c379a0000000000000000000000000000000000000000000000000000000008152600401610baa90613b8a565b60405180910390fd5b80600501543414610bf9576040517f08c379a0000000000000000000000000000000000000000000000000000000008152600401610bf090613bf6565b60405180910390fd5b670de0b6b3a7640000600560003373ffffffffffffffffffffffffffffffffffffffff1673ffffffffffffffffffffffffffffffffffffffff168152602001908152602001600020541015610c83576040517f08c379a0000000000000000000000000000000000000000000000000000000008152600401610c7a90613c62565b60405180910390fd5b338160020160006101000a81548173ffffffffffffffffffffffffffffffffffffffff021916908373ffffffffffffffffffffffffffffffffffffffff16021790555060018160070160006101000a81548160ff02191690836005811115610cee57610ced613155565b5b02179055503373ffffffffffffffffffffffffffffffffffffffff16827f9ad4ecfaf27ea0cbeebee0ed92fe15c8a84975f1e3d45ccfc526d7751dcf98ff60405160405180910390a35050565b600160009054906101000a900473ffffffffffffffffffffffffffffffffffffffff1673ffffffffffffffffffffffffffffffffffffffff163373ffffffffffffffffffffffffffffffffffffffff1614610dcb576040517f08c379a0000000000000000000000000000000000000000000000000000000008152600401610dc290613cce565b60405180910390fd5b600060036000868152602001908152602001600020905060046005811115610df657610df5613155565b5b8160070160009054906101000a900460ff166005811115610e1a57610e19613155565b5b14610e5a576040517f08c379a0000000000000000000000000000000000000000000000000000000008152600401610e5190613d3a565b60405180910390fd5b60058160070160006101000a81548160ff02191690836005811115610e8257610e81613155565b5b0217905550600660008260020160009054906101000a900473ffffffffffffffffffffffffffffffffffffffff1673ffffffffffffffffffffffffffffffffffffffff1673ffffffffffffffffffffffffffffffffffffffff1681526020019081526020016000206000815480929190610efb90613d5a565b9190505550600660008260010160009054906101000a900473ffffffffffffffffffffffffffffffffffffffff1673ffffffffffffffffffffffffffffffffffffffff1673ffffffffffffffffffffffffffffffffffffffff1681526020019081526020016000206000815480929190610f7490613d5a565b91905055508315611073578060020160009054906101000a900473ffffffffffffffffffffffffffffffffffffffff1673ffffffffffffffffffffffffffffffffffffffff166108fc848360050154610fcd9190613d83565b9081150290604051600060405180830381858888f19350505050158015610ff8573d6000803e3d6000fd5b50600082111561106e578060010160009054906101000a900473ffffffffffffffffffffffffffffffffffffffff1673ffffffffffffffffffffffffffffffffffffffff166108fc839081150290604051600060405180830381858888f1935050505015801561106c573d6000803e3d6000fd5b505b611212565b60008054906101000a900473ffffffffffffffffffffffffffffffffffffffff1673ffffffffffffffffffffffffffffffffffffffff1663d33988548260010160009054906101000a900473ffffffffffffffffffffffffffffffffffffffff166040518263ffffffff1660e01b81526004016110f09190613db7565b600060405180830381600087803b15801561110a57600080fd5b505af115801561111e573d6000803e3d6000fd5b505050508060010160009054906101000a900473ffffffffffffffffffffffffffffffffffffffff1673ffffffffffffffffffffffffffffffffffffffff166108fc8383600501546111709190613d83565b9081150290604051600060405180830381858888f1935050505015801561119b573d6000803e3d6000fd5b506000831115611211578060020160009054906101000a900473ffffffffffffffffffffffffffffffffffffffff1673ffffffffffffffffffffffffffffffffffffffff166108fc849081150290604051600060405180830381858888f1935050505015801561120f573d6000803e3d6000fd5b505b5b5050505050565b6060600080600190505b600254811161129d57600060058111156112405761123f613155565b5b6003600083815260200190815260200160002060070160009054906101000a900460ff16600581111561127657611275613155565b5b0361128a57818061128690613dd2565b9250505b808061129590613dd2565b915050611223565b5060008167ffffffffffffffff8111156112ba576112b9613610565b5b6040519080825280602002602001820160405280156112e85781602001602082028036833780820191505090505b509050600080600190505b600254811161138b57600060058111156113105761130f613155565b5b6003600083815260200190815260200160002060070160009054906101000a900460ff16600581111561134657611345613155565b5b03611378578083838061135890613dd2565b94508151811061136b5761136a613e1a565b5b6020026020010181815250505b808061138390613dd2565b9150506112f3565b5081935050505090565b60036020528060005260406000206000915090508060000154908060010160009054906101000a900473ffffffffffffffffffffffffffffffffffffffff16908060020160009054906101000a900473ffffffffffffffffffffffffffffffffffffffff169080600301805461140a9061366e565b80601f01602080910402602001604051908101604052809291908181526020018280546114369061366e565b80156114835780601f1061145857610100808354040283529160200191611483565b820191906000526020600020905b81548152906001019060200180831161146657829003601f168201915b5050505050908060040180546114989061366e565b80601f01602080910402602001604051908101604052809291908181526020018280546114c49061366e565b80156115115780601f106114e657610100808354040283529160200191611511565b820191906000526020600020905b8154815290600101906020018083116114f457829003601f168201915b5050505050908060050154908060060154908060070160009054906101000a900460ff16905088565b60008054906101000a900473ffffffffffffffffffffffffffffffffffffffff1681565b60006003600083815260200190815260200160002090508060020160009054906101000a900473ffffffffffffffffffffffffffffffffffffffff1673ffffffffffffffffffffffffffffffffffffffff163373ffffffffffffffffffffffffffffffffffffffff1614611607576040517f08c379a00000000000000000000000000000000000000000000000000000000081526004016115fe90613e95565b60405180910390fd5b6002600581111561161b5761161a613155565b5b8160070160009054906101000a900460ff16600581111561163f5761163e613155565b5b1461167f576040517f08c379a000000000000000000000000000000000000000000000000000000000815260040161167690613f01565b60405180910390fd5b60038160070160006101000a81548160ff021916908360058111156116a7576116a6613155565b5b021790555060008054906101000a900473ffffffffffffffffffffffffffffffffffffffff1673ffffffffffffffffffffffffffffffffffffffff1663d33988548260010160009054906101000a900473ffffffffffffffffffffffffffffffffffffffff166040518263ffffffff1660e01b81526004016117299190613db7565b600060405180830381600087803b15801561174357600080fd5b505af1158015611757573d6000803e3d6000fd5b505050508060010160009054906101000a900473ffffffffffffffffffffffffffffffffffffffff1673ffffffffffffffffffffffffffffffffffffffff166108fc82600501549081150290604051600060405180830381858888f193505050501580156117c9573d6000803e3d6000fd5b50817fe213303292163b95c0f90623eb8bc1f2c15b6d888051c10cc662e78204ff042260405160405180910390a25050565b6060600080600190505b6002548111611899578373ffffffffffffffffffffffffffffffffffffffff166003600083815260200190815260200160002060020160009054906101000a900473ffffffffffffffffffffffffffffffffffffffff1673ffffffffffffffffffffffffffffffffffffffff160361188657818061188290613dd2565b9250505b808061189190613dd2565b915050611805565b5060008167ffffffffffffffff8111156118b6576118b5613610565b5b6040519080825280602002602001820160405280156118e45781602001602082028036833780820191505090505b509050600080600190505b60025481116119a1578573ffffffffffffffffffffffffffffffffffffffff166003600083815260200190815260200160002060020160009054906101000a900473ffffffffffffffffffffffffffffffffffffffff1673ffffffffffffffffffffffffffffffffffffffff160361198e578083838061196e90613dd2565b94508151811061198157611980613e1a565b5b6020026020010181815250505b808061199990613dd2565b9150506118ef565b50819350505050919050565b60008082116119f1576040517f08c379a00000000000000000000000000000000000000000000000000000000081526004016119e890613f6d565b60405180910390fd5b670de0b6b3a7640000600560003373ffffffffffffffffffffffffffffffffffffffff1673ffffffffffffffffffffffffffffffffffffffff168152602001908152602001600020541015611a7b576040517f08c379a0000000000000000000000000000000000000000000000000000000008152600401611a7290613c62565b60405180910390fd5b60026000815480929190611a8e90613dd2565b919050555060405180610100016040528060025481526020013373ffffffffffffffffffffffffffffffffffffffff168152602001600073ffffffffffffffffffffffffffffffffffffffff16815260200185858080601f016020809104026020016040519081016040528093929190818152602001838380828437600081840152601f19601f82011690508083019250505050505050815260200160405180602001604052806000815250815260200183815260200142815260200160006005811115611b5f57611b5e613155565b5b8152506003600060025481526020019081526020016000206000820151816000015560208201518160010160006101000a81548173ffffffffffffffffffffffffffffffffffffffff021916908373ffffffffffffffffffffffffffffffffffffffff16021790555060408201518160020160006101000a81548173ffffffffffffffffffffffffffffffffffffffff021916908373ffffffffffffffffffffffffffffffffffffffff1602179055506060820151816003019081611c249190613f8d565b506080820151816004019081611c3a9190613f8d565b5060a0820151816005015560c0820151816006015560e08201518160070160006101000a81548160ff02191690836005811115611c7a57611c79613155565b5b02179055509050503373ffffffffffffffffffffffffffffffffffffffff166002547f899c32fbd27a24397979837f3acd7bfee4a37ee60b2d2f1a0643a725f39a7a49868686604051611ccf9392919061405f565b60405180910390a360025490509392505050565b60056020528060005260406000206000915090505481565b60006003600083815260200190815260200160002090508060020160009054906101000a900473ffffffffffffffffffffffffffffffffffffffff1673ffffffffffffffffffffffffffffffffffffffff163373ffffffffffffffffffffffffffffffffffffffff161480611dbf57508060010160009054906101000a900473ffffffffffffffffffffffffffffffffffffffff1673ffffffffffffffffffffffffffffffffffffffff163373ffffffffffffffffffffffffffffffffffffffff16145b611dfe576040517f08c379a0000000000000000000000000000000000000000000000000000000008152600401611df5906140dd565b60405180910390fd5b60016005811115611e1257611e11613155565b5b8160070160009054906101000a900460ff166005811115611e3657611e35613155565b5b1480611e77575060026005811115611e5157611e50613155565b5b8160070160009054906101000a900460ff166005811115611e7557611e74613155565b5b145b611eb6576040517f08c379a0000000000000000000000000000000000000000000000000000000008152600401611ead90614149565b60405180910390fd5b6706f05b59d3b20000600560008360020160009054906101000a900473ffffffffffffffffffffffffffffffffffffffff1673ffffffffffffffffffffffffffffffffffffffff1673ffffffffffffffffffffffffffffffffffffffff168152602001908152602001600020541015611f64576040517f08c379a0000000000000000000000000000000000000000000000000000000008152600401611f5b906141db565b60405180910390fd5b6706f05b59d3b20000600560008360010160009054906101000a900473ffffffffffffffffffffffffffffffffffffffff1673ffffffffffffffffffffffffffffffffffffffff1673ffffffffffffffffffffffffffffffffffffffff168152602001908152602001600020541015612012576040517f08c379a00000000000000000000000000000000000000000000000000000000081526004016120099061426d565b60405180910390fd5b6706f05b59d3b20000600560008360020160009054906101000a900473ffffffffffffffffffffffffffffffffffffffff1673ffffffffffffffffffffffffffffffffffffffff1673ffffffffffffffffffffffffffffffffffffffff168152602001908152602001600020600082825461208d9190613a9e565b925050819055506706f05b59d3b20000600560008360010160009054906101000a900473ffffffffffffffffffffffffffffffffffffffff1673ffffffffffffffffffffffffffffffffffffffff1673ffffffffffffffffffffffffffffffffffffffff168152602001908152602001600020600082825461210f9190613a9e565b92505081905550600660008260020160009054906101000a900473ffffffffffffffffffffffffffffffffffffffff1673ffffffffffffffffffffffffffffffffffffffff1673ffffffffffffffffffffffffffffffffffffffff168152602001908152602001600020600081548092919061218a90613dd2565b9190505550600660008260010160009054906101000a900473ffffffffffffffffffffffffffffffffffffffff1673ffffffffffffffffffffffffffffffffffffffff1673ffffffffffffffffffffffffffffffffffffffff168152602001908152602001600020600081548092919061220390613dd2565b919050555060048160070160006101000a81548160ff021916908360058111156122305761222f613155565b5b0217905550600460008260020160009054906101000a900473ffffffffffffffffffffffffffffffffffffffff1673ffffffffffffffffffffffffffffffffffffffff1673ffffffffffffffffffffffffffffffffffffffff168152602001908152602001600020829080600181540180825580915050600190039060005260206000200160009091909190915055600460008260010160009054906101000a900473ffffffffffffffffffffffffffffffffffffffff1673ffffffffffffffffffffffffffffffffffffffff1673ffffffffffffffffffffffffffffffffffffffff1681526020019081526020016000208290806001815401808255809150506001900390600052602060002001600090919091909150556000600160009054906101000a900473ffffffffffffffffffffffffffffffffffffffff1673ffffffffffffffffffffffffffffffffffffffff1660026706f05b59d3b20000612399919061428d565b6040516123a590614300565b60006040518083038185875af1925050503d80600081146123e2576040519150601f19603f3d011682016040523d82523d6000602084013e6123e7565b606091505b505090508061242b576040517f08c379a000000000000000000000000000000000000000000000000000000000815260040161242290614387565b60405180910390fd5b600160009054906101000a900473ffffffffffffffffffffffffffffffffffffffff1673ffffffffffffffffffffffffffffffffffffffff1663f971c773848460020160009054906101000a900473ffffffffffffffffffffffffffffffffffffffff168560010160009054906101000a900473ffffffffffffffffffffffffffffffffffffffff1660006040518563ffffffff1660e01b81526004016124d594939291906143b6565b600060405180830381600087803b1580156124ef57600080fd5b505af1158015612503573d6000803e3d6000fd5b50505050827fcecf7f521976357cd480d0f269cde1c01ac52cd26bf8ea829a216d76b7a56e7b336040516125379190613db7565b60405180910390a2505050565b806000806101000a81548173ffffffffffffffffffffffffffffffffffffffff021916908373ffffffffffffffffffffffffffffffffffffffff16021790555050565b6706f05b59d3b2000081565b61259b612ccd565b6003600083815260200190815260200160002060405180610100016040529081600082015481526020016001820160009054906101000a900473ffffffffffffffffffffffffffffffffffffffff1673ffffffffffffffffffffffffffffffffffffffff1673ffffffffffffffffffffffffffffffffffffffff1681526020016002820160009054906101000a900473ffffffffffffffffffffffffffffffffffffffff1673ffffffffffffffffffffffffffffffffffffffff1673ffffffffffffffffffffffffffffffffffffffff1681526020016003820180546126809061366e565b80601f01602080910402602001604051908101604052809291908181526020018280546126ac9061366e565b80156126f95780601f106126ce576101008083540402835291602001916126f9565b820191906000526020600020905b8154815290600101906020018083116126dc57829003601f168201915b505050505081526020016004820180546127129061366e565b80601f016020809104026020016040519081016040528092919081815260200182805461273e9061366e565b801561278b5780601f106127605761010080835404028352916020019161278b565b820191906000526020600020905b81548152906001019060200180831161276e57829003601f168201915b5050505050815260200160058201548152602001600682015481526020016007820160009054906101000a900460ff1660058111156127cd576127cc613155565b5b60058111156127df576127de613155565b5b815250509050919050565b6060600080600190505b6002548111612888578373ffffffffffffffffffffffffffffffffffffffff166003600083815260200190815260200160002060010160009054906101000a900473ffffffffffffffffffffffffffffffffffffffff1673ffffffffffffffffffffffffffffffffffffffff160361287557818061287190613dd2565b9250505b808061288090613dd2565b9150506127f4565b5060008167ffffffffffffffff8111156128a5576128a4613610565b5b6040519080825280602002602001820160405280156128d35781602001602082028036833780820191505090505b509050600080600190505b6002548111612990578573ffffffffffffffffffffffffffffffffffffffff166003600083815260200190815260200160002060010160009054906101000a900473ffffffffffffffffffffffffffffffffffffffff1673ffffffffffffffffffffffffffffffffffffffff160361297d578083838061295d90613dd2565b9450815181106129705761296f613e1a565b5b6020026020010181815250505b808061298890613dd2565b9150506128de565b50819350505050919050565b6060600460008373ffffffffffffffffffffffffffffffffffffffff1673ffffffffffffffffffffffffffffffffffffffff168152602001908152602001600020805480602002602001604051908101604052809291908181526020018280548015612a2757602002820191906000526020600020905b815481526020019060010190808311612a13575b50505050509050919050565b60003411612a76576040517f08c379a0000000000000000000000000000000000000000000000000000000008152600401612a6d90614447565b60405180910390fd5b34600560003373ffffffffffffffffffffffffffffffffffffffff1673ffffffffffffffffffffffffffffffffffffffff1681526020019081526020016000206000828254612ac59190613d83565b925050819055503373ffffffffffffffffffffffffffffffffffffffff167f2da466a7b24304f47e87fa2e1e5a81b9831ce54fec19055ce277ca2f39ba42c434604051612b129190612dfe565b60405180910390a2565b670de0b6b3a764000081565b60006003600083815260200190815260200160002090508060010160009054906101000a900473ffffffffffffffffffffffffffffffffffffffff1673ffffffffffffffffffffffffffffffffffffffff163373ffffffffffffffffffffffffffffffffffffffff1614612bd1576040517f08c379a0000000000000000000000000000000000000000000000000000000008152600401612bc890613579565b60405180910390fd5b60006005811115612be557612be4613155565b5b8160070160009054906101000a900460ff166005811115612c0957612c08613155565b5b14612c49576040517f08c379a0000000000000000000000000000000000000000000000000000000008152600401612c40906144b3565b60405180910390fd5b60058160070160006101000a81548160ff02191690836005811115612c7157612c70613155565b5b0217905550817fa0a0dd8d8b81f99e806082d40a192d002e26bfc288a6a64fa6c43eafc232ccd860405160405180910390a25050565b600160009054906101000a900473ffffffffffffffffffffffffffffffffffffffff1681565b60405180610100016040528060008152602001600073ffffffffffffffffffffffffffffffffffffffff168152602001600073ffffffffffffffffffffffffffffffffffffffff1681526020016060815260200160608152602001600081526020016000815260200160006005811115612d4a57612d49613155565b5b81525090565b600080fd5b600080fd5b600073ffffffffffffffffffffffffffffffffffffffff82169050919050565b6000612d8582612d5a565b9050919050565b612d9581612d7a565b8114612da057600080fd5b50565b600081359050612db281612d8c565b92915050565b600060208284031215612dce57612dcd612d50565b5b6000612ddc84828501612da3565b91505092915050565b6000819050919050565b612df881612de5565b82525050565b6000602082019050612e136000830184612def565b92915050565b612e2281612de5565b8114612e2d57600080fd5b50565b600081359050612e3f81612e19565b92915050565b600080fd5b600080fd5b600080fd5b60008083601f840112612e6a57612e69612e45565b5b8235905067ffffffffffffffff811115612e8757612e86612e4a565b5b602083019150836001820283011115612ea357612ea2612e4f565b5b9250929050565b600080600060408486031215612ec357612ec2612d50565b5b6000612ed186828701612e30565b935050602084013567ffffffffffffffff811115612ef257612ef1612d55565b5b612efe86828701612e54565b92509250509250925092565b600060208284031215612f2057612f1f612d50565b5b6000612f2e84828501612e30565b91505092915050565b60008115159050919050565b612f4c81612f37565b8114612f5757600080fd5b50565b600081359050612f6981612f43565b92915050565b60008060008060808587031215612f8957612f88612d50565b5b6000612f9787828801612e30565b9450506020612fa887828801612f5a565b9350506040612fb987828801612e30565b9250506060612fca87828801612e30565b91505092959194509250565b600081519050919050565b600082825260208201905092915050565b6000819050602082019050919050565b61300b81612de5565b82525050565b600061301d8383613002565b60208301905092915050565b6000602082019050919050565b600061304182612fd6565b61304b8185612fe1565b935061305683612ff2565b8060005b8381101561308757815161306e8882613011565b975061307983613029565b92505060018101905061305a565b5085935050505092915050565b600060208201905081810360008301526130ae8184613036565b905092915050565b6130bf81612d7a565b82525050565b600081519050919050565b600082825260208201905092915050565b60005b838110156130ff5780820151818401526020810190506130e4565b60008484015250505050565b6000601f19601f8301169050919050565b6000613127826130c5565b61313181856130d0565b93506131418185602086016130e1565b61314a8161310b565b840191505092915050565b7f4e487b7100000000000000000000000000000000000000000000000000000000600052602160045260246000fd5b6006811061319557613194613155565b5b50565b60008190506131a682613184565b919050565b60006131b682613198565b9050919050565b6131c6816131ab565b82525050565b6000610100820190506131e2600083018b612def565b6131ef602083018a6130b6565b6131fc60408301896130b6565b818103606083015261320e818861311c565b90508181036080830152613222818761311c565b905061323160a0830186612def565b61323e60c0830185612def565b61324b60e08301846131bd565b9998505050505050505050565b6000819050919050565b600061327d61327861327384612d5a565b613258565b612d5a565b9050919050565b600061328f82613262565b9050919050565b60006132a182613284565b9050919050565b6132b181613296565b82525050565b60006020820190506132cc60008301846132a8565b92915050565b6000806000604084860312156132eb576132ea612d50565b5b600084013567ffffffffffffffff81111561330957613308612d55565b5b61331586828701612e54565b9350935050602061332886828701612e30565b9150509250925092565b61333b81612d7a565b82525050565b600082825260208201905092915050565b600061335d826130c5565b6133678185613341565b93506133778185602086016130e1565b6133808161310b565b840191505092915050565b613394816131ab565b82525050565b6000610100830160008301516133b36000860182613002565b5060208301516133c66020860182613332565b5060408301516133d96040860182613332565b50606083015184820360608601526133f18282613352565b9150506080830151848203608086015261340b8282613352565b91505060a083015161342060a0860182613002565b5060c083015161343360c0860182613002565b5060e083015161344660e086018261338b565b508091505092915050565b6000602082019050818103600083015261346b818461339a565b905092915050565b600061347e82613262565b9050919050565b600061349082613473565b9050919050565b6134a081613485565b82525050565b60006020820190506134bb6000830184613497565b92915050565b7f416c726561647920736574000000000000000000000000000000000000000000600082015250565b60006134f7600b836130d0565b9150613502826134c1565b602082019050919050565b60006020820190508181036000830152613526816134ea565b9050919050565b7f4e6f74207468652073656c6c6572000000000000000000000000000000000000600082015250565b6000613563600e836130d0565b915061356e8261352d565b602082019050919050565b6000602082019050818103600083015261359281613556565b9050919050565b7f57726f6e67207374617475730000000000000000000000000000000000000000600082015250565b60006135cf600c836130d0565b91506135da82613599565b602082019050919050565b600060208201905081810360008301526135fe816135c2565b9050919050565b600082905092915050565b7f4e487b7100000000000000000000000000000000000000000000000000000000600052604160045260246000fd5b7f4e487b7100000000000000000000000000000000000000000000000000000000600052602260045260246000fd5b6000600282049050600182168061368657607f821691505b6020821081036136995761369861363f565b5b50919050565b60008190508160005260206000209050919050565b60006020601f8301049050919050565b600082821b905092915050565b6000600883026137017fffffffffffffffffffffffffffffffffffffffffffffffffffffffffffffffff826136c4565b61370b86836136c4565b95508019841693508086168417925050509392505050565b600061373e61373961373484612de5565b613258565b612de5565b9050919050565b6000819050919050565b61375883613723565b61376c61376482613745565b8484546136d1565b825550505050565b600090565b613781613774565b61378c81848461374f565b505050565b5b818110156137b0576137a5600082613779565b600181019050613792565b5050565b601f8211156137f5576137c68161369f565b6137cf846136b4565b810160208510156137de578190505b6137f26137ea856136b4565b830182613791565b50505b505050565b600082821c905092915050565b6000613818600019846008026137fa565b1980831691505092915050565b60006138318383613807565b9150826002028217905092915050565b61384b8383613605565b67ffffffffffffffff81111561386457613863613610565b5b61386e825461366e565b6138798282856137b4565b6000601f8311600181146138a85760008415613896578287013590505b6138a08582613825565b865550613908565b601f1984166138b68661369f565b60005b828110156138de578489013582556001820191506020850194506020810190506138b9565b868310156138fb57848901356138f7601f891682613807565b8355505b6001600288020188555050505b50505050505050565b82818337600083830152505050565b600061392c83856130d0565b9350613939838584613911565b6139428361310b565b840190509392505050565b60006020820190508181036000830152613968818486613920565b90509392505050565b7f43616e6e6f7420776974686472617720647572696e672061637469766520646960008201527f7370757465000000000000000000000000000000000000000000000000000000602082015250565b60006139cd6025836130d0565b91506139d882613971565b604082019050919050565b600060208201905081810360008301526139fc816139c0565b9050919050565b7f496e73756666696369656e74206465706f7369742062616c616e636500000000600082015250565b6000613a39601c836130d0565b9150613a4482613a03565b602082019050919050565b60006020820190508181036000830152613a6881613a2c565b9050919050565b7f4e487b7100000000000000000000000000000000000000000000000000000000600052601160045260246000fd5b6000613aa982612de5565b9150613ab483612de5565b9250828203905081811115613acc57613acb613a6f565b5b92915050565b7f4e6f7420617661696c61626c6500000000000000000000000000000000000000600082015250565b6000613b08600d836130d0565b9150613b1382613ad2565b602082019050919050565b60006020820190508181036000830152613b3781613afb565b9050919050565b7f53656c6c65722063616e6e6f7420627579206f776e2070726f64756374000000600082015250565b6000613b74601d836130d0565b9150613b7f82613b3e565b602082019050919050565b60006020820190508181036000830152613ba381613b67565b9050919050565b7f4d7573742073656e642065786163742070726963650000000000000000000000600082015250565b6000613be06015836130d0565b9150613beb82613baa565b602082019050919050565b60006020820190508181036000830152613c0f81613bd3565b9050919050565b7f496e73756666696369656e74206465706f7369743a206e656564203120455448600082015250565b6000613c4c6020836130d0565b9150613c5782613c16565b602082019050919050565b60006020820190508181036000830152613c7b81613c3f565b9050919050565b7f4f6e6c792064697370757465206d616e61676572000000000000000000000000600082015250565b6000613cb86014836130d0565b9150613cc382613c82565b602082019050919050565b60006020820190508181036000830152613ce781613cab565b9050919050565b7f4e6f7420696e2064697370757465000000000000000000000000000000000000600082015250565b6000613d24600e836130d0565b9150613d2f82613cee565b602082019050919050565b60006020820190508181036000830152613d5381613d17565b9050919050565b6000613d6582612de5565b915060008203613d7857613d77613a6f565b5b600182039050919050565b6000613d8e82612de5565b9150613d9983612de5565b9250828201905080821115613db157613db0613a6f565b5b92915050565b6000602082019050613dcc60008301846130b6565b92915050565b6000613ddd82612de5565b91507fffffffffffffffffffffffffffffffffffffffffffffffffffffffffffffffff8203613e0f57613e0e613a6f565b5b600182019050919050565b7f4e487b7100000000000000000000000000000000000000000000000000000000600052603260045260246000fd5b7f4e6f742074686520627579657200000000000000000000000000000000000000600082015250565b6000613e7f600d836130d0565b9150613e8a82613e49565b602082019050919050565b60006020820190508181036000830152613eae81613e72565b9050919050565b7f4e6f742073686970706564207965740000000000000000000000000000000000600082015250565b6000613eeb600f836130d0565b9150613ef682613eb5565b602082019050919050565b60006020820190508181036000830152613f1a81613ede565b9050919050565b7f5072696365206d7573742062652067726561746572207468616e203000000000600082015250565b6000613f57601c836130d0565b9150613f6282613f21565b602082019050919050565b60006020820190508181036000830152613f8681613f4a565b9050919050565b613f96826130c5565b67ffffffffffffffff811115613faf57613fae613610565b5b613fb9825461366e565b613fc48282856137b4565b600060209050601f831160018114613ff75760008415613fe5578287015190505b613fef8582613825565b865550614057565b601f1984166140058661369f565b60005b8281101561402d57848901518255600182019150602085019450602081019050614008565b8683101561404a5784890151614046601f891682613807565b8355505b6001600288020188555050505b505050505050565b6000604082019050818103600083015261407a818587613920565b90506140896020830184612def565b949350505050565b7f4e6f7420696e766f6c76656420696e20746869732070726f6475637400000000600082015250565b60006140c7601c836130d0565b91506140d282614091565b602082019050919050565b600060208201905081810360008301526140f6816140ba565b9050919050565b7f43616e206f6e6c79206469737075746520616674657220707572636861736500600082015250565b6000614133601f836130d0565b915061413e826140fd565b602082019050919050565b6000602082019050818103600083015261416281614126565b9050919050565b7f427579657220696e73756666696369656e74206465706f73697420666f72206460008201527f6973707574650000000000000000000000000000000000000000000000000000602082015250565b60006141c56026836130d0565b91506141d082614169565b604082019050919050565b600060208201905081810360008301526141f4816141b8565b9050919050565b7f53656c6c657220696e73756666696369656e74206465706f73697420666f722060008201527f6469737075746500000000000000000000000000000000000000000000000000602082015250565b60006142576027836130d0565b9150614262826141fb565b604082019050919050565b600060208201905081810360008301526142868161424a565b9050919050565b600061429882612de5565b91506142a383612de5565b92508282026142b181612de5565b915082820484148315176142c8576142c7613a6f565b5b5092915050565b600081905092915050565b50565b60006142ea6000836142cf565b91506142f5826142da565b600082019050919050565b600061430b826142dd565b9150819050919050565b7f4661696c656420746f2073656e64207374616b657320746f204469737075746560008201527f4d616e6167657200000000000000000000000000000000000000000000000000602082015250565b60006143716027836130d0565b915061437c82614315565b604082019050919050565b600060208201905081810360008301526143a081614364565b9050919050565b6143b081612f37565b82525050565b60006080820190506143cb6000830187612def565b6143d860208301866130b6565b6143e560408301856130b6565b6143f260608301846143a7565b95945050505050565b7f4d7573742073656e642045544800000000000000000000000000000000000000600082015250565b6000614431600d836130d0565b915061443c826143fb565b602082019050919050565b6000602082019050818103600083015261446081614424565b9050919050565b7f43616e6e6f742064656c69737420616674657220707572636861736500000000600082015250565b600061449d601c836130d0565b91506144a882614467565b602082019050919050565b600060208201905081810360008301526144cc81614490565b905091905056fea26469706673582212203c25b48a3f777c6040b347655c9ee34f5fcd5bc1aa5b03becc5cce4bd488707e64736f6c634300081c0033",
  "linkReferences": {},
  "deployedLinkReferences": {}
}