{
  "_format": "hh-sol-artifact-1",
  "contractName": "ProductMarket",
  "sourceName": "contracts/ProductMarket.sol",
  "abi": [
    {
      "inputs": [
        {
          "internalType": "address",
          "name": "_registry",
          "type": "address"
        }
      ],
      "stateMutability": "nonpayable",
      "type": "constructor"
    },
    {
      "anonymous": false,
      "inputs": [
        {
          "indexed": true,
          "internalType": "address",
          "name": "user",
          "type": "address"
        },
        {
          "indexed": false,
          "internalType": "uint256",
          "name": "amount",
          "type": "uint256"
        }
      ],
      "name": "Deposited",
      "type": "event"
    },
    {
      "anonymous": false,
      "inputs": [
        {
          "indexed": true,
          "internalType": "uint256",
          "name": "id",
          "type": "uint256"
        }
      ],
      "name": "ProductCompleted",
      "type": "event"
    },
    {
      "anonymous": false,
      "inputs": [
        {
          "indexed": true,
          "internalType": "uint256",
          "name": "id",
          "type": "uint256"
        }
      ],
      "name": "ProductDelisted",
      "type": "event"
    },
    {
      "anonymous": false,
      "inputs": [
        {
          "indexed": true,
          "internalType": "uint256",
          "name": "id",
          "type": "uint256"
        },
        {
          "indexed": false,
          "internalType": "address",
          "name": "raisedBy",
          "type": "address"
        },
        {
          "indexed": false,
          "internalType": "uint8",
          "name": "tier",
          "type": "uint8"
        }
      ],
      "name": "ProductDisputed",
      "type": "event"
    },
    {
      "anonymous": false,
      "inputs": [
        {
          "indexed": true,
          "internalType": "uint256",
          "name": "id",
          "type": "uint256"
        },
        {
          "indexed": true,
          "internalType": "address",
          "name": "seller",
          "type": "address"
        },
        {
          "indexed": false,
          "internalType": "string",
          "name": "ipfsHash",
          "type": "string"
        },
        {
          "indexed": false,
          "internalType": "uint256",
          "name": "price",
          "type": "uint256"
        },
        {
          "indexed": false,
          "internalType": "uint8",
          "name": "tier",
          "type": "uint8"
        }
      ],
      "name": "ProductListed",
      "type": "event"
    },
    {
      "anonymous": false,
      "inputs": [
        {
          "indexed": true,
          "internalType": "uint256",
          "name": "id",
          "type": "uint256"
        },
        {
          "indexed": true,
          "internalType": "address",
          "name": "buyer",
          "type": "address"
        }
      ],
      "name": "ProductPurchased",
      "type": "event"
    },
    {
      "anonymous": false,
      "inputs": [
        {
          "indexed": true,
          "internalType": "uint256",
          "name": "id",
          "type": "uint256"
        },
        {
          "indexed": false,
          "internalType": "string",
          "name": "deliveryIpfsHash",
          "type": "string"
        }
      ],
      "name": "ProductShipped",
      "type": "event"
    },
    {
      "anonymous": false,
      "inputs": [
        {
          "indexed": true,
          "internalType": "address",
          "name": "user",
          "type": "address"
        },
        {
          "indexed": false,
          "internalType": "uint256",
          "name": "amount",
          "type": "uint256"
        }
      ],
      "name": "WalletDeposited",
      "type": "event"
    },
    {
      "anonymous": false,
      "inputs": [
        {
          "indexed": true,
          "internalType": "address",
          "name": "user",
          "type": "address"
        },
        {
          "indexed": false,
          "internalType": "uint256",
          "name": "amount",
          "type": "uint256"
        }
      ],
      "name": "WalletWithdrawn",
      "type": "event"
    },
    {
      "anonymous": false,
      "inputs": [
        {
          "indexed": true,
          "internalType": "address",
          "name": "user",
          "type": "address"
        },
        {
          "indexed": false,
          "internalType": "uint256",
          "name": "amount",
          "type": "uint256"
        }
      ],
      "name": "Withdrawn",
      "type": "event"
    },
    {
      "inputs": [],
      "name": "TIER1_DISPUTE_STAKE",
      "outputs": [
        {
          "internalType": "uint256",
          "name": "",
          "type": "uint256"
        }
      ],
      "stateMutability": "view",
      "type": "function"
    },
    {
      "inputs": [],
      "name": "TIER1_JUROR_STAKE",
      "outputs": [
        {
          "internalType": "uint256",
          "name": "",
          "type": "uint256"
        }
      ],
      "stateMutability": "view",
      "type": "function"
    },
    {
      "inputs": [],
      "name": "TIER1_MIN_DEPOSIT",
      "outputs": [
        {
          "internalType": "uint256",
          "name": "",
          "type": "uint256"
        }
      ],
      "stateMutability": "view",
      "type": "function"
    },
    {
      "inputs": [],
      "name": "TIER1_PLATFORM_FEE",
      "outputs": [
        {
          "internalType": "uint256",
          "name": "",
          "type": "uint256"
        }
      ],
      "stateMutability": "view",
      "type": "function"
    },
    {
      "inputs": [],
      "name": "TIER2_DISPUTE_STAKE",
      "outputs": [
        {
          "internalType": "uint256",
          "name": "",
          "type": "uint256"
        }
      ],
      "stateMutability": "view",
      "type": "function"
    },
    {
      "inputs": [],
      "name": "TIER2_JUROR_STAKE",
      "outputs": [
        {
          "internalType": "uint256",
          "name": "",
          "type": "uint256"
        }
      ],
      "stateMutability": "view",
      "type": "function"
    },
    {
      "inputs": [],
      "name": "TIER2_MIN_DEPOSIT",
      "outputs": [
        {
          "internalType": "uint256",
          "name": "",
          "type": "uint256"
        }
      ],
      "stateMutability": "view",
      "type": "function"
    },
    {
      "inputs": [],
      "name": "TIER2_PLATFORM_FEE",
      "outputs": [
        {
          "internalType": "uint256",
          "name": "",
          "type": "uint256"
        }
      ],
      "stateMutability": "view",
      "type": "function"
    },
    {
      "inputs": [],
      "name": "TIER2_THRESHOLD",
      "outputs": [
        {
          "internalType": "uint256",
          "name": "",
          "type": "uint256"
        }
      ],
      "stateMutability": "view",
      "type": "function"
    },
    {
      "inputs": [],
      "name": "TIER3_DISPUTE_STAKE",
      "outputs": [
        {
          "internalType": "uint256",
          "name": "",
          "type": "uint256"
        }
      ],
      "stateMutability": "view",
      "type": "function"
    },
    {
      "inputs": [],
      "name": "TIER3_JUROR_STAKE",
      "outputs": [
        {
          "internalType": "uint256",
          "name": "",
          "type": "uint256"
        }
      ],
      "stateMutability": "view",
      "type": "function"
    },
    {
      "inputs": [],
      "name": "TIER3_MIN_DEPOSIT",
      "outputs": [
        {
          "internalType": "uint256",
          "name": "",
          "type": "uint256"
        }
      ],
      "stateMutability": "view",
      "type": "function"
    },
    {
      "inputs": [],
      "name": "TIER3_PLATFORM_FEE",
      "outputs": [
        {
          "internalType": "uint256",
          "name": "",
          "type": "uint256"
        }
      ],
      "stateMutability": "view",
      "type": "function"
    },
    {
      "inputs": [],
      "name": "TIER3_THRESHOLD",
      "outputs": [
        {
          "internalType": "uint256",
          "name": "",
          "type": "uint256"
        }
      ],
      "stateMutability": "view",
      "type": "function"
    },
    {
      "inputs": [
        {
          "internalType": "address",
          "name": "",
          "type": "address"
        }
      ],
      "name": "activeDisputeCount",
      "outputs": [
        {
          "internalType": "uint256",
          "name": "",
          "type": "uint256"
        }
      ],
      "stateMutability": "view",
      "type": "function"
    },
    {
      "inputs": [
        {
          "internalType": "uint256",
          "name": "productId",
          "type": "uint256"
        }
      ],
      "name": "confirmReceipt",
      "outputs": [],
      "stateMutability": "nonpayable",
      "type": "function"
    },
    {
      "inputs": [
        {
          "internalType": "uint256",
          "name": "productId",
          "type": "uint256"
        },
        {
          "internalType": "string",
          "name": "deliveryIpfsHash",
          "type": "string"
        }
      ],
      "name": "confirmShipment",
      "outputs": [],
      "stateMutability": "nonpayable",
      "type": "function"
    },
    {
      "inputs": [
        {
          "internalType": "uint256",
          "name": "amount",
          "type": "uint256"
        }
      ],
      "name": "creditPlatformFee",
      "outputs": [],
      "stateMutability": "nonpayable",
      "type": "function"
    },
    {
      "inputs": [
        {
          "internalType": "address",
          "name": "user",
          "type": "address"
        },
        {
          "internalType": "uint256",
          "name": "amount",
          "type": "uint256"
        }
      ],
      "name": "deductWalletForStake",
      "outputs": [],
      "stateMutability": "nonpayable",
      "type": "function"
    },
    {
      "inputs": [
        {
          "internalType": "uint256",
          "name": "productId",
          "type": "uint256"
        }
      ],
      "name": "delistProduct",
      "outputs": [],
      "stateMutability": "nonpayable",
      "type": "function"
    },
    {
      "inputs": [],
      "name": "deposit",
      "outputs": [],
      "stateMutability": "payable",
      "type": "function"
    },
    {
      "inputs": [
        {
          "internalType": "address",
          "name": "",
          "type": "address"
        }
      ],
      "name": "depositBalance",
      "outputs": [
        {
          "internalType": "uint256",
          "name": "",
          "type": "uint256"
        }
      ],
      "stateMutability": "view",
      "type": "function"
    },
    {
      "inputs": [],
      "name": "disputeManager",
      "outputs": [
        {
          "internalType": "contract DisputeManager",
          "name": "",
          "type": "address"
        }
      ],
      "stateMutability": "view",
      "type": "function"
    },
    {
      "inputs": [
        {
          "internalType": "uint8",
          "name": "tier",
          "type": "uint8"
        }
      ],
      "name": "disputeStake",
      "outputs": [
        {
          "internalType": "uint256",
          "name": "",
          "type": "uint256"
        }
      ],
      "stateMutability": "pure",
      "type": "function"
    },
    {
      "inputs": [],
      "name": "getLatestProductId",
      "outputs": [
        {
          "internalType": "uint256",
          "name": "",
          "type": "uint256"
        }
      ],
      "stateMutability": "view",
      "type": "function"
    },
    {
      "inputs": [],
      "name": "getListedProducts",
      "outputs": [
        {
          "internalType": "uint256[]",
          "name": "",
          "type": "uint256[]"
        }
      ],
      "stateMutability": "view",
      "type": "function"
    },
    {
      "inputs": [
        {
          "internalType": "address",
          "name": "party",
          "type": "address"
        }
      ],
      "name": "getMyDisputes",
      "outputs": [
        {
          "internalType": "uint256[]",
          "name": "",
          "type": "uint256[]"
        }
      ],
      "stateMutability": "view",
      "type": "function"
    },
    {
      "inputs": [
        {
          "internalType": "uint256",
          "name": "productId",
          "type": "uint256"
        }
      ],
      "name": "getProduct",
      "outputs": [
        {
          "components": [
            {
              "internalType": "uint256",
              "name": "id",
              "type": "uint256"
            },
            {
              "internalType": "address",
              "name": "seller",
              "type": "address"
            },
            {
              "internalType": "address",
              "name": "buyer",
              "type": "address"
            },
            {
              "internalType": "string",
              "name": "ipfsHash",
              "type": "string"
            },
            {
              "internalType": "string",
              "name": "deliveryIpfsHash",
              "type": "string"
            },
            {
              "internalType": "uint256",
              "name": "price",
              "type": "uint256"
            },
            {
              "internalType": "uint256",
              "name": "listedAt",
              "type": "uint256"
            },
            {
              "internalType": "enum ProductMarket.ProductStatus",
              "name": "status",
              "type": "uint8"
            }
          ],
          "internalType": "struct ProductMarket.Product",
          "name": "",
          "type": "tuple"
        }
      ],
      "stateMutability": "view",
      "type": "function"
    },
    {
      "inputs": [
        {
          "internalType": "uint256",
          "name": "productId",
          "type": "uint256"
        }
      ],
      "name": "getProductTier",
      "outputs": [
        {
          "internalType": "uint8",
          "name": "",
          "type": "uint8"
        }
      ],
      "stateMutability": "view",
      "type": "function"
    },
    {
      "inputs": [
        {
          "internalType": "address",
          "name": "buyer",
          "type": "address"
        }
      ],
      "name": "getProductsByBuyer",
      "outputs": [
        {
          "internalType": "uint256[]",
          "name": "",
          "type": "uint256[]"
        }
      ],
      "stateMutability": "view",
      "type": "function"
    },
    {
      "inputs": [
        {
          "internalType": "address",
          "name": "seller",
          "type": "address"
        }
      ],
      "name": "getProductsBySeller",
      "outputs": [
        {
          "internalType": "uint256[]",
          "name": "",
          "type": "uint256[]"
        }
      ],
      "stateMutability": "view",
      "type": "function"
    },
    {
      "inputs": [
        {
          "internalType": "uint256",
          "name": "price",
          "type": "uint256"
        }
      ],
      "name": "getTier",
      "outputs": [
        {
          "internalType": "uint8",
          "name": "",
          "type": "uint8"
        }
      ],
      "stateMutability": "pure",
      "type": "function"
    },
    {
      "inputs": [
        {
          "internalType": "uint8",
          "name": "tier",
          "type": "uint8"
        }
      ],
      "name": "jurorStake",
      "outputs": [
        {
          "internalType": "uint256",
          "name": "",
          "type": "uint256"
        }
      ],
      "stateMutability": "pure",
      "type": "function"
    },
    {
      "inputs": [
        {
          "internalType": "string",
          "name": "ipfsHash",
          "type": "string"
        },
        {
          "internalType": "uint256",
          "name": "price",
          "type": "uint256"
        }
      ],
      "name": "listProduct",
      "outputs": [
        {
          "internalType": "uint256",
          "name": "",
          "type": "uint256"
        }
      ],
      "stateMutability": "nonpayable",
      "type": "function"
    },
    {
      "inputs": [
        {
          "internalType": "uint8",
          "name": "tier",
          "type": "uint8"
        }
      ],
      "name": "minDeposit",
      "outputs": [
        {
          "internalType": "uint256",
          "name": "",
          "type": "uint256"
        }
      ],
      "stateMutability": "pure",
      "type": "function"
    },
    {
      "inputs": [],
      "name": "platformBalance",
      "outputs": [
        {
          "internalType": "uint256",
          "name": "",
          "type": "uint256"
        }
      ],
      "stateMutability": "view",
      "type": "function"
    },
    {
      "inputs": [
        {
          "internalType": "uint8",
          "name": "tier",
          "type": "uint8"
        }
      ],
      "name": "platformFee",
      "outputs": [
        {
          "internalType": "uint256",
          "name": "",
          "type": "uint256"
        }
      ],
      "stateMutability": "pure",
      "type": "function"
    },
    {
      "inputs": [
        {
          "internalType": "uint256",
          "name": "",
          "type": "uint256"
        }
      ],
      "name": "products",
      "outputs": [
        {
          "internalType": "uint256",
          "name": "id",
          "type": "uint256"
        },
        {
          "internalType": "address",
          "name": "seller",
          "type": "address"
        },
        {
          "internalType": "address",
          "name": "buyer",
          "type": "address"
        },
        {
          "internalType": "string",
          "name": "ipfsHash",
          "type": "string"
        },
        {
          "internalType": "string",
          "name": "deliveryIpfsHash",
          "type": "string"
        },
        {
          "internalType": "uint256",
          "name": "price",
          "type": "uint256"
        },
        {
          "internalType": "uint256",
          "name": "listedAt",
          "type": "uint256"
        },
        {
          "internalType": "enum ProductMarket.ProductStatus",
          "name": "status",
          "type": "uint8"
        }
      ],
      "stateMutability": "view",
      "type": "function"
    },
    {
      "inputs": [
        {
          "internalType": "uint256",
          "name": "productId",
          "type": "uint256"
        }
      ],
      "name": "purchaseProduct",
      "outputs": [],
      "stateMutability": "nonpayable",
      "type": "function"
    },
    {
      "inputs": [
        {
          "internalType": "uint256",
          "name": "productId",
          "type": "uint256"
        }
      ],
      "name": "raiseDispute",
      "outputs": [],
      "stateMutability": "nonpayable",
      "type": "function"
    },
    {
      "inputs": [
        {
          "internalType": "address",
          "name": "user",
          "type": "address"
        },
        {
          "internalType": "uint256",
          "name": "amount",
          "type": "uint256"
        }
      ],
      "name": "refundStake",
      "outputs": [],
      "stateMutability": "nonpayable",
      "type": "function"
    },
    {
      "inputs": [],
      "name": "registry",
      "outputs": [
        {
          "internalType": "contract ReviewerRegistry",
          "name": "",
          "type": "address"
        }
      ],
      "stateMutability": "view",
      "type": "function"
    },
    {
      "inputs": [
        {
          "internalType": "uint256",
          "name": "productId",
          "type": "uint256"
        },
        {
          "internalType": "bool",
          "name": "buyerWins",
          "type": "bool"
        },
        {
          "internalType": "uint256",
          "name": "buyerStakeReturn",
          "type": "uint256"
        },
        {
          "internalType": "uint256",
          "name": "sellerStakeReturn",
          "type": "uint256"
        }
      ],
      "name": "resolveByDispute",
      "outputs": [],
      "stateMutability": "nonpayable",
      "type": "function"
    },
    {
      "inputs": [
        {
          "internalType": "address",
          "name": "",
          "type": "address"
        }
      ],
      "name": "reviewerEarnings",
      "outputs": [
        {
          "internalType": "uint256",
          "name": "",
          "type": "uint256"
        }
      ],
      "stateMutability": "view",
      "type": "function"
    },
    {
      "inputs": [
        {
          "internalType": "address",
          "name": "user",
          "type": "address"
        },
        {
          "internalType": "uint256",
          "name": "stakeAmount",
          "type": "uint256"
        },
        {
          "internalType": "uint256",
          "name": "rewardAmount",
          "type": "uint256"
        }
      ],
      "name": "rewardJuror",
      "outputs": [],
      "stateMutability": "nonpayable",
      "type": "function"
    },
    {
      "inputs": [
        {
          "internalType": "address",
          "name": "_dm",
          "type": "address"
        }
      ],
      "name": "setDisputeManager",
      "outputs": [],
      "stateMutability": "nonpayable",
      "type": "function"
    },
    {
      "inputs": [
        {
          "internalType": "address",
          "name": "_registry",
          "type": "address"
        }
      ],
      "name": "setRegistry",
      "outputs": [],
      "stateMutability": "nonpayable",
      "type": "function"
    },
    {
      "inputs": [
        {
          "internalType": "address",
          "name": "",
          "type": "address"
        }
      ],
      "name": "walletBalance",
      "outputs": [
        {
          "internalType": "uint256",
          "name": "",
          "type": "uint256"
        }
      ],
      "stateMutability": "view",
      "type": "function"
    },
    {
      "inputs": [],
      "name": "walletDeposit",
      "outputs": [],
      "stateMutability": "payable",
      "type": "function"
    },
    {
      "inputs": [
        {
          "internalType": "uint256",
          "name": "amount",
          "type": "uint256"
        }
      ],
      "name": "walletWithdraw",
      "outputs": [],
      "stateMutability": "nonpayable",
      "type": "function"
    },
    {
      "inputs": [
        {
          "internalType": "uint256",
          "name": "amount",
          "type": "uint256"
        }
      ],
      "name": "withdrawDeposit",
      "outputs": [],
      "stateMutability": "nonpayable",
      "type": "function"
    },
    {
      "inputs": [
        {
          "internalType": "address",
          "name": "to",
          "type": "address"
        }
      ],
      "name": "withdrawPlatformFee",
      "outputs": [],
      "stateMutability": "nonpayable",
      "type": "function"
    },
    {
      "stateMutability": "payable",
      "type": "receive"
    }
  ],
  "bytecode": "0x608060405234801561001057600080fd5b5060405161592638038061592683398181016040528101906100329190610110565b600073ffffffffffffffffffffffffffffffffffffffff168173ffffffffffffffffffffffffffffffffffffffff16146100a757806000806101000a81548173ffffffffffffffffffffffffffffffffffffffff021916908373ffffffffffffffffffffffffffffffffffffffff1602179055505b5061013d565b600080fd5b600073ffffffffffffffffffffffffffffffffffffffff82169050919050565b60006100dd826100b2565b9050919050565b6100ed816100d2565b81146100f857600080fd5b50565b60008151905061010a816100e4565b92915050565b600060208284031215610126576101256100ad565b5b6000610134848285016100fb565b91505092915050565b6157da8061014c6000396000f3fe6080604052600436106103035760003560e01c80637bf7514c11610190578063bacdafe0116100dc578063d0e30db011610095578063e6be55831161006f578063e6be558314610be8578063ea9903a114610c13578063f07172cb14610c3e578063f544c3a614610c675761030a565b8063d0e30db014610b76578063d2433de614610b80578063d578980914610bab5761030a565b8063bacdafe014610a2e578063bd8c64fd14610a6b578063c0a2d29914610aa8578063c517694114610ae5578063cb19f0e714610b0e578063cf9cd8f814610b395761030a565b8063a043f60411610149578063ae4bdc6911610123578063ae4bdc6914610970578063b1fec9071461099b578063b2d9d792146109c6578063b9db15b4146109f15761030a565b8063a043f604146108f3578063a5c1674e1461091e578063a91ee0dc146109475761030a565b80637bf7514c146107bd578063843cba13146107e8578063848b6fb51461081157806389a1b5231461084e578063956501bb1461088b5780639e533bee146108c85761030a565b80633af106661161024f57806351f1125911610208578063664bc6c4116101e2578063664bc6c41461071b5780636c72186b146107445780637acc0b201461074e5780637b103999146107925761030a565b806351f112591461069c57806352cb26af146106c557806362a5dbbc146106f05761030a565b80633af10666146105525780633edafbe51461058f57806342dfac72146105ba5780634810d50b146105e55780634c763b15146106225780634f062c5a1461065f5761030a565b806318db74f7116102bc5780632cef6575116102965780632cef6575146104ae57806333289a46146104d7578063350d9b961461050057806338e76a03146105295761030a565b806318db74f71461041d5780631d20c8321461045a5780632958bacd146104855761030a565b80630283a1c81461030f57806303e9770b1461034c578063067d50dc14610375578063086d2c871461039e5780630d3a5a48146103c95780631603378e146103f45761030a565b3661030a57005b600080fd5b34801561031b57600080fd5b5061033660048036038101906103319190613f45565b610c92565b6040516103439190613f8b565b60405180910390f35b34801561035857600080fd5b50610373600480360381019061036e9190613fd2565b610caa565b005b34801561038157600080fd5b5061039c60048036038101906103979190614012565b610e16565b005b3480156103aa57600080fd5b506103b3610ec2565b6040516103c09190613f8b565b60405180910390f35b3480156103d557600080fd5b506103de610ecf565b6040516103eb9190613f8b565b60405180910390f35b34801561040057600080fd5b5061041b60048036038101906104169190613fd2565b610ed9565b005b34801561042957600080fd5b50610444600480360381019061043f9190614078565b610fc3565b6040516104519190613f8b565b60405180910390f35b34801561046657600080fd5b5061046f61100c565b60405161047c9190613f8b565b60405180910390f35b34801561049157600080fd5b506104ac60048036038101906104a79190613f45565b611018565b005b3480156104ba57600080fd5b506104d560048036038101906104d0919061410a565b6110ed565b005b3480156104e357600080fd5b506104fe60048036038101906104f99190614012565b61128f565b005b34801561050c57600080fd5b5061052760048036038101906105229190614012565b611481565b005b34801561053557600080fd5b50610550600480360381019061054b9190614012565b6115f1565b005b34801561055e57600080fd5b5061057960048036038101906105749190613f45565b611977565b6040516105869190613f8b565b60405180910390f35b34801561059b57600080fd5b506105a461198f565b6040516105b19190613f8b565b60405180910390f35b3480156105c657600080fd5b506105cf61199b565b6040516105dc9190613f8b565b60405180910390f35b3480156105f157600080fd5b5061060c60048036038101906106079190614078565b6119a8565b6040516106199190613f8b565b60405180910390f35b34801561062e57600080fd5b5061064960048036038101906106449190614012565b6119f1565b6040516106569190614179565b60405180910390f35b34801561066b57600080fd5b5061068660048036038101906106819190614012565b611a19565b6040516106939190614179565b60405180910390f35b3480156106a857600080fd5b506106c360048036038101906106be91906141cc565b611a57565b005b3480156106d157600080fd5b506106da611f71565b6040516106e791906142f1565b60405180910390f35b3480156106fc57600080fd5b506107056120ed565b6040516107129190613f8b565b60405180910390f35b34801561072757600080fd5b50610742600480360381019061073d9190614313565b6120f3565b005b61074c61223f565b005b34801561075a57600080fd5b5061077560048036038101906107709190614012565b612328565b60405161078998979695949392919061447c565b60405180910390f35b34801561079e57600080fd5b506107a76124cd565b6040516107b49190614567565b60405180910390f35b3480156107c957600080fd5b506107d26124f1565b6040516107df9190613f8b565b60405180910390f35b3480156107f457600080fd5b5061080f600480360381019061080a9190614012565b6124fd565b005b34801561081d57600080fd5b5061083860048036038101906108339190613f45565b6127a9565b60405161084591906142f1565b60405180910390f35b34801561085a57600080fd5b5061087560048036038101906108709190614582565b61295b565b6040516108829190613f8b565b60405180910390f35b34801561089757600080fd5b506108b260048036038101906108ad9190613f45565b612cd1565b6040516108bf9190613f8b565b60405180910390f35b3480156108d457600080fd5b506108dd612ce9565b6040516108ea9190613f8b565b60405180910390f35b3480156108ff57600080fd5b50610908612cf5565b6040516109159190613f8b565b60405180910390f35b34801561092a57600080fd5b5061094560048036038101906109409190614012565b612d01565b005b34801561095357600080fd5b5061096e60048036038101906109699190613f45565b6134c1565b005b34801561097c57600080fd5b50610985613504565b6040516109929190613f8b565b60405180910390f35b3480156109a757600080fd5b506109b0613510565b6040516109bd9190613f8b565b60405180910390f35b3480156109d257600080fd5b506109db61351c565b6040516109e89190613f8b565b60405180910390f35b3480156109fd57600080fd5b50610a186004803603810190610a139190614012565b613528565b604051610a259190614701565b60405180910390f35b348015610a3a57600080fd5b50610a556004803603810190610a509190613f45565b61377f565b604051610a6291906142f1565b60405180910390f35b348015610a7757600080fd5b50610a926004803603810190610a8d9190613f45565b613931565b604051610a9f91906142f1565b60405180910390f35b348015610ab457600080fd5b50610acf6004803603810190610aca9190614078565b6139c8565b604051610adc9190613f8b565b60405180910390f35b348015610af157600080fd5b50610b0c6004803603810190610b079190613f45565b613a11565b005b348015610b1a57600080fd5b50610b23613a6b565b604051610b309190613f8b565b60405180910390f35b348015610b4557600080fd5b50610b606004803603810190610b5b9190613f45565b613a77565b604051610b6d9190613f8b565b60405180910390f35b610b7e613a8f565b005b348015610b8c57600080fd5b50610b95613b78565b604051610ba29190613f8b565b60405180910390f35b348015610bb757600080fd5b50610bd26004803603810190610bcd9190614078565b613b84565b604051610bdf9190613f8b565b60405180910390f35b348015610bf457600080fd5b50610bfd613bcd565b604051610c0a9190613f8b565b60405180910390f35b348015610c1f57600080fd5b50610c28613bd9565b604051610c359190613f8b565b60405180910390f35b348015610c4a57600080fd5b50610c656004803603810190610c609190614012565b613be5565b005b348015610c7357600080fd5b50610c7c613d64565b604051610c899190614756565b60405180910390f35b60076020528060005260406000206000915090505481565b600160009054906101000a900473ffffffffffffffffffffffffffffffffffffffff1673ffffffffffffffffffffffffffffffffffffffff163373ffffffffffffffffffffffffffffffffffffffff1614610d3a576040517f08c379a0000000000000000000000000000000000000000000000000000000008152600401610d31906147bd565b60405180910390fd5b80600660008473ffffffffffffffffffffffffffffffffffffffff1673ffffffffffffffffffffffffffffffffffffffff168152602001908152602001600020541015610dbc576040517f08c379a0000000000000000000000000000000000000000000000000000000008152600401610db39061484f565b60405180910390fd5b80600660008473ffffffffffffffffffffffffffffffffffffffff1673ffffffffffffffffffffffffffffffffffffffff1681526020019081526020016000206000828254610e0b919061489e565b925050819055505050565b600160009054906101000a900473ffffffffffffffffffffffffffffffffffffffff1673ffffffffffffffffffffffffffffffffffffffff163373ffffffffffffffffffffffffffffffffffffffff1614610ea6576040517f08c379a0000000000000000000000000000000000000000000000000000000008152600401610e9d906147bd565b60405180910390fd5b8060096000828254610eb891906148d2565b9250508190555050565b6801158e460913d0000081565b6000600254905090565b600160009054906101000a900473ffffffffffffffffffffffffffffffffffffffff1673ffffffffffffffffffffffffffffffffffffffff163373ffffffffffffffffffffffffffffffffffffffff1614610f69576040517f08c379a0000000000000000000000000000000000000000000000000000000008152600401610f60906147bd565b60405180910390fd5b80600660008473ffffffffffffffffffffffffffffffffffffffff1673ffffffffffffffffffffffffffffffffffffffff1681526020019081526020016000206000828254610fb891906148d2565b925050819055505050565b600060038260ff1603610fe0576703782dace9d900009050611007565b60028260ff1603610ffb57670214e8348c4f00009050611007565b67016345785d8a000090505b919050565b670de0b6b3a764000081565b600073ffffffffffffffffffffffffffffffffffffffff16600160009054906101000a900473ffffffffffffffffffffffffffffffffffffffff1673ffffffffffffffffffffffffffffffffffffffff16146110a9576040517f08c379a00000000000000000000000000000000000000000000000000000000081526004016110a090614952565b60405180910390fd5b80600160006101000a81548173ffffffffffffffffffffffffffffffffffffffff021916908373ffffffffffffffffffffffffffffffffffffffff16021790555050565b60006003600085815260200190815260200160002090508060010160009054906101000a900473ffffffffffffffffffffffffffffffffffffffff1673ffffffffffffffffffffffffffffffffffffffff163373ffffffffffffffffffffffffffffffffffffffff1614611196576040517f08c379a000000000000000000000000000000000000000000000000000000000815260040161118d906149be565b60405180910390fd5b600160058111156111aa576111a9614405565b5b8160070160009054906101000a900460ff1660058111156111ce576111cd614405565b5b1461120e576040517f08c379a000000000000000000000000000000000000000000000000000000000815260040161120590614a2a565b60405180910390fd5b8282826004019182611221929190614c86565b5060028160070160006101000a81548160ff0219169083600581111561124a57611249614405565b5b0217905550837f93ab3b862ce2f90030f6e137a2dd9907ee94550e63fa63f7446ca20a381a81c08484604051611281929190614d92565b60405180910390a250505050565b6000600760003373ffffffffffffffffffffffffffffffffffffffff1673ffffffffffffffffffffffffffffffffffffffff1681526020019081526020016000205414611311576040517f08c379a000000000000000000000000000000000000000000000000000000000815260040161130890614e28565b60405180910390fd5b80600560003373ffffffffffffffffffffffffffffffffffffffff1673ffffffffffffffffffffffffffffffffffffffff168152602001908152602001600020541015611393576040517f08c379a000000000000000000000000000000000000000000000000000000000815260040161138a90614e94565b60405180910390fd5b80600560003373ffffffffffffffffffffffffffffffffffffffff1673ffffffffffffffffffffffffffffffffffffffff16815260200190815260200160002060008282546113e2919061489e565b925050819055503373ffffffffffffffffffffffffffffffffffffffff166108fc829081150290604051600060405180830381858888f1935050505015801561142f573d6000803e3d6000fd5b503373ffffffffffffffffffffffffffffffffffffffff167f7084f5476618d8e60b11ef0d7d3f06914655adb8793e28ff7f018d4c76d505d5826040516114769190613f8b565b60405180910390a250565b80600660003373ffffffffffffffffffffffffffffffffffffffff1673ffffffffffffffffffffffffffffffffffffffff168152602001908152602001600020541015611503576040517f08c379a00000000000000000000000000000000000000000000000000000000081526004016114fa90614f00565b60405180910390fd5b80600660003373ffffffffffffffffffffffffffffffffffffffff1673ffffffffffffffffffffffffffffffffffffffff1681526020019081526020016000206000828254611552919061489e565b925050819055503373ffffffffffffffffffffffffffffffffffffffff166108fc829081150290604051600060405180830381858888f1935050505015801561159f573d6000803e3d6000fd5b503373ffffffffffffffffffffffffffffffffffffffff167f898bacbefbd03f6ddce022f4e6e3b697fb171041da547ee8edd17ccecbddabf5826040516115e69190613f8b565b60405180910390a250565b60006003600083815260200190815260200160002090506000600581111561161c5761161b614405565b5b8160070160009054906101000a900460ff1660058111156116405761163f614405565b5b14611680576040517f08c379a000000000000000000000000000000000000000000000000000000000815260040161167790614f6c565b60405180910390fd5b3373ffffffffffffffffffffffffffffffffffffffff168160010160009054906101000a900473ffffffffffffffffffffffffffffffffffffffff1673ffffffffffffffffffffffffffffffffffffffff1603611712576040517f08c379a000000000000000000000000000000000000000000000000000000000815260040161170990614fd8565b60405180910390fd5b8060050154600660003373ffffffffffffffffffffffffffffffffffffffff1673ffffffffffffffffffffffffffffffffffffffff168152602001908152602001600020541015611798576040517f08c379a000000000000000000000000000000000000000000000000000000000815260040161178f90614f00565b60405180910390fd5b60006117a78260050154611a19565b905060006117b4826139c8565b905080600560003373ffffffffffffffffffffffffffffffffffffffff1673ffffffffffffffffffffffffffffffffffffffff16815260200190815260200160002054101561180283613d8a565b6040516020016118129190615080565b60405160208183030381529060405290611862576040517f08c379a000000000000000000000000000000000000000000000000000000000815260040161185991906150a2565b60405180910390fd5b508260050154600660003373ffffffffffffffffffffffffffffffffffffffff1673ffffffffffffffffffffffffffffffffffffffff16815260200190815260200160002060008282546118b6919061489e565b92505081905550338360020160006101000a81548173ffffffffffffffffffffffffffffffffffffffff021916908373ffffffffffffffffffffffffffffffffffffffff16021790555060018360070160006101000a81548160ff0219169083600581111561192857611927614405565b5b02179055503373ffffffffffffffffffffffffffffffffffffffff16847f9ad4ecfaf27ea0cbeebee0ed92fe15c8a84975f1e3d45ccfc526d7751dcf98ff60405160405180910390a350505050565b60086020528060005260406000206000915090505481565b670214e8348c4f000081565b68056bc75e2d6310000081565b600060038260ff16036119c557670853a0d2313c000090506119ec565b60028260ff16036119e0576702c68af0bb14000090506119ec565b67016345785d8a000090505b919050565b6000611a126003600084815260200190815260200160002060050154611a19565b9050919050565b600068056bc75e2d631000008210611a345760039050611a52565b6801158e460913d000008210611a4d5760029050611a52565b600190505b919050565b600160009054906101000a900473ffffffffffffffffffffffffffffffffffffffff1673ffffffffffffffffffffffffffffffffffffffff163373ffffffffffffffffffffffffffffffffffffffff1614611ae7576040517f08c379a0000000000000000000000000000000000000000000000000000000008152600401611ade906147bd565b60405180910390fd5b600060036000868152602001908152602001600020905060046005811115611b1257611b11614405565b5b8160070160009054906101000a900460ff166005811115611b3657611b35614405565b5b14611b76576040517f08c379a0000000000000000000000000000000000000000000000000000000008152600401611b6d90615110565b60405180910390fd5b60058160070160006101000a81548160ff02191690836005811115611b9e57611b9d614405565b5b0217905550600760008260020160009054906101000a900473ffffffffffffffffffffffffffffffffffffffff1673ffffffffffffffffffffffffffffffffffffffff1673ffffffffffffffffffffffffffffffffffffffff1681526020019081526020016000206000815480929190611c1790615130565b9190505550600760008260010160009054906101000a900473ffffffffffffffffffffffffffffffffffffffff1673ffffffffffffffffffffffffffffffffffffffff1673ffffffffffffffffffffffffffffffffffffffff1681526020019081526020016000206000815480929190611c9090615130565b91905055508315611dad57828160050154611cab91906148d2565b600660008360020160009054906101000a900473ffffffffffffffffffffffffffffffffffffffff1673ffffffffffffffffffffffffffffffffffffffff1673ffffffffffffffffffffffffffffffffffffffff1681526020019081526020016000206000828254611d1d91906148d2565b925050819055506000821115611da85781600660008360010160009054906101000a900473ffffffffffffffffffffffffffffffffffffffff1673ffffffffffffffffffffffffffffffffffffffff1673ffffffffffffffffffffffffffffffffffffffff1681526020019081526020016000206000828254611da091906148d2565b925050819055505b611f6a565b60008054906101000a900473ffffffffffffffffffffffffffffffffffffffff1673ffffffffffffffffffffffffffffffffffffffff1663d33988548260010160009054906101000a900473ffffffffffffffffffffffffffffffffffffffff166040518263ffffffff1660e01b8152600401611e2a9190615159565b600060405180830381600087803b158015611e4457600080fd5b505af1158015611e58573d6000803e3d6000fd5b50505050818160050154611e6c91906148d2565b600660008360010160009054906101000a900473ffffffffffffffffffffffffffffffffffffffff1673ffffffffffffffffffffffffffffffffffffffff1673ffffffffffffffffffffffffffffffffffffffff1681526020019081526020016000206000828254611ede91906148d2565b925050819055506000831115611f695782600660008360020160009054906101000a900473ffffffffffffffffffffffffffffffffffffffff1673ffffffffffffffffffffffffffffffffffffffff1673ffffffffffffffffffffffffffffffffffffffff1681526020019081526020016000206000828254611f6191906148d2565b925050819055505b5b5050505050565b6060600080600190505b6002548111611ff55760006005811115611f9857611f97614405565b5b6003600083815260200190815260200160002060070160009054906101000a900460ff166005811115611fce57611fcd614405565b5b03611fe2578180611fde90615174565b9250505b8080611fed90615174565b915050611f7b565b5060008167ffffffffffffffff81111561201257612011614a55565b5b6040519080825280602002602001820160405280156120405781602001602082028036833780820191505090505b509050600080600190505b60025481116120e3576000600581111561206857612067614405565b5b6003600083815260200190815260200160002060070160009054906101000a900460ff16600581111561209e5761209d614405565b5b036120d057808383806120b090615174565b9450815181106120c3576120c26151bc565b5b6020026020010181815250505b80806120db90615174565b91505061204b565b5081935050505090565b60095481565b600160009054906101000a900473ffffffffffffffffffffffffffffffffffffffff1673ffffffffffffffffffffffffffffffffffffffff163373ffffffffffffffffffffffffffffffffffffffff1614612183576040517f08c379a000000000000000000000000000000000000000000000000000000000815260040161217a906147bd565b60405180910390fd5b80600860008573ffffffffffffffffffffffffffffffffffffffff1673ffffffffffffffffffffffffffffffffffffffff16815260200190815260200160002060008282546121d291906148d2565b9250508190555080826121e591906148d2565b600660008573ffffffffffffffffffffffffffffffffffffffff1673ffffffffffffffffffffffffffffffffffffffff168152602001908152602001600020600082825461223391906148d2565b92505081905550505050565b60003411612282576040517f08c379a000000000000000000000000000000000000000000000000000000000815260040161227990615237565b60405180910390fd5b34600660003373ffffffffffffffffffffffffffffffffffffffff1673ffffffffffffffffffffffffffffffffffffffff16815260200190815260200160002060008282546122d191906148d2565b925050819055503373ffffffffffffffffffffffffffffffffffffffff167fd9b20f443b0fd05e64219895cd75b43aec3d5ad3775f474452fdca540c84566b3460405161231e9190613f8b565b60405180910390a2565b60036020528060005260406000206000915090508060000154908060010160009054906101000a900473ffffffffffffffffffffffffffffffffffffffff16908060020160009054906101000a900473ffffffffffffffffffffffffffffffffffffffff169080600301805461239d90614ab3565b80601f01602080910402602001604051908101604052809291908181526020018280546123c990614ab3565b80156124165780601f106123eb57610100808354040283529160200191612416565b820191906000526020600020905b8154815290600101906020018083116123f957829003601f168201915b50505050509080600401805461242b90614ab3565b80601f016020809104026020016040519081016040528092919081815260200182805461245790614ab3565b80156124a45780601f10612479576101008083540402835291602001916124a4565b820191906000526020600020905b81548152906001019060200180831161248757829003601f168201915b5050505050908060050154908060060154908060070160009054906101000a900460ff16905088565b60008054906101000a900473ffffffffffffffffffffffffffffffffffffffff1681565b6706f05b59d3b2000081565b60006003600083815260200190815260200160002090508060020160009054906101000a900473ffffffffffffffffffffffffffffffffffffffff1673ffffffffffffffffffffffffffffffffffffffff163373ffffffffffffffffffffffffffffffffffffffff16146125a6576040517f08c379a000000000000000000000000000000000000000000000000000000000815260040161259d906152a3565b60405180910390fd5b600260058111156125ba576125b9614405565b5b8160070160009054906101000a900460ff1660058111156125de576125dd614405565b5b1461261e576040517f08c379a00000000000000000000000000000000000000000000000000000000081526004016126159061530f565b60405180910390fd5b60038160070160006101000a81548160ff0219169083600581111561264657612645614405565b5b021790555060008054906101000a900473ffffffffffffffffffffffffffffffffffffffff1673ffffffffffffffffffffffffffffffffffffffff1663d33988548260010160009054906101000a900473ffffffffffffffffffffffffffffffffffffffff166040518263ffffffff1660e01b81526004016126c89190615159565b600060405180830381600087803b1580156126e257600080fd5b505af11580156126f6573d6000803e3d6000fd5b505050508060050154600660008360010160009054906101000a900473ffffffffffffffffffffffffffffffffffffffff1673ffffffffffffffffffffffffffffffffffffffff1673ffffffffffffffffffffffffffffffffffffffff168152602001908152602001600020600082825461277191906148d2565b92505081905550817fe213303292163b95c0f90623eb8bc1f2c15b6d888051c10cc662e78204ff042260405160405180910390a25050565b6060600080600190505b6002548111612847578373ffffffffffffffffffffffffffffffffffffffff166003600083815260200190815260200160002060020160009054906101000a900473ffffffffffffffffffffffffffffffffffffffff1673ffffffffffffffffffffffffffffffffffffffff160361283457818061283090615174565b9250505b808061283f90615174565b9150506127b3565b5060008167ffffffffffffffff81111561286457612863614a55565b5b6040519080825280602002602001820160405280156128925781602001602082028036833780820191505090505b509050600080600190505b600254811161294f578573ffffffffffffffffffffffffffffffffffffffff166003600083815260200190815260200160002060020160009054906101000a900473ffffffffffffffffffffffffffffffffffffffff1673ffffffffffffffffffffffffffffffffffffffff160361293c578083838061291c90615174565b94508151811061292f5761292e6151bc565b5b6020026020010181815250505b808061294790615174565b91505061289d565b50819350505050919050565b600080821161299f576040517f08c379a00000000000000000000000000000000000000000000000000000000081526004016129969061537b565b60405180910390fd5b60006129aa83611a19565b905060006129b7826139c8565b905080600560003373ffffffffffffffffffffffffffffffffffffffff1673ffffffffffffffffffffffffffffffffffffffff168152602001908152602001600020541015612a0583613d8a565b604051602001612a159190615080565b60405160208183030381529060405290612a65576040517f08c379a0000000000000000000000000000000000000000000000000000000008152600401612a5c91906150a2565b60405180910390fd5b5060026000815480929190612a7990615174565b919050555060405180610100016040528060025481526020013373ffffffffffffffffffffffffffffffffffffffff168152602001600073ffffffffffffffffffffffffffffffffffffffff16815260200187878080601f016020809104026020016040519081016040528093929190818152602001838380828437600081840152601f19601f82011690508083019250505050505050815260200160405180602001604052806000815250815260200185815260200142815260200160006005811115612b4a57612b49614405565b5b8152506003600060025481526020019081526020016000206000820151816000015560208201518160010160006101000a81548173ffffffffffffffffffffffffffffffffffffffff021916908373ffffffffffffffffffffffffffffffffffffffff16021790555060408201518160020160006101000a81548173ffffffffffffffffffffffffffffffffffffffff021916908373ffffffffffffffffffffffffffffffffffffffff1602179055506060820151816003019081612c0f919061539b565b506080820151816004019081612c25919061539b565b5060a0820151816005015560c0820151816006015560e08201518160070160006101000a81548160ff02191690836005811115612c6557612c64614405565b5b02179055509050503373ffffffffffffffffffffffffffffffffffffffff166002547ecc4c828c88236b66319d7b14974d8cd78f36dfd5020092df3b8ccb608e684b88888887604051612cbb949392919061546d565b60405180910390a3600254925050509392505050565b60056020528060005260406000206000915090505481565b670de0b6b3a764000081565b67016345785d8a000081565b60006003600083815260200190815260200160002090508060020160009054906101000a900473ffffffffffffffffffffffffffffffffffffffff1673ffffffffffffffffffffffffffffffffffffffff163373ffffffffffffffffffffffffffffffffffffffff161480612dc557508060010160009054906101000a900473ffffffffffffffffffffffffffffffffffffffff1673ffffffffffffffffffffffffffffffffffffffff163373ffffffffffffffffffffffffffffffffffffffff16145b612e04576040517f08c379a0000000000000000000000000000000000000000000000000000000008152600401612dfb906154f9565b60405180910390fd5b60016005811115612e1857612e17614405565b5b8160070160009054906101000a900460ff166005811115612e3c57612e3b614405565b5b1480612e7d575060026005811115612e5757612e56614405565b5b8160070160009054906101000a900460ff166005811115612e7b57612e7a614405565b5b145b612ebc576040517f08c379a0000000000000000000000000000000000000000000000000000000008152600401612eb390615565565b60405180910390fd5b6000612ecb8260050154611a19565b90506000612ed882613b84565b905080600560008560020160009054906101000a900473ffffffffffffffffffffffffffffffffffffffff1673ffffffffffffffffffffffffffffffffffffffff1673ffffffffffffffffffffffffffffffffffffffff168152602001908152602001600020541015612f4a83613d8a565b604051602001612f5a91906155f7565b60405160208183030381529060405290612faa576040517f08c379a0000000000000000000000000000000000000000000000000000000008152600401612fa191906150a2565b60405180910390fd5b5080600560008560010160009054906101000a900473ffffffffffffffffffffffffffffffffffffffff1673ffffffffffffffffffffffffffffffffffffffff1673ffffffffffffffffffffffffffffffffffffffff16815260200190815260200160002054101561301b83613d8a565b60405160200161302b919061568b565b6040516020818303038152906040529061307b576040517f08c379a000000000000000000000000000000000000000000000000000000000815260040161307291906150a2565b60405180910390fd5b5080600560008560020160009054906101000a900473ffffffffffffffffffffffffffffffffffffffff1673ffffffffffffffffffffffffffffffffffffffff1673ffffffffffffffffffffffffffffffffffffffff16815260200190815260200160002060008282546130ef919061489e565b9250508190555080600560008560010160009054906101000a900473ffffffffffffffffffffffffffffffffffffffff1673ffffffffffffffffffffffffffffffffffffffff1673ffffffffffffffffffffffffffffffffffffffff1681526020019081526020016000206000828254613169919061489e565b92505081905550600760008460020160009054906101000a900473ffffffffffffffffffffffffffffffffffffffff1673ffffffffffffffffffffffffffffffffffffffff1673ffffffffffffffffffffffffffffffffffffffff16815260200190815260200160002060008154809291906131e490615174565b9190505550600760008460010160009054906101000a900473ffffffffffffffffffffffffffffffffffffffff1673ffffffffffffffffffffffffffffffffffffffff1673ffffffffffffffffffffffffffffffffffffffff168152602001908152602001600020600081548092919061325d90615174565b919050555060048360070160006101000a81548160ff0219169083600581111561328a57613289614405565b5b0217905550600460008460020160009054906101000a900473ffffffffffffffffffffffffffffffffffffffff1673ffffffffffffffffffffffffffffffffffffffff1673ffffffffffffffffffffffffffffffffffffffff168152602001908152602001600020849080600181540180825580915050600190039060005260206000200160009091909190915055600460008460010160009054906101000a900473ffffffffffffffffffffffffffffffffffffffff1673ffffffffffffffffffffffffffffffffffffffff1673ffffffffffffffffffffffffffffffffffffffff168152602001908152602001600020849080600181540180825580915050600190039060005260206000200160009091909190915055600160009054906101000a900473ffffffffffffffffffffffffffffffffffffffff1673ffffffffffffffffffffffffffffffffffffffff16634930d557858560020160009054906101000a900473ffffffffffffffffffffffffffffffffffffffff168660010160009054906101000a900473ffffffffffffffffffffffffffffffffffffffff166000876040518663ffffffff1660e01b815260040161344f9594939291906156bc565b600060405180830381600087803b15801561346957600080fd5b505af115801561347d573d6000803e3d6000fd5b50505050837f2f326d8511d543b66c556290d524075a53d6629b2cb2e1fd560ec86be437798d33846040516134b392919061570f565b60405180910390a250505050565b806000806101000a81548173ffffffffffffffffffffffffffffffffffffffff021916908373ffffffffffffffffffffffffffffffffffffffff16021790555050565b6729a2241af62c000081565b6703782dace9d9000081565b676f05b59d3b20000081565b613530613e5a565b6003600083815260200190815260200160002060405180610100016040529081600082015481526020016001820160009054906101000a900473ffffffffffffffffffffffffffffffffffffffff1673ffffffffffffffffffffffffffffffffffffffff1673ffffffffffffffffffffffffffffffffffffffff1681526020016002820160009054906101000a900473ffffffffffffffffffffffffffffffffffffffff1673ffffffffffffffffffffffffffffffffffffffff1673ffffffffffffffffffffffffffffffffffffffff16815260200160038201805461361590614ab3565b80601f016020809104026020016040519081016040528092919081815260200182805461364190614ab3565b801561368e5780601f106136635761010080835404028352916020019161368e565b820191906000526020600020905b81548152906001019060200180831161367157829003601f168201915b505050505081526020016004820180546136a790614ab3565b80601f01602080910402602001604051908101604052809291908181526020018280546136d390614ab3565b80156137205780601f106136f557610100808354040283529160200191613720565b820191906000526020600020905b81548152906001019060200180831161370357829003601f168201915b5050505050815260200160058201548152602001600682015481526020016007820160009054906101000a900460ff16600581111561376257613761614405565b5b600581111561377457613773614405565b5b815250509050919050565b6060600080600190505b600254811161381d578373ffffffffffffffffffffffffffffffffffffffff166003600083815260200190815260200160002060010160009054906101000a900473ffffffffffffffffffffffffffffffffffffffff1673ffffffffffffffffffffffffffffffffffffffff160361380a57818061380690615174565b9250505b808061381590615174565b915050613789565b5060008167ffffffffffffffff81111561383a57613839614a55565b5b6040519080825280602002602001820160405280156138685781602001602082028036833780820191505090505b509050600080600190505b6002548111613925578573ffffffffffffffffffffffffffffffffffffffff166003600083815260200190815260200160002060010160009054906101000a900473ffffffffffffffffffffffffffffffffffffffff1673ffffffffffffffffffffffffffffffffffffffff160361391257808383806138f290615174565b945081518110613905576139046151bc565b5b6020026020010181815250505b808061391d90615174565b915050613873565b50819350505050919050565b6060600460008373ffffffffffffffffffffffffffffffffffffffff1673ffffffffffffffffffffffffffffffffffffffff1681526020019081526020016000208054806020026020016040519081016040528092919081815260200182805480156139bc57602002820191906000526020600020905b8154815260200190600101908083116139a8575b50505050509050919050565b600060038260ff16036139e557676f05b59d3b2000009050613a0c565b60028260ff1603613a00576729a2241af62c00009050613a0c565b670de0b6b3a764000090505b919050565b6000600954905060006009819055508173ffffffffffffffffffffffffffffffffffffffff166108fc829081150290604051600060405180830381858888f19350505050158015613a66573d6000803e3d6000fd5b505050565b670853a0d2313c000081565b60066020528060005260406000206000915090505481565b60003411613ad2576040517f08c379a0000000000000000000000000000000000000000000000000000000008152600401613ac990615237565b60405180910390fd5b34600560003373ffffffffffffffffffffffffffffffffffffffff1673ffffffffffffffffffffffffffffffffffffffff1681526020019081526020016000206000828254613b2191906148d2565b925050819055503373ffffffffffffffffffffffffffffffffffffffff167f2da466a7b24304f47e87fa2e1e5a81b9831ce54fec19055ce277ca2f39ba42c434604051613b6e9190613f8b565b60405180910390a2565b6729a2241af62c000081565b600060038260ff1603613ba1576729a2241af62c00009050613bc8565b60028260ff1603613bbc57670de0b6b3a76400009050613bc8565b6706f05b59d3b2000090505b919050565b6702c68af0bb14000081565b67016345785d8a000081565b60006003600083815260200190815260200160002090508060010160009054906101000a900473ffffffffffffffffffffffffffffffffffffffff1673ffffffffffffffffffffffffffffffffffffffff163373ffffffffffffffffffffffffffffffffffffffff1614613c8e576040517f08c379a0000000000000000000000000000000000000000000000000000000008152600401613c85906149be565b60405180910390fd5b60006005811115613ca257613ca1614405565b5b8160070160009054906101000a900460ff166005811115613cc657613cc5614405565b5b14613d06576040517f08c379a0000000000000000000000000000000000000000000000000000000008152600401613cfd90615784565b60405180910390fd5b60058160070160006101000a81548160ff02191690836005811115613d2e57613d2d614405565b5b0217905550817fa0a0dd8d8b81f99e806082d40a192d002e26bfc288a6a64fa6c43eafc232ccd860405160405180910390a25050565b600160009054906101000a900473ffffffffffffffffffffffffffffffffffffffff1681565b606060038260ff1603613dd4576040518060400160405280601681526020017f3320286e656564203820455448206465706f73697429000000000000000000008152509050613e55565b60028260ff1603613e1c576040518060400160405280601681526020017f3220286e656564203320455448206465706f73697429000000000000000000008152509050613e55565b6040518060400160405280601681526020017f3120286e656564203120455448206465706f736974290000000000000000000081525090505b919050565b60405180610100016040528060008152602001600073ffffffffffffffffffffffffffffffffffffffff168152602001600073ffffffffffffffffffffffffffffffffffffffff1681526020016060815260200160608152602001600081526020016000815260200160006005811115613ed757613ed6614405565b5b81525090565b600080fd5b600080fd5b600073ffffffffffffffffffffffffffffffffffffffff82169050919050565b6000613f1282613ee7565b9050919050565b613f2281613f07565b8114613f2d57600080fd5b50565b600081359050613f3f81613f19565b92915050565b600060208284031215613f5b57613f5a613edd565b5b6000613f6984828501613f30565b91505092915050565b6000819050919050565b613f8581613f72565b82525050565b6000602082019050613fa06000830184613f7c565b92915050565b613faf81613f72565b8114613fba57600080fd5b50565b600081359050613fcc81613fa6565b92915050565b60008060408385031215613fe957613fe8613edd565b5b6000613ff785828601613f30565b925050602061400885828601613fbd565b9150509250929050565b60006020828403121561402857614027613edd565b5b600061403684828501613fbd565b91505092915050565b600060ff82169050919050565b6140558161403f565b811461406057600080fd5b50565b6000813590506140728161404c565b92915050565b60006020828403121561408e5761408d613edd565b5b600061409c84828501614063565b91505092915050565b600080fd5b600080fd5b600080fd5b60008083601f8401126140ca576140c96140a5565b5b8235905067ffffffffffffffff8111156140e7576140e66140aa565b5b602083019150836001820283011115614103576141026140af565b5b9250929050565b60008060006040848603121561412357614122613edd565b5b600061413186828701613fbd565b935050602084013567ffffffffffffffff81111561415257614151613ee2565b5b61415e868287016140b4565b92509250509250925092565b6141738161403f565b82525050565b600060208201905061418e600083018461416a565b92915050565b60008115159050919050565b6141a981614194565b81146141b457600080fd5b50565b6000813590506141c6816141a0565b92915050565b600080600080608085870312156141e6576141e5613edd565b5b60006141f487828801613fbd565b9450506020614205878288016141b7565b935050604061421687828801613fbd565b925050606061422787828801613fbd565b91505092959194509250565b600081519050919050565b600082825260208201905092915050565b6000819050602082019050919050565b61426881613f72565b82525050565b600061427a838361425f565b60208301905092915050565b6000602082019050919050565b600061429e82614233565b6142a8818561423e565b93506142b38361424f565b8060005b838110156142e45781516142cb888261426e565b97506142d683614286565b9250506001810190506142b7565b5085935050505092915050565b6000602082019050818103600083015261430b8184614293565b905092915050565b60008060006060848603121561432c5761432b613edd565b5b600061433a86828701613f30565b935050602061434b86828701613fbd565b925050604061435c86828701613fbd565b9150509250925092565b61436f81613f07565b82525050565b600081519050919050565b600082825260208201905092915050565b60005b838110156143af578082015181840152602081019050614394565b60008484015250505050565b6000601f19601f8301169050919050565b60006143d782614375565b6143e18185614380565b93506143f1818560208601614391565b6143fa816143bb565b840191505092915050565b7f4e487b7100000000000000000000000000000000000000000000000000000000600052602160045260246000fd5b6006811061444557614444614405565b5b50565b600081905061445682614434565b919050565b600061446682614448565b9050919050565b6144768161445b565b82525050565b600061010082019050614492600083018b613f7c565b61449f602083018a614366565b6144ac6040830189614366565b81810360608301526144be81886143cc565b905081810360808301526144d281876143cc565b90506144e160a0830186613f7c565b6144ee60c0830185613f7c565b6144fb60e083018461446d565b9998505050505050505050565b6000819050919050565b600061452d61452861452384613ee7565b614508565b613ee7565b9050919050565b600061453f82614512565b9050919050565b600061455182614534565b9050919050565b61456181614546565b82525050565b600060208201905061457c6000830184614558565b92915050565b60008060006040848603121561459b5761459a613edd565b5b600084013567ffffffffffffffff8111156145b9576145b8613ee2565b5b6145c5868287016140b4565b935093505060206145d886828701613fbd565b9150509250925092565b6145eb81613f07565b82525050565b600082825260208201905092915050565b600061460d82614375565b61461781856145f1565b9350614627818560208601614391565b614630816143bb565b840191505092915050565b6146448161445b565b82525050565b600061010083016000830151614663600086018261425f565b50602083015161467660208601826145e2565b50604083015161468960408601826145e2565b50606083015184820360608601526146a18282614602565b915050608083015184820360808601526146bb8282614602565b91505060a08301516146d060a086018261425f565b5060c08301516146e360c086018261425f565b5060e08301516146f660e086018261463b565b508091505092915050565b6000602082019050818103600083015261471b818461464a565b905092915050565b600061472e82614512565b9050919050565b600061474082614723565b9050919050565b61475081614735565b82525050565b600060208201905061476b6000830184614747565b92915050565b7f4f6e6c792064697370757465206d616e61676572000000000000000000000000600082015250565b60006147a7601483614380565b91506147b282614771565b602082019050919050565b600060208201905081810360008301526147d68161479a565b9050919050565b7f496e73756666696369656e742077616c6c65742062616c616e636520666f722060008201527f7374616b65000000000000000000000000000000000000000000000000000000602082015250565b6000614839602583614380565b9150614844826147dd565b604082019050919050565b600060208201905081810360008301526148688161482c565b9050919050565b7f4e487b7100000000000000000000000000000000000000000000000000000000600052601160045260246000fd5b60006148a982613f72565b91506148b483613f72565b92508282039050818111156148cc576148cb61486f565b5b92915050565b60006148dd82613f72565b91506148e883613f72565b9250828201905080821115614900576148ff61486f565b5b92915050565b7f416c726561647920736574000000000000000000000000000000000000000000600082015250565b600061493c600b83614380565b915061494782614906565b602082019050919050565b6000602082019050818103600083015261496b8161492f565b9050919050565b7f4e6f74207468652073656c6c6572000000000000000000000000000000000000600082015250565b60006149a8600e83614380565b91506149b382614972565b602082019050919050565b600060208201905081810360008301526149d78161499b565b9050919050565b7f57726f6e67207374617475730000000000000000000000000000000000000000600082015250565b6000614a14600c83614380565b9150614a1f826149de565b602082019050919050565b60006020820190508181036000830152614a4381614a07565b9050919050565b600082905092915050565b7f4e487b7100000000000000000000000000000000000000000000000000000000600052604160045260246000fd5b7f4e487b7100000000000000000000000000000000000000000000000000000000600052602260045260246000fd5b60006002820490506001821680614acb57607f821691505b602082108103614ade57614add614a84565b5b50919050565b60008190508160005260206000209050919050565b60006020601f8301049050919050565b600082821b905092915050565b600060088302614b467fffffffffffffffffffffffffffffffffffffffffffffffffffffffffffffffff82614b09565b614b508683614b09565b95508019841693508086168417925050509392505050565b6000614b83614b7e614b7984613f72565b614508565b613f72565b9050919050565b6000819050919050565b614b9d83614b68565b614bb1614ba982614b8a565b848454614b16565b825550505050565b600090565b614bc6614bb9565b614bd1818484614b94565b505050565b5b81811015614bf557614bea600082614bbe565b600181019050614bd7565b5050565b601f821115614c3a57614c0b81614ae4565b614c1484614af9565b81016020851015614c23578190505b614c37614c2f85614af9565b830182614bd6565b50505b505050565b600082821c905092915050565b6000614c5d60001984600802614c3f565b1980831691505092915050565b6000614c768383614c4c565b9150826002028217905092915050565b614c908383614a4a565b67ffffffffffffffff811115614ca957614ca8614a55565b5b614cb38254614ab3565b614cbe828285614bf9565b6000601f831160018114614ced5760008415614cdb578287013590505b614ce58582614c6a565b865550614d4d565b601f198416614cfb86614ae4565b60005b82811015614d2357848901358255600182019150602085019450602081019050614cfe565b86831015614d405784890135614d3c601f891682614c4c565b8355505b6001600288020188555050505b50505050505050565b82818337600083830152505050565b6000614d718385614380565b9350614d7e838584614d56565b614d87836143bb565b840190509392505050565b60006020820190508181036000830152614dad818486614d65565b90509392505050565b7f43616e6e6f7420776974686472617720647572696e672061637469766520646960008201527f7370757465000000000000000000000000000000000000000000000000000000602082015250565b6000614e12602583614380565b9150614e1d82614db6565b604082019050919050565b60006020820190508181036000830152614e4181614e05565b9050919050565b7f496e73756666696369656e74206465706f7369742062616c616e636500000000600082015250565b6000614e7e601c83614380565b9150614e8982614e48565b602082019050919050565b60006020820190508181036000830152614ead81614e71565b9050919050565b7f496e73756666696369656e742077616c6c65742062616c616e63650000000000600082015250565b6000614eea601b83614380565b9150614ef582614eb4565b602082019050919050565b60006020820190508181036000830152614f1981614edd565b9050919050565b7f4e6f7420617661696c61626c6500000000000000000000000000000000000000600082015250565b6000614f56600d83614380565b9150614f6182614f20565b602082019050919050565b60006020820190508181036000830152614f8581614f49565b9050919050565b7f53656c6c65722063616e6e6f7420627579206f776e2070726f64756374000000600082015250565b6000614fc2601d83614380565b9150614fcd82614f8c565b602082019050919050565b60006020820190508181036000830152614ff181614fb5565b9050919050565b600081905092915050565b7f496e73756666696369656e74206465706f73697420666f722054696572200000600082015250565b6000615039601e83614ff8565b915061504482615003565b601e82019050919050565b600061505a82614375565b6150648185614ff8565b9350615074818560208601614391565b80840191505092915050565b600061508b8261502c565b9150615097828461504f565b915081905092915050565b600060208201905081810360008301526150bc81846143cc565b905092915050565b7f4e6f7420696e2064697370757465000000000000000000000000000000000000600082015250565b60006150fa600e83614380565b9150615105826150c4565b602082019050919050565b60006020820190508181036000830152615129816150ed565b9050919050565b600061513b82613f72565b91506000820361514e5761514d61486f565b5b600182039050919050565b600060208201905061516e6000830184614366565b92915050565b600061517f82613f72565b91507fffffffffffffffffffffffffffffffffffffffffffffffffffffffffffffffff82036151b1576151b061486f565b5b600182019050919050565b7f4e487b7100000000000000000000000000000000000000000000000000000000600052603260045260246000fd5b7f4d7573742073656e642045544800000000000000000000000000000000000000600082015250565b6000615221600d83614380565b915061522c826151eb565b602082019050919050565b6000602082019050818103600083015261525081615214565b9050919050565b7f4e6f742074686520627579657200000000000000000000000000000000000000600082015250565b600061528d600d83614380565b915061529882615257565b602082019050919050565b600060208201905081810360008301526152bc81615280565b9050919050565b7f4e6f742073686970706564207965740000000000000000000000000000000000600082015250565b60006152f9600f83614380565b9150615304826152c3565b602082019050919050565b60006020820190508181036000830152615328816152ec565b9050919050565b7f5072696365206d7573742062652067726561746572207468616e203000000000600082015250565b6000615365601c83614380565b91506153708261532f565b602082019050919050565b6000602082019050818103600083015261539481615358565b9050919050565b6153a482614375565b67ffffffffffffffff8111156153bd576153bc614a55565b5b6153c78254614ab3565b6153d2828285614bf9565b600060209050601f83116001811461540557600084156153f3578287015190505b6153fd8582614c6a565b865550615465565b601f19841661541386614ae4565b60005b8281101561543b57848901518255600182019150602085019450602081019050615416565b868310156154585784890151615454601f891682614c4c565b8355505b6001600288020188555050505b505050505050565b60006060820190508181036000830152615488818688614d65565b90506154976020830185613f7c565b6154a4604083018461416a565b95945050505050565b7f4e6f7420696e766f6c7665640000000000000000000000000000000000000000600082015250565b60006154e3600c83614380565b91506154ee826154ad565b602082019050919050565b60006020820190508181036000830152615512816154d6565b9050919050565b7f43616e206f6e6c79206469737075746520616674657220707572636861736500600082015250565b600061554f601f83614380565b915061555a82615519565b602082019050919050565b6000602082019050818103600083015261557e81615542565b9050919050565b7f427579657220696e73756666696369656e74206465706f73697420666f72205460008201527f6965722000000000000000000000000000000000000000000000000000000000602082015250565b60006155e1602483614ff8565b91506155ec82615585565b602482019050919050565b6000615602826155d4565b915061560e828461504f565b915081905092915050565b7f53656c6c657220696e73756666696369656e74206465706f73697420666f722060008201527f5469657220000000000000000000000000000000000000000000000000000000602082015250565b6000615675602583614ff8565b915061568082615619565b602582019050919050565b600061569682615668565b91506156a2828461504f565b915081905092915050565b6156b681614194565b82525050565b600060a0820190506156d16000830188613f7c565b6156de6020830187614366565b6156eb6040830186614366565b6156f860608301856156ad565b615705608083018461416a565b9695505050505050565b60006040820190506157246000830185614366565b615731602083018461416a565b9392505050565b7f43616e6e6f742064656c69737420616674657220707572636861736500000000600082015250565b600061576e601c83614380565b915061577982615738565b602082019050919050565b6000602082019050818103600083015261579d81615761565b905091905056fea264697066735822122083de60503ec7364db81271b172a0b277077dae6c4e0edcf4eafc45714d0bbe9164736f6c634300081c0033",
  "linkReferences": {},
  "deployedLinkReferences": {}
}