{
  "_format": "hh-sol-artifact-1",
  "contractName": "ProductMarket",
  "sourceName": "contracts/ProductMarket.sol",
  "abi": [
    {
      "inputs": [
        {
          "internalType": "address",
          "name": "_registry",
          "type": "address"
        }
      ],
      "stateMutability": "nonpayable",
      "type": "constructor"
    },
    {
      "anonymous": false,
      "inputs": [
        {
          "indexed": true,
          "internalType": "address",
          "name": "user",
          "type": "address"
        },
        {
          "indexed": false,
          "internalType": "uint256",
          "name": "amount",
          "type": "uint256"
        }
      ],
      "name": "Deposited",
      "type": "event"
    },
    {
      "anonymous": false,
      "inputs": [
        {
          "indexed": true,
          "internalType": "uint256",
          "name": "id",
          "type": "uint256"
        }
      ],
      "name": "ProductCompleted",
      "type": "event"
    },
    {
      "anonymous": false,
      "inputs": [
        {
          "indexed": true,
          "internalType": "uint256",
          "name": "id",
          "type": "uint256"
        }
      ],
      "name": "ProductDelisted",
      "type": "event"
    },
    {
      "anonymous": false,
      "inputs": [
        {
          "indexed": true,
          "internalType": "uint256",
          "name": "id",
          "type": "uint256"
        },
        {
          "indexed": false,
          "internalType": "address",
          "name": "raisedBy",
          "type": "address"
        }
      ],
      "name": "ProductDisputed",
      "type": "event"
    },
    {
      "anonymous": false,
      "inputs": [
        {
          "indexed": true,
          "internalType": "uint256",
          "name": "id",
          "type": "uint256"
        },
        {
          "indexed": true,
          "internalType": "address",
          "name": "seller",
          "type": "address"
        },
        {
          "indexed": false,
          "internalType": "string",
          "name": "ipfsHash",
          "type": "string"
        },
        {
          "indexed": false,
          "internalType": "uint256",
          "name": "price",
          "type": "uint256"
        }
      ],
      "name": "ProductListed",
      "type": "event"
    },
    {
      "anonymous": false,
      "inputs": [
        {
          "indexed": true,
          "internalType": "uint256",
          "name": "id",
          "type": "uint256"
        },
        {
          "indexed": true,
          "internalType": "address",
          "name": "buyer",
          "type": "address"
        }
      ],
      "name": "ProductPurchased",
      "type": "event"
    },
    {
      "anonymous": false,
      "inputs": [
        {
          "indexed": true,
          "internalType": "uint256",
          "name": "id",
          "type": "uint256"
        },
        {
          "indexed": false,
          "internalType": "string",
          "name": "deliveryIpfsHash",
          "type": "string"
        }
      ],
      "name": "ProductShipped",
      "type": "event"
    },
    {
      "anonymous": false,
      "inputs": [
        {
          "indexed": true,
          "internalType": "address",
          "name": "user",
          "type": "address"
        },
        {
          "indexed": false,
          "internalType": "uint256",
          "name": "amount",
          "type": "uint256"
        }
      ],
      "name": "WalletDeposited",
      "type": "event"
    },
    {
      "anonymous": false,
      "inputs": [
        {
          "indexed": true,
          "internalType": "address",
          "name": "user",
          "type": "address"
        },
        {
          "indexed": false,
          "internalType": "uint256",
          "name": "amount",
          "type": "uint256"
        }
      ],
      "name": "WalletWithdrawn",
      "type": "event"
    },
    {
      "anonymous": false,
      "inputs": [
        {
          "indexed": true,
          "internalType": "address",
          "name": "user",
          "type": "address"
        },
        {
          "indexed": false,
          "internalType": "uint256",
          "name": "amount",
          "type": "uint256"
        }
      ],
      "name": "Withdrawn",
      "type": "event"
    },
    {
      "inputs": [],
      "name": "DISPUTE_STAKE",
      "outputs": [
        {
          "internalType": "uint256",
          "name": "",
          "type": "uint256"
        }
      ],
      "stateMutability": "view",
      "type": "function"
    },
    {
      "inputs": [],
      "name": "MIN_DEPOSIT",
      "outputs": [
        {
          "internalType": "uint256",
          "name": "",
          "type": "uint256"
        }
      ],
      "stateMutability": "view",
      "type": "function"
    },
    {
      "inputs": [
        {
          "internalType": "address",
          "name": "",
          "type": "address"
        }
      ],
      "name": "activeDisputeCount",
      "outputs": [
        {
          "internalType": "uint256",
          "name": "",
          "type": "uint256"
        }
      ],
      "stateMutability": "view",
      "type": "function"
    },
    {
      "inputs": [
        {
          "internalType": "uint256",
          "name": "productId",
          "type": "uint256"
        }
      ],
      "name": "confirmReceipt",
      "outputs": [],
      "stateMutability": "nonpayable",
      "type": "function"
    },
    {
      "inputs": [
        {
          "internalType": "uint256",
          "name": "productId",
          "type": "uint256"
        },
        {
          "internalType": "string",
          "name": "deliveryIpfsHash",
          "type": "string"
        }
      ],
      "name": "confirmShipment",
      "outputs": [],
      "stateMutability": "nonpayable",
      "type": "function"
    },
    {
      "inputs": [
        {
          "internalType": "uint256",
          "name": "amount",
          "type": "uint256"
        }
      ],
      "name": "creditPlatformFee",
      "outputs": [],
      "stateMutability": "nonpayable",
      "type": "function"
    },
    {
      "inputs": [
        {
          "internalType": "address",
          "name": "user",
          "type": "address"
        },
        {
          "internalType": "uint256",
          "name": "amount",
          "type": "uint256"
        }
      ],
      "name": "deductWalletForStake",
      "outputs": [],
      "stateMutability": "nonpayable",
      "type": "function"
    },
    {
      "inputs": [
        {
          "internalType": "uint256",
          "name": "productId",
          "type": "uint256"
        }
      ],
      "name": "delistProduct",
      "outputs": [],
      "stateMutability": "nonpayable",
      "type": "function"
    },
    {
      "inputs": [],
      "name": "deposit",
      "outputs": [],
      "stateMutability": "payable",
      "type": "function"
    },
    {
      "inputs": [
        {
          "internalType": "address",
          "name": "",
          "type": "address"
        }
      ],
      "name": "depositBalance",
      "outputs": [
        {
          "internalType": "uint256",
          "name": "",
          "type": "uint256"
        }
      ],
      "stateMutability": "view",
      "type": "function"
    },
    {
      "inputs": [],
      "name": "disputeManager",
      "outputs": [
        {
          "internalType": "contract DisputeManager",
          "name": "",
          "type": "address"
        }
      ],
      "stateMutability": "view",
      "type": "function"
    },
    {
      "inputs": [],
      "name": "getLatestProductId",
      "outputs": [
        {
          "internalType": "uint256",
          "name": "",
          "type": "uint256"
        }
      ],
      "stateMutability": "view",
      "type": "function"
    },
    {
      "inputs": [],
      "name": "getListedProducts",
      "outputs": [
        {
          "internalType": "uint256[]",
          "name": "",
          "type": "uint256[]"
        }
      ],
      "stateMutability": "view",
      "type": "function"
    },
    {
      "inputs": [
        {
          "internalType": "address",
          "name": "party",
          "type": "address"
        }
      ],
      "name": "getMyDisputes",
      "outputs": [
        {
          "internalType": "uint256[]",
          "name": "",
          "type": "uint256[]"
        }
      ],
      "stateMutability": "view",
      "type": "function"
    },
    {
      "inputs": [
        {
          "internalType": "uint256",
          "name": "productId",
          "type": "uint256"
        }
      ],
      "name": "getProduct",
      "outputs": [
        {
          "components": [
            {
              "internalType": "uint256",
              "name": "id",
              "type": "uint256"
            },
            {
              "internalType": "address",
              "name": "seller",
              "type": "address"
            },
            {
              "internalType": "address",
              "name": "buyer",
              "type": "address"
            },
            {
              "internalType": "string",
              "name": "ipfsHash",
              "type": "string"
            },
            {
              "internalType": "string",
              "name": "deliveryIpfsHash",
              "type": "string"
            },
            {
              "internalType": "uint256",
              "name": "price",
              "type": "uint256"
            },
            {
              "internalType": "uint256",
              "name": "listedAt",
              "type": "uint256"
            },
            {
              "internalType": "enum ProductMarket.ProductStatus",
              "name": "status",
              "type": "uint8"
            }
          ],
          "internalType": "struct ProductMarket.Product",
          "name": "",
          "type": "tuple"
        }
      ],
      "stateMutability": "view",
      "type": "function"
    },
    {
      "inputs": [
        {
          "internalType": "address",
          "name": "buyer",
          "type": "address"
        }
      ],
      "name": "getProductsByBuyer",
      "outputs": [
        {
          "internalType": "uint256[]",
          "name": "",
          "type": "uint256[]"
        }
      ],
      "stateMutability": "view",
      "type": "function"
    },
    {
      "inputs": [
        {
          "internalType": "address",
          "name": "seller",
          "type": "address"
        }
      ],
      "name": "getProductsBySeller",
      "outputs": [
        {
          "internalType": "uint256[]",
          "name": "",
          "type": "uint256[]"
        }
      ],
      "stateMutability": "view",
      "type": "function"
    },
    {
      "inputs": [
        {
          "internalType": "string",
          "name": "ipfsHash",
          "type": "string"
        },
        {
          "internalType": "uint256",
          "name": "price",
          "type": "uint256"
        }
      ],
      "name": "listProduct",
      "outputs": [
        {
          "internalType": "uint256",
          "name": "",
          "type": "uint256"
        }
      ],
      "stateMutability": "nonpayable",
      "type": "function"
    },
    {
      "inputs": [],
      "name": "platformBalance",
      "outputs": [
        {
          "internalType": "uint256",
          "name": "",
          "type": "uint256"
        }
      ],
      "stateMutability": "view",
      "type": "function"
    },
    {
      "inputs": [
        {
          "internalType": "uint256",
          "name": "",
          "type": "uint256"
        }
      ],
      "name": "products",
      "outputs": [
        {
          "internalType": "uint256",
          "name": "id",
          "type": "uint256"
        },
        {
          "internalType": "address",
          "name": "seller",
          "type": "address"
        },
        {
          "internalType": "address",
          "name": "buyer",
          "type": "address"
        },
        {
          "internalType": "string",
          "name": "ipfsHash",
          "type": "string"
        },
        {
          "internalType": "string",
          "name": "deliveryIpfsHash",
          "type": "string"
        },
        {
          "internalType": "uint256",
          "name": "price",
          "type": "uint256"
        },
        {
          "internalType": "uint256",
          "name": "listedAt",
          "type": "uint256"
        },
        {
          "internalType": "enum ProductMarket.ProductStatus",
          "name": "status",
          "type": "uint8"
        }
      ],
      "stateMutability": "view",
      "type": "function"
    },
    {
      "inputs": [
        {
          "internalType": "uint256",
          "name": "productId",
          "type": "uint256"
        }
      ],
      "name": "purchaseProduct",
      "outputs": [],
      "stateMutability": "nonpayable",
      "type": "function"
    },
    {
      "inputs": [
        {
          "internalType": "uint256",
          "name": "productId",
          "type": "uint256"
        }
      ],
      "name": "raiseDispute",
      "outputs": [],
      "stateMutability": "nonpayable",
      "type": "function"
    },
    {
      "inputs": [
        {
          "internalType": "address",
          "name": "user",
          "type": "address"
        },
        {
          "internalType": "uint256",
          "name": "amount",
          "type": "uint256"
        }
      ],
      "name": "refundStake",
      "outputs": [],
      "stateMutability": "nonpayable",
      "type": "function"
    },
    {
      "inputs": [],
      "name": "registry",
      "outputs": [
        {
          "internalType": "contract ReviewerRegistry",
          "name": "",
          "type": "address"
        }
      ],
      "stateMutability": "view",
      "type": "function"
    },
    {
      "inputs": [
        {
          "internalType": "uint256",
          "name": "productId",
          "type": "uint256"
        },
        {
          "internalType": "bool",
          "name": "buyerWins",
          "type": "bool"
        },
        {
          "internalType": "uint256",
          "name": "buyerStakeReturn",
          "type": "uint256"
        },
        {
          "internalType": "uint256",
          "name": "sellerStakeReturn",
          "type": "uint256"
        }
      ],
      "name": "resolveByDispute",
      "outputs": [],
      "stateMutability": "nonpayable",
      "type": "function"
    },
    {
      "inputs": [
        {
          "internalType": "address",
          "name": "",
          "type": "address"
        }
      ],
      "name": "reviewerEarnings",
      "outputs": [
        {
          "internalType": "uint256",
          "name": "",
          "type": "uint256"
        }
      ],
      "stateMutability": "view",
      "type": "function"
    },
    {
      "inputs": [
        {
          "internalType": "address",
          "name": "user",
          "type": "address"
        },
        {
          "internalType": "uint256",
          "name": "stakeAmount",
          "type": "uint256"
        },
        {
          "internalType": "uint256",
          "name": "rewardAmount",
          "type": "uint256"
        }
      ],
      "name": "rewardJuror",
      "outputs": [],
      "stateMutability": "nonpayable",
      "type": "function"
    },
    {
      "inputs": [
        {
          "internalType": "address",
          "name": "_dm",
          "type": "address"
        }
      ],
      "name": "setDisputeManager",
      "outputs": [],
      "stateMutability": "nonpayable",
      "type": "function"
    },
    {
      "inputs": [
        {
          "internalType": "address",
          "name": "_registry",
          "type": "address"
        }
      ],
      "name": "setRegistry",
      "outputs": [],
      "stateMutability": "nonpayable",
      "type": "function"
    },
    {
      "inputs": [
        {
          "internalType": "address",
          "name": "",
          "type": "address"
        }
      ],
      "name": "walletBalance",
      "outputs": [
        {
          "internalType": "uint256",
          "name": "",
          "type": "uint256"
        }
      ],
      "stateMutability": "view",
      "type": "function"
    },
    {
      "inputs": [],
      "name": "walletDeposit",
      "outputs": [],
      "stateMutability": "payable",
      "type": "function"
    },
    {
      "inputs": [
        {
          "internalType": "uint256",
          "name": "amount",
          "type": "uint256"
        }
      ],
      "name": "walletWithdraw",
      "outputs": [],
      "stateMutability": "nonpayable",
      "type": "function"
    },
    {
      "inputs": [
        {
          "internalType": "uint256",
          "name": "amount",
          "type": "uint256"
        }
      ],
      "name": "withdrawDeposit",
      "outputs": [],
      "stateMutability": "nonpayable",
      "type": "function"
    },
    {
      "inputs": [
        {
          "internalType": "address",
          "name": "to",
          "type": "address"
        }
      ],
      "name": "withdrawPlatformFee",
      "outputs": [],
      "stateMutability": "nonpayable",
      "type": "function"
    },
    {
      "stateMutability": "payable",
      "type": "receive"
    }
  ],
  "bytecode": "0x608060405234801561001057600080fd5b50604051614ed6380380614ed683398181016040528101906100329190610110565b600073ffffffffffffffffffffffffffffffffffffffff168173ffffffffffffffffffffffffffffffffffffffff16146100a757806000806101000a81548173ffffffffffffffffffffffffffffffffffffffff021916908373ffffffffffffffffffffffffffffffffffffffff1602179055505b5061013d565b600080fd5b600073ffffffffffffffffffffffffffffffffffffffff82169050919050565b60006100dd826100b2565b9050919050565b6100ed816100d2565b81146100f857600080fd5b50565b60008151905061010a816100e4565b92915050565b600060208284031215610126576101256100ad565b5b6000610134848285016100fb565b91505092915050565b614d8a8061014c6000396000f3fe6080604052600436106101fd5760003560e01c80637b1039991161010d578063b9db15b4116100a0578063cf9cd8f81161006f578063cf9cd8f814610754578063d0e30db014610791578063e1e158a51461079b578063f07172cb146107c6578063f544c3a6146107ef57610204565b8063b9db15b414610674578063bacdafe0146106b1578063bd8c64fd146106ee578063c51769411461072b57610204565b8063956501bb116100dc578063956501bb146105ba578063a5c1674e146105f7578063a91ee0dc14610620578063b294ed131461064957610204565b80637b103999146104ec578063843cba1314610517578063848b6fb51461054057806389a1b5231461057d57610204565b8063350d9b961161019057806352cb26af1161015f57806352cb26af1461041f57806362a5dbbc1461044a578063664bc6c4146104755780636c72186b1461049e5780637acc0b20146104a857610204565b8063350d9b961461036757806338e76a03146103905780633af10666146103b957806351f11259146103f657610204565b80631603378e116101cc5780631603378e146102c35780632958bacd146102ec5780632cef65751461031557806333289a461461033e57610204565b80630283a1c81461020957806303e9770b14610246578063067d50dc1461026f5780630d3a5a481461029857610204565b3661020457005b600080fd5b34801561021557600080fd5b50610230600480360381019061022b919061367a565b61081a565b60405161023d91906136c0565b60405180910390f35b34801561025257600080fd5b5061026d60048036038101906102689190613707565b610832565b005b34801561027b57600080fd5b5061029660048036038101906102919190613747565b61099e565b005b3480156102a457600080fd5b506102ad610a4a565b6040516102ba91906136c0565b60405180910390f35b3480156102cf57600080fd5b506102ea60048036038101906102e59190613707565b610a54565b005b3480156102f857600080fd5b50610313600480360381019061030e919061367a565b610b3e565b005b34801561032157600080fd5b5061033c600480360381019061033791906137d9565b610c13565b005b34801561034a57600080fd5b5061036560048036038101906103609190613747565b610db5565b005b34801561037357600080fd5b5061038e60048036038101906103899190613747565b610fa7565b005b34801561039c57600080fd5b506103b760048036038101906103b29190613747565b611117565b005b3480156103c557600080fd5b506103e060048036038101906103db919061367a565b6113d0565b6040516103ed91906136c0565b60405180910390f35b34801561040257600080fd5b5061041d60048036038101906104189190613871565b6113e8565b005b34801561042b57600080fd5b50610434611902565b6040516104419190613996565b60405180910390f35b34801561045657600080fd5b5061045f611a7e565b60405161046c91906136c0565b60405180910390f35b34801561048157600080fd5b5061049c600480360381019061049791906139b8565b611a84565b005b6104a6611bd0565b005b3480156104b457600080fd5b506104cf60048036038101906104ca9190613747565b611cb9565b6040516104e3989796959493929190613b21565b60405180910390f35b3480156104f857600080fd5b50610501611e5e565b60405161050e9190613c0c565b60405180910390f35b34801561052357600080fd5b5061053e60048036038101906105399190613747565b611e82565b005b34801561054c57600080fd5b506105676004803603810190610562919061367a565b61212e565b6040516105749190613996565b60405180910390f35b34801561058957600080fd5b506105a4600480360381019061059f9190613c27565b6122e0565b6040516105b191906136c0565b60405180910390f35b3480156105c657600080fd5b506105e160048036038101906105dc919061367a565b612616565b6040516105ee91906136c0565b60405180910390f35b34801561060357600080fd5b5061061e60048036038101906106199190613747565b61262e565b005b34801561062c57600080fd5b506106476004803603810190610642919061367a565b612d94565b005b34801561065557600080fd5b5061065e612dd7565b60405161066b91906136c0565b60405180910390f35b34801561068057600080fd5b5061069b60048036038101906106969190613747565b612de3565b6040516106a89190613da6565b60405180910390f35b3480156106bd57600080fd5b506106d860048036038101906106d3919061367a565b61303a565b6040516106e59190613996565b60405180910390f35b3480156106fa57600080fd5b506107156004803603810190610710919061367a565b6131ec565b6040516107229190613996565b60405180910390f35b34801561073757600080fd5b50610752600480360381019061074d919061367a565b613283565b005b34801561076057600080fd5b5061077b6004803603810190610776919061367a565b6132dd565b60405161078891906136c0565b60405180910390f35b6107996132f5565b005b3480156107a757600080fd5b506107b06133de565b6040516107bd91906136c0565b60405180910390f35b3480156107d257600080fd5b506107ed60048036038101906107e89190613747565b6133ea565b005b3480156107fb57600080fd5b50610804613569565b6040516108119190613dfb565b60405180910390f35b60076020528060005260406000206000915090505481565b600160009054906101000a900473ffffffffffffffffffffffffffffffffffffffff1673ffffffffffffffffffffffffffffffffffffffff163373ffffffffffffffffffffffffffffffffffffffff16146108c2576040517f08c379a00000000000000000000000000000000000000000000000000000000081526004016108b990613e62565b60405180910390fd5b80600660008473ffffffffffffffffffffffffffffffffffffffff1673ffffffffffffffffffffffffffffffffffffffff168152602001908152602001600020541015610944576040517f08c379a000000000000000000000000000000000000000000000000000000000815260040161093b90613ef4565b60405180910390fd5b80600660008473ffffffffffffffffffffffffffffffffffffffff1673ffffffffffffffffffffffffffffffffffffffff16815260200190815260200160002060008282546109939190613f43565b925050819055505050565b600160009054906101000a900473ffffffffffffffffffffffffffffffffffffffff1673ffffffffffffffffffffffffffffffffffffffff163373ffffffffffffffffffffffffffffffffffffffff1614610a2e576040517f08c379a0000000000000000000000000000000000000000000000000000000008152600401610a2590613e62565b60405180910390fd5b8060096000828254610a409190613f77565b9250508190555050565b6000600254905090565b600160009054906101000a900473ffffffffffffffffffffffffffffffffffffffff1673ffffffffffffffffffffffffffffffffffffffff163373ffffffffffffffffffffffffffffffffffffffff1614610ae4576040517f08c379a0000000000000000000000000000000000000000000000000000000008152600401610adb90613e62565b60405180910390fd5b80600660008473ffffffffffffffffffffffffffffffffffffffff1673ffffffffffffffffffffffffffffffffffffffff1681526020019081526020016000206000828254610b339190613f77565b925050819055505050565b600073ffffffffffffffffffffffffffffffffffffffff16600160009054906101000a900473ffffffffffffffffffffffffffffffffffffffff1673ffffffffffffffffffffffffffffffffffffffff1614610bcf576040517f08c379a0000000000000000000000000000000000000000000000000000000008152600401610bc690613ff7565b60405180910390fd5b80600160006101000a81548173ffffffffffffffffffffffffffffffffffffffff021916908373ffffffffffffffffffffffffffffffffffffffff16021790555050565b60006003600085815260200190815260200160002090508060010160009054906101000a900473ffffffffffffffffffffffffffffffffffffffff1673ffffffffffffffffffffffffffffffffffffffff163373ffffffffffffffffffffffffffffffffffffffff1614610cbc576040517f08c379a0000000000000000000000000000000000000000000000000000000008152600401610cb390614063565b60405180910390fd5b60016005811115610cd057610ccf613aaa565b5b8160070160009054906101000a900460ff166005811115610cf457610cf3613aaa565b5b14610d34576040517f08c379a0000000000000000000000000000000000000000000000000000000008152600401610d2b906140cf565b60405180910390fd5b8282826004019182610d4792919061432b565b5060028160070160006101000a81548160ff02191690836005811115610d7057610d6f613aaa565b5b0217905550837f93ab3b862ce2f90030f6e137a2dd9907ee94550e63fa63f7446ca20a381a81c08484604051610da7929190614437565b60405180910390a250505050565b6000600760003373ffffffffffffffffffffffffffffffffffffffff1673ffffffffffffffffffffffffffffffffffffffff1681526020019081526020016000205414610e37576040517f08c379a0000000000000000000000000000000000000000000000000000000008152600401610e2e906144cd565b60405180910390fd5b80600560003373ffffffffffffffffffffffffffffffffffffffff1673ffffffffffffffffffffffffffffffffffffffff168152602001908152602001600020541015610eb9576040517f08c379a0000000000000000000000000000000000000000000000000000000008152600401610eb090614539565b60405180910390fd5b80600560003373ffffffffffffffffffffffffffffffffffffffff1673ffffffffffffffffffffffffffffffffffffffff1681526020019081526020016000206000828254610f089190613f43565b925050819055503373ffffffffffffffffffffffffffffffffffffffff166108fc829081150290604051600060405180830381858888f19350505050158015610f55573d6000803e3d6000fd5b503373ffffffffffffffffffffffffffffffffffffffff167f7084f5476618d8e60b11ef0d7d3f06914655adb8793e28ff7f018d4c76d505d582604051610f9c91906136c0565b60405180910390a250565b80600660003373ffffffffffffffffffffffffffffffffffffffff1673ffffffffffffffffffffffffffffffffffffffff168152602001908152602001600020541015611029576040517f08c379a0000000000000000000000000000000000000000000000000000000008152600401611020906145a5565b60405180910390fd5b80600660003373ffffffffffffffffffffffffffffffffffffffff1673ffffffffffffffffffffffffffffffffffffffff16815260200190815260200160002060008282546110789190613f43565b925050819055503373ffffffffffffffffffffffffffffffffffffffff166108fc829081150290604051600060405180830381858888f193505050501580156110c5573d6000803e3d6000fd5b503373ffffffffffffffffffffffffffffffffffffffff167f898bacbefbd03f6ddce022f4e6e3b697fb171041da547ee8edd17ccecbddabf58260405161110c91906136c0565b60405180910390a250565b60006003600083815260200190815260200160002090506000600581111561114257611141613aaa565b5b8160070160009054906101000a900460ff16600581111561116657611165613aaa565b5b146111a6576040517f08c379a000000000000000000000000000000000000000000000000000000000815260040161119d90614611565b60405180910390fd5b3373ffffffffffffffffffffffffffffffffffffffff168160010160009054906101000a900473ffffffffffffffffffffffffffffffffffffffff1673ffffffffffffffffffffffffffffffffffffffff1603611238576040517f08c379a000000000000000000000000000000000000000000000000000000000815260040161122f9061467d565b60405180910390fd5b8060050154600660003373ffffffffffffffffffffffffffffffffffffffff1673ffffffffffffffffffffffffffffffffffffffff1681526020019081526020016000205410156112be576040517f08c379a00000000000000000000000000000000000000000000000000000000081526004016112b5906145a5565b60405180910390fd5b8060050154600660003373ffffffffffffffffffffffffffffffffffffffff1673ffffffffffffffffffffffffffffffffffffffff16815260200190815260200160002060008282546113119190613f43565b92505081905550338160020160006101000a81548173ffffffffffffffffffffffffffffffffffffffff021916908373ffffffffffffffffffffffffffffffffffffffff16021790555060018160070160006101000a81548160ff0219169083600581111561138357611382613aaa565b5b02179055503373ffffffffffffffffffffffffffffffffffffffff16827f9ad4ecfaf27ea0cbeebee0ed92fe15c8a84975f1e3d45ccfc526d7751dcf98ff60405160405180910390a35050565b60086020528060005260406000206000915090505481565b600160009054906101000a900473ffffffffffffffffffffffffffffffffffffffff1673ffffffffffffffffffffffffffffffffffffffff163373ffffffffffffffffffffffffffffffffffffffff1614611478576040517f08c379a000000000000000000000000000000000000000000000000000000000815260040161146f90613e62565b60405180910390fd5b6000600360008681526020019081526020016000209050600460058111156114a3576114a2613aaa565b5b8160070160009054906101000a900460ff1660058111156114c7576114c6613aaa565b5b14611507576040517f08c379a00000000000000000000000000000000000000000000000000000000081526004016114fe906146e9565b60405180910390fd5b60058160070160006101000a81548160ff0219169083600581111561152f5761152e613aaa565b5b0217905550600760008260020160009054906101000a900473ffffffffffffffffffffffffffffffffffffffff1673ffffffffffffffffffffffffffffffffffffffff1673ffffffffffffffffffffffffffffffffffffffff16815260200190815260200160002060008154809291906115a890614709565b9190505550600760008260010160009054906101000a900473ffffffffffffffffffffffffffffffffffffffff1673ffffffffffffffffffffffffffffffffffffffff1673ffffffffffffffffffffffffffffffffffffffff168152602001908152602001600020600081548092919061162190614709565b9190505550831561173e5782816005015461163c9190613f77565b600660008360020160009054906101000a900473ffffffffffffffffffffffffffffffffffffffff1673ffffffffffffffffffffffffffffffffffffffff1673ffffffffffffffffffffffffffffffffffffffff16815260200190815260200160002060008282546116ae9190613f77565b9250508190555060008211156117395781600660008360010160009054906101000a900473ffffffffffffffffffffffffffffffffffffffff1673ffffffffffffffffffffffffffffffffffffffff1673ffffffffffffffffffffffffffffffffffffffff16815260200190815260200160002060008282546117319190613f77565b925050819055505b6118fb565b60008054906101000a900473ffffffffffffffffffffffffffffffffffffffff1673ffffffffffffffffffffffffffffffffffffffff1663d33988548260010160009054906101000a900473ffffffffffffffffffffffffffffffffffffffff166040518263ffffffff1660e01b81526004016117bb9190614732565b600060405180830381600087803b1580156117d557600080fd5b505af11580156117e9573d6000803e3d6000fd5b505050508181600501546117fd9190613f77565b600660008360010160009054906101000a900473ffffffffffffffffffffffffffffffffffffffff1673ffffffffffffffffffffffffffffffffffffffff1673ffffffffffffffffffffffffffffffffffffffff168152602001908152602001600020600082825461186f9190613f77565b9250508190555060008311156118fa5782600660008360020160009054906101000a900473ffffffffffffffffffffffffffffffffffffffff1673ffffffffffffffffffffffffffffffffffffffff1673ffffffffffffffffffffffffffffffffffffffff16815260200190815260200160002060008282546118f29190613f77565b925050819055505b5b5050505050565b6060600080600190505b6002548111611986576000600581111561192957611928613aaa565b5b6003600083815260200190815260200160002060070160009054906101000a900460ff16600581111561195f5761195e613aaa565b5b0361197357818061196f9061474d565b9250505b808061197e9061474d565b91505061190c565b5060008167ffffffffffffffff8111156119a3576119a26140fa565b5b6040519080825280602002602001820160405280156119d15781602001602082028036833780820191505090505b509050600080600190505b6002548111611a7457600060058111156119f9576119f8613aaa565b5b6003600083815260200190815260200160002060070160009054906101000a900460ff166005811115611a2f57611a2e613aaa565b5b03611a615780838380611a419061474d565b945081518110611a5457611a53614795565b5b6020026020010181815250505b8080611a6c9061474d565b9150506119dc565b5081935050505090565b60095481565b600160009054906101000a900473ffffffffffffffffffffffffffffffffffffffff1673ffffffffffffffffffffffffffffffffffffffff163373ffffffffffffffffffffffffffffffffffffffff1614611b14576040517f08c379a0000000000000000000000000000000000000000000000000000000008152600401611b0b90613e62565b60405180910390fd5b80600860008573ffffffffffffffffffffffffffffffffffffffff1673ffffffffffffffffffffffffffffffffffffffff1681526020019081526020016000206000828254611b639190613f77565b925050819055508082611b769190613f77565b600660008573ffffffffffffffffffffffffffffffffffffffff1673ffffffffffffffffffffffffffffffffffffffff1681526020019081526020016000206000828254611bc49190613f77565b92505081905550505050565b60003411611c13576040517f08c379a0000000000000000000000000000000000000000000000000000000008152600401611c0a90614810565b60405180910390fd5b34600660003373ffffffffffffffffffffffffffffffffffffffff1673ffffffffffffffffffffffffffffffffffffffff1681526020019081526020016000206000828254611c629190613f77565b925050819055503373ffffffffffffffffffffffffffffffffffffffff167fd9b20f443b0fd05e64219895cd75b43aec3d5ad3775f474452fdca540c84566b34604051611caf91906136c0565b60405180910390a2565b60036020528060005260406000206000915090508060000154908060010160009054906101000a900473ffffffffffffffffffffffffffffffffffffffff16908060020160009054906101000a900473ffffffffffffffffffffffffffffffffffffffff1690806003018054611d2e90614158565b80601f0160208091040260200160405190810160405280929190818152602001828054611d5a90614158565b8015611da75780601f10611d7c57610100808354040283529160200191611da7565b820191906000526020600020905b815481529060010190602001808311611d8a57829003601f168201915b505050505090806004018054611dbc90614158565b80601f0160208091040260200160405190810160405280929190818152602001828054611de890614158565b8015611e355780601f10611e0a57610100808354040283529160200191611e35565b820191906000526020600020905b815481529060010190602001808311611e1857829003601f168201915b5050505050908060050154908060060154908060070160009054906101000a900460ff16905088565b60008054906101000a900473ffffffffffffffffffffffffffffffffffffffff1681565b60006003600083815260200190815260200160002090508060020160009054906101000a900473ffffffffffffffffffffffffffffffffffffffff1673ffffffffffffffffffffffffffffffffffffffff163373ffffffffffffffffffffffffffffffffffffffff1614611f2b576040517f08c379a0000000000000000000000000000000000000000000000000000000008152600401611f229061487c565b60405180910390fd5b60026005811115611f3f57611f3e613aaa565b5b8160070160009054906101000a900460ff166005811115611f6357611f62613aaa565b5b14611fa3576040517f08c379a0000000000000000000000000000000000000000000000000000000008152600401611f9a906148e8565b60405180910390fd5b60038160070160006101000a81548160ff02191690836005811115611fcb57611fca613aaa565b5b021790555060008054906101000a900473ffffffffffffffffffffffffffffffffffffffff1673ffffffffffffffffffffffffffffffffffffffff1663d33988548260010160009054906101000a900473ffffffffffffffffffffffffffffffffffffffff166040518263ffffffff1660e01b815260040161204d9190614732565b600060405180830381600087803b15801561206757600080fd5b505af115801561207b573d6000803e3d6000fd5b505050508060050154600660008360010160009054906101000a900473ffffffffffffffffffffffffffffffffffffffff1673ffffffffffffffffffffffffffffffffffffffff1673ffffffffffffffffffffffffffffffffffffffff16815260200190815260200160002060008282546120f69190613f77565b92505081905550817fe213303292163b95c0f90623eb8bc1f2c15b6d888051c10cc662e78204ff042260405160405180910390a25050565b6060600080600190505b60025481116121cc578373ffffffffffffffffffffffffffffffffffffffff166003600083815260200190815260200160002060020160009054906101000a900473ffffffffffffffffffffffffffffffffffffffff1673ffffffffffffffffffffffffffffffffffffffff16036121b95781806121b59061474d565b9250505b80806121c49061474d565b915050612138565b5060008167ffffffffffffffff8111156121e9576121e86140fa565b5b6040519080825280602002602001820160405280156122175781602001602082028036833780820191505090505b509050600080600190505b60025481116122d4578573ffffffffffffffffffffffffffffffffffffffff166003600083815260200190815260200160002060020160009054906101000a900473ffffffffffffffffffffffffffffffffffffffff1673ffffffffffffffffffffffffffffffffffffffff16036122c157808383806122a19061474d565b9450815181106122b4576122b3614795565b5b6020026020010181815250505b80806122cc9061474d565b915050612222565b50819350505050919050565b6000808211612324576040517f08c379a000000000000000000000000000000000000000000000000000000000815260040161231b90614954565b60405180910390fd5b670de0b6b3a7640000600560003373ffffffffffffffffffffffffffffffffffffffff1673ffffffffffffffffffffffffffffffffffffffff1681526020019081526020016000205410156123ae576040517f08c379a00000000000000000000000000000000000000000000000000000000081526004016123a5906149c0565b60405180910390fd5b600260008154809291906123c19061474d565b919050555060405180610100016040528060025481526020013373ffffffffffffffffffffffffffffffffffffffff168152602001600073ffffffffffffffffffffffffffffffffffffffff16815260200185858080601f016020809104026020016040519081016040528093929190818152602001838380828437600081840152601f19601f8201169050808301925050505050505081526020016040518060200160405280600081525081526020018381526020014281526020016000600581111561249257612491613aaa565b5b8152506003600060025481526020019081526020016000206000820151816000015560208201518160010160006101000a81548173ffffffffffffffffffffffffffffffffffffffff021916908373ffffffffffffffffffffffffffffffffffffffff16021790555060408201518160020160006101000a81548173ffffffffffffffffffffffffffffffffffffffff021916908373ffffffffffffffffffffffffffffffffffffffff160217905550606082015181600301908161255791906149e0565b50608082015181600401908161256d91906149e0565b5060a0820151816005015560c0820151816006015560e08201518160070160006101000a81548160ff021916908360058111156125ad576125ac613aaa565b5b02179055509050503373ffffffffffffffffffffffffffffffffffffffff166002547f899c32fbd27a24397979837f3acd7bfee4a37ee60b2d2f1a0643a725f39a7a4986868660405161260293929190614ab2565b60405180910390a360025490509392505050565b60056020528060005260406000206000915090505481565b60006003600083815260200190815260200160002090508060020160009054906101000a900473ffffffffffffffffffffffffffffffffffffffff1673ffffffffffffffffffffffffffffffffffffffff163373ffffffffffffffffffffffffffffffffffffffff1614806126f257508060010160009054906101000a900473ffffffffffffffffffffffffffffffffffffffff1673ffffffffffffffffffffffffffffffffffffffff163373ffffffffffffffffffffffffffffffffffffffff16145b612731576040517f08c379a000000000000000000000000000000000000000000000000000000000815260040161272890614b30565b60405180910390fd5b6001600581111561274557612744613aaa565b5b8160070160009054906101000a900460ff16600581111561276957612768613aaa565b5b14806127aa57506002600581111561278457612783613aaa565b5b8160070160009054906101000a900460ff1660058111156127a8576127a7613aaa565b5b145b6127e9576040517f08c379a00000000000000000000000000000000000000000000000000000000081526004016127e090614b9c565b60405180910390fd5b6706f05b59d3b20000600560008360020160009054906101000a900473ffffffffffffffffffffffffffffffffffffffff1673ffffffffffffffffffffffffffffffffffffffff1673ffffffffffffffffffffffffffffffffffffffff168152602001908152602001600020541015612897576040517f08c379a000000000000000000000000000000000000000000000000000000000815260040161288e90614c08565b60405180910390fd5b6706f05b59d3b20000600560008360010160009054906101000a900473ffffffffffffffffffffffffffffffffffffffff1673ffffffffffffffffffffffffffffffffffffffff1673ffffffffffffffffffffffffffffffffffffffff168152602001908152602001600020541015612945576040517f08c379a000000000000000000000000000000000000000000000000000000000815260040161293c90614c74565b60405180910390fd5b6706f05b59d3b20000600560008360020160009054906101000a900473ffffffffffffffffffffffffffffffffffffffff1673ffffffffffffffffffffffffffffffffffffffff1673ffffffffffffffffffffffffffffffffffffffff16815260200190815260200160002060008282546129c09190613f43565b925050819055506706f05b59d3b20000600560008360010160009054906101000a900473ffffffffffffffffffffffffffffffffffffffff1673ffffffffffffffffffffffffffffffffffffffff1673ffffffffffffffffffffffffffffffffffffffff1681526020019081526020016000206000828254612a429190613f43565b92505081905550600760008260020160009054906101000a900473ffffffffffffffffffffffffffffffffffffffff1673ffffffffffffffffffffffffffffffffffffffff1673ffffffffffffffffffffffffffffffffffffffff1681526020019081526020016000206000815480929190612abd9061474d565b9190505550600760008260010160009054906101000a900473ffffffffffffffffffffffffffffffffffffffff1673ffffffffffffffffffffffffffffffffffffffff1673ffffffffffffffffffffffffffffffffffffffff1681526020019081526020016000206000815480929190612b369061474d565b919050555060048160070160006101000a81548160ff02191690836005811115612b6357612b62613aaa565b5b0217905550600460008260020160009054906101000a900473ffffffffffffffffffffffffffffffffffffffff1673ffffffffffffffffffffffffffffffffffffffff1673ffffffffffffffffffffffffffffffffffffffff168152602001908152602001600020829080600181540180825580915050600190039060005260206000200160009091909190915055600460008260010160009054906101000a900473ffffffffffffffffffffffffffffffffffffffff1673ffffffffffffffffffffffffffffffffffffffff1673ffffffffffffffffffffffffffffffffffffffff168152602001908152602001600020829080600181540180825580915050600190039060005260206000200160009091909190915055600160009054906101000a900473ffffffffffffffffffffffffffffffffffffffff1673ffffffffffffffffffffffffffffffffffffffff1663f971c773838360020160009054906101000a900473ffffffffffffffffffffffffffffffffffffffff168460010160009054906101000a900473ffffffffffffffffffffffffffffffffffffffff1660006040518563ffffffff1660e01b8152600401612d269493929190614ca3565b600060405180830381600087803b158015612d4057600080fd5b505af1158015612d54573d6000803e3d6000fd5b50505050817fcecf7f521976357cd480d0f269cde1c01ac52cd26bf8ea829a216d76b7a56e7b33604051612d889190614732565b60405180910390a25050565b806000806101000a81548173ffffffffffffffffffffffffffffffffffffffff021916908373ffffffffffffffffffffffffffffffffffffffff16021790555050565b6706f05b59d3b2000081565b612deb61358f565b6003600083815260200190815260200160002060405180610100016040529081600082015481526020016001820160009054906101000a900473ffffffffffffffffffffffffffffffffffffffff1673ffffffffffffffffffffffffffffffffffffffff1673ffffffffffffffffffffffffffffffffffffffff1681526020016002820160009054906101000a900473ffffffffffffffffffffffffffffffffffffffff1673ffffffffffffffffffffffffffffffffffffffff1673ffffffffffffffffffffffffffffffffffffffff168152602001600382018054612ed090614158565b80601f0160208091040260200160405190810160405280929190818152602001828054612efc90614158565b8015612f495780601f10612f1e57610100808354040283529160200191612f49565b820191906000526020600020905b815481529060010190602001808311612f2c57829003601f168201915b50505050508152602001600482018054612f6290614158565b80601f0160208091040260200160405190810160405280929190818152602001828054612f8e90614158565b8015612fdb5780601f10612fb057610100808354040283529160200191612fdb565b820191906000526020600020905b815481529060010190602001808311612fbe57829003601f168201915b5050505050815260200160058201548152602001600682015481526020016007820160009054906101000a900460ff16600581111561301d5761301c613aaa565b5b600581111561302f5761302e613aaa565b5b815250509050919050565b6060600080600190505b60025481116130d8578373ffffffffffffffffffffffffffffffffffffffff166003600083815260200190815260200160002060010160009054906101000a900473ffffffffffffffffffffffffffffffffffffffff1673ffffffffffffffffffffffffffffffffffffffff16036130c55781806130c19061474d565b9250505b80806130d09061474d565b915050613044565b5060008167ffffffffffffffff8111156130f5576130f46140fa565b5b6040519080825280602002602001820160405280156131235781602001602082028036833780820191505090505b509050600080600190505b60025481116131e0578573ffffffffffffffffffffffffffffffffffffffff166003600083815260200190815260200160002060010160009054906101000a900473ffffffffffffffffffffffffffffffffffffffff1673ffffffffffffffffffffffffffffffffffffffff16036131cd57808383806131ad9061474d565b9450815181106131c0576131bf614795565b5b6020026020010181815250505b80806131d89061474d565b91505061312e565b50819350505050919050565b6060600460008373ffffffffffffffffffffffffffffffffffffffff1673ffffffffffffffffffffffffffffffffffffffff16815260200190815260200160002080548060200260200160405190810160405280929190818152602001828054801561327757602002820191906000526020600020905b815481526020019060010190808311613263575b50505050509050919050565b6000600954905060006009819055508173ffffffffffffffffffffffffffffffffffffffff166108fc829081150290604051600060405180830381858888f193505050501580156132d8573d6000803e3d6000fd5b505050565b60066020528060005260406000206000915090505481565b60003411613338576040517f08c379a000000000000000000000000000000000000000000000000000000000815260040161332f90614810565b60405180910390fd5b34600560003373ffffffffffffffffffffffffffffffffffffffff1673ffffffffffffffffffffffffffffffffffffffff16815260200190815260200160002060008282546133879190613f77565b925050819055503373ffffffffffffffffffffffffffffffffffffffff167f2da466a7b24304f47e87fa2e1e5a81b9831ce54fec19055ce277ca2f39ba42c4346040516133d491906136c0565b60405180910390a2565b670de0b6b3a764000081565b60006003600083815260200190815260200160002090508060010160009054906101000a900473ffffffffffffffffffffffffffffffffffffffff1673ffffffffffffffffffffffffffffffffffffffff163373ffffffffffffffffffffffffffffffffffffffff1614613493576040517f08c379a000000000000000000000000000000000000000000000000000000000815260040161348a90614063565b60405180910390fd5b600060058111156134a7576134a6613aaa565b5b8160070160009054906101000a900460ff1660058111156134cb576134ca613aaa565b5b1461350b576040517f08c379a000000000000000000000000000000000000000000000000000000000815260040161350290614d34565b60405180910390fd5b60058160070160006101000a81548160ff0219169083600581111561353357613532613aaa565b5b0217905550817fa0a0dd8d8b81f99e806082d40a192d002e26bfc288a6a64fa6c43eafc232ccd860405160405180910390a25050565b600160009054906101000a900473ffffffffffffffffffffffffffffffffffffffff1681565b60405180610100016040528060008152602001600073ffffffffffffffffffffffffffffffffffffffff168152602001600073ffffffffffffffffffffffffffffffffffffffff168152602001606081526020016060815260200160008152602001600081526020016000600581111561360c5761360b613aaa565b5b81525090565b600080fd5b600080fd5b600073ffffffffffffffffffffffffffffffffffffffff82169050919050565b60006136478261361c565b9050919050565b6136578161363c565b811461366257600080fd5b50565b6000813590506136748161364e565b92915050565b6000602082840312156136905761368f613612565b5b600061369e84828501613665565b91505092915050565b6000819050919050565b6136ba816136a7565b82525050565b60006020820190506136d560008301846136b1565b92915050565b6136e4816136a7565b81146136ef57600080fd5b50565b600081359050613701816136db565b92915050565b6000806040838503121561371e5761371d613612565b5b600061372c85828601613665565b925050602061373d858286016136f2565b9150509250929050565b60006020828403121561375d5761375c613612565b5b600061376b848285016136f2565b91505092915050565b600080fd5b600080fd5b600080fd5b60008083601f84011261379957613798613774565b5b8235905067ffffffffffffffff8111156137b6576137b5613779565b5b6020830191508360018202830111156137d2576137d161377e565b5b9250929050565b6000806000604084860312156137f2576137f1613612565b5b6000613800868287016136f2565b935050602084013567ffffffffffffffff81111561382157613820613617565b5b61382d86828701613783565b92509250509250925092565b60008115159050919050565b61384e81613839565b811461385957600080fd5b50565b60008135905061386b81613845565b92915050565b6000806000806080858703121561388b5761388a613612565b5b6000613899878288016136f2565b94505060206138aa8782880161385c565b93505060406138bb878288016136f2565b92505060606138cc878288016136f2565b91505092959194509250565b600081519050919050565b600082825260208201905092915050565b6000819050602082019050919050565b61390d816136a7565b82525050565b600061391f8383613904565b60208301905092915050565b6000602082019050919050565b6000613943826138d8565b61394d81856138e3565b9350613958836138f4565b8060005b838110156139895781516139708882613913565b975061397b8361392b565b92505060018101905061395c565b5085935050505092915050565b600060208201905081810360008301526139b08184613938565b905092915050565b6000806000606084860312156139d1576139d0613612565b5b60006139df86828701613665565b93505060206139f0868287016136f2565b9250506040613a01868287016136f2565b9150509250925092565b613a148161363c565b82525050565b600081519050919050565b600082825260208201905092915050565b60005b83811015613a54578082015181840152602081019050613a39565b60008484015250505050565b6000601f19601f8301169050919050565b6000613a7c82613a1a565b613a868185613a25565b9350613a96818560208601613a36565b613a9f81613a60565b840191505092915050565b7f4e487b7100000000000000000000000000000000000000000000000000000000600052602160045260246000fd5b60068110613aea57613ae9613aaa565b5b50565b6000819050613afb82613ad9565b919050565b6000613b0b82613aed565b9050919050565b613b1b81613b00565b82525050565b600061010082019050613b37600083018b6136b1565b613b44602083018a613a0b565b613b516040830189613a0b565b8181036060830152613b638188613a71565b90508181036080830152613b778187613a71565b9050613b8660a08301866136b1565b613b9360c08301856136b1565b613ba060e0830184613b12565b9998505050505050505050565b6000819050919050565b6000613bd2613bcd613bc88461361c565b613bad565b61361c565b9050919050565b6000613be482613bb7565b9050919050565b6000613bf682613bd9565b9050919050565b613c0681613beb565b82525050565b6000602082019050613c216000830184613bfd565b92915050565b600080600060408486031215613c4057613c3f613612565b5b600084013567ffffffffffffffff811115613c5e57613c5d613617565b5b613c6a86828701613783565b93509350506020613c7d868287016136f2565b9150509250925092565b613c908161363c565b82525050565b600082825260208201905092915050565b6000613cb282613a1a565b613cbc8185613c96565b9350613ccc818560208601613a36565b613cd581613a60565b840191505092915050565b613ce981613b00565b82525050565b600061010083016000830151613d086000860182613904565b506020830151613d1b6020860182613c87565b506040830151613d2e6040860182613c87565b5060608301518482036060860152613d468282613ca7565b91505060808301518482036080860152613d608282613ca7565b91505060a0830151613d7560a0860182613904565b5060c0830151613d8860c0860182613904565b5060e0830151613d9b60e0860182613ce0565b508091505092915050565b60006020820190508181036000830152613dc08184613cef565b905092915050565b6000613dd382613bb7565b9050919050565b6000613de582613dc8565b9050919050565b613df581613dda565b82525050565b6000602082019050613e106000830184613dec565b92915050565b7f4f6e6c792064697370757465206d616e61676572000000000000000000000000600082015250565b6000613e4c601483613a25565b9150613e5782613e16565b602082019050919050565b60006020820190508181036000830152613e7b81613e3f565b9050919050565b7f496e73756666696369656e742077616c6c65742062616c616e636520666f722060008201527f7374616b65000000000000000000000000000000000000000000000000000000602082015250565b6000613ede602583613a25565b9150613ee982613e82565b604082019050919050565b60006020820190508181036000830152613f0d81613ed1565b9050919050565b7f4e487b7100000000000000000000000000000000000000000000000000000000600052601160045260246000fd5b6000613f4e826136a7565b9150613f59836136a7565b9250828203905081811115613f7157613f70613f14565b5b92915050565b6000613f82826136a7565b9150613f8d836136a7565b9250828201905080821115613fa557613fa4613f14565b5b92915050565b7f416c726561647920736574000000000000000000000000000000000000000000600082015250565b6000613fe1600b83613a25565b9150613fec82613fab565b602082019050919050565b6000602082019050818103600083015261401081613fd4565b9050919050565b7f4e6f74207468652073656c6c6572000000000000000000000000000000000000600082015250565b600061404d600e83613a25565b915061405882614017565b602082019050919050565b6000602082019050818103600083015261407c81614040565b9050919050565b7f57726f6e67207374617475730000000000000000000000000000000000000000600082015250565b60006140b9600c83613a25565b91506140c482614083565b602082019050919050565b600060208201905081810360008301526140e8816140ac565b9050919050565b600082905092915050565b7f4e487b7100000000000000000000000000000000000000000000000000000000600052604160045260246000fd5b7f4e487b7100000000000000000000000000000000000000000000000000000000600052602260045260246000fd5b6000600282049050600182168061417057607f821691505b60208210810361418357614182614129565b5b50919050565b60008190508160005260206000209050919050565b60006020601f8301049050919050565b600082821b905092915050565b6000600883026141eb7fffffffffffffffffffffffffffffffffffffffffffffffffffffffffffffffff826141ae565b6141f586836141ae565b95508019841693508086168417925050509392505050565b600061422861422361421e846136a7565b613bad565b6136a7565b9050919050565b6000819050919050565b6142428361420d565b61425661424e8261422f565b8484546141bb565b825550505050565b600090565b61426b61425e565b614276818484614239565b505050565b5b8181101561429a5761428f600082614263565b60018101905061427c565b5050565b601f8211156142df576142b081614189565b6142b98461419e565b810160208510156142c8578190505b6142dc6142d48561419e565b83018261427b565b50505b505050565b600082821c905092915050565b6000614302600019846008026142e4565b1980831691505092915050565b600061431b83836142f1565b9150826002028217905092915050565b61433583836140ef565b67ffffffffffffffff81111561434e5761434d6140fa565b5b6143588254614158565b61436382828561429e565b6000601f8311600181146143925760008415614380578287013590505b61438a858261430f565b8655506143f2565b601f1984166143a086614189565b60005b828110156143c8578489013582556001820191506020850194506020810190506143a3565b868310156143e557848901356143e1601f8916826142f1565b8355505b6001600288020188555050505b50505050505050565b82818337600083830152505050565b60006144168385613a25565b93506144238385846143fb565b61442c83613a60565b840190509392505050565b6000602082019050818103600083015261445281848661440a565b90509392505050565b7f43616e6e6f7420776974686472617720647572696e672061637469766520646960008201527f7370757465000000000000000000000000000000000000000000000000000000602082015250565b60006144b7602583613a25565b91506144c28261445b565b604082019050919050565b600060208201905081810360008301526144e6816144aa565b9050919050565b7f496e73756666696369656e74206465706f7369742062616c616e636500000000600082015250565b6000614523601c83613a25565b915061452e826144ed565b602082019050919050565b6000602082019050818103600083015261455281614516565b9050919050565b7f496e73756666696369656e742077616c6c65742062616c616e63650000000000600082015250565b600061458f601b83613a25565b915061459a82614559565b602082019050919050565b600060208201905081810360008301526145be81614582565b9050919050565b7f4e6f7420617661696c61626c6500000000000000000000000000000000000000600082015250565b60006145fb600d83613a25565b9150614606826145c5565b602082019050919050565b6000602082019050818103600083015261462a816145ee565b9050919050565b7f53656c6c65722063616e6e6f7420627579206f776e2070726f64756374000000600082015250565b6000614667601d83613a25565b915061467282614631565b602082019050919050565b600060208201905081810360008301526146968161465a565b9050919050565b7f4e6f7420696e2064697370757465000000000000000000000000000000000000600082015250565b60006146d3600e83613a25565b91506146de8261469d565b602082019050919050565b60006020820190508181036000830152614702816146c6565b9050919050565b6000614714826136a7565b91506000820361472757614726613f14565b5b600182039050919050565b60006020820190506147476000830184613a0b565b92915050565b6000614758826136a7565b91507fffffffffffffffffffffffffffffffffffffffffffffffffffffffffffffffff820361478a57614789613f14565b5b600182019050919050565b7f4e487b7100000000000000000000000000000000000000000000000000000000600052603260045260246000fd5b7f4d7573742073656e642045544800000000000000000000000000000000000000600082015250565b60006147fa600d83613a25565b9150614805826147c4565b602082019050919050565b60006020820190508181036000830152614829816147ed565b9050919050565b7f4e6f742074686520627579657200000000000000000000000000000000000000600082015250565b6000614866600d83613a25565b915061487182614830565b602082019050919050565b6000602082019050818103600083015261489581614859565b9050919050565b7f4e6f742073686970706564207965740000000000000000000000000000000000600082015250565b60006148d2600f83613a25565b91506148dd8261489c565b602082019050919050565b60006020820190508181036000830152614901816148c5565b9050919050565b7f5072696365206d7573742062652067726561746572207468616e203000000000600082015250565b600061493e601c83613a25565b915061494982614908565b602082019050919050565b6000602082019050818103600083015261496d81614931565b9050919050565b7f496e73756666696369656e74206465706f7369743a206e656564203120455448600082015250565b60006149aa602083613a25565b91506149b582614974565b602082019050919050565b600060208201905081810360008301526149d98161499d565b9050919050565b6149e982613a1a565b67ffffffffffffffff811115614a0257614a016140fa565b5b614a0c8254614158565b614a1782828561429e565b600060209050601f831160018114614a4a5760008415614a38578287015190505b614a42858261430f565b865550614aaa565b601f198416614a5886614189565b60005b82811015614a8057848901518255600182019150602085019450602081019050614a5b565b86831015614a9d5784890151614a99601f8916826142f1565b8355505b6001600288020188555050505b505050505050565b60006040820190508181036000830152614acd81858761440a565b9050614adc60208301846136b1565b949350505050565b7f4e6f7420696e766f6c7665640000000000000000000000000000000000000000600082015250565b6000614b1a600c83613a25565b9150614b2582614ae4565b602082019050919050565b60006020820190508181036000830152614b4981614b0d565b9050919050565b7f43616e206f6e6c79206469737075746520616674657220707572636861736500600082015250565b6000614b86601f83613a25565b9150614b9182614b50565b602082019050919050565b60006020820190508181036000830152614bb581614b79565b9050919050565b7f427579657220696e73756666696369656e74206465706f736974000000000000600082015250565b6000614bf2601a83613a25565b9150614bfd82614bbc565b602082019050919050565b60006020820190508181036000830152614c2181614be5565b9050919050565b7f53656c6c657220696e73756666696369656e74206465706f7369740000000000600082015250565b6000614c5e601b83613a25565b9150614c6982614c28565b602082019050919050565b60006020820190508181036000830152614c8d81614c51565b9050919050565b614c9d81613839565b82525050565b6000608082019050614cb860008301876136b1565b614cc56020830186613a0b565b614cd26040830185613a0b565b614cdf6060830184614c94565b95945050505050565b7f43616e6e6f742064656c69737420616674657220707572636861736500000000600082015250565b6000614d1e601c83613a25565b9150614d2982614ce8565b602082019050919050565b60006020820190508181036000830152614d4d81614d11565b905091905056fea2646970667358221220b44d320074af817881289ef07947af65a123ec96b55302233a25c8153113e83664736f6c634300081c0033",
  "linkReferences": {},
  "deployedLinkReferences": {}
}