{
  "_format": "hh-sol-artifact-1",
  "contractName": "ReviewerRegistry",
  "sourceName": "contracts/ReviewerRegistry.sol",
  "abi": [
    {
      "inputs": [
        {
          "internalType": "address",
          "name": "_marketContract",
          "type": "address"
        }
      ],
      "stateMutability": "nonpayable",
      "type": "constructor"
    },
    {
      "anonymous": false,
      "inputs": [
        {
          "indexed": true,
          "internalType": "address",
          "name": "reviewer",
          "type": "address"
        }
      ],
      "name": "ReviewerRegistered",
      "type": "event"
    },
    {
      "inputs": [
        {
          "internalType": "address",
          "name": "",
          "type": "address"
        }
      ],
      "name": "completedSales",
      "outputs": [
        {
          "internalType": "uint256",
          "name": "",
          "type": "uint256"
        }
      ],
      "stateMutability": "view",
      "type": "function"
    },
    {
      "inputs": [
        {
          "internalType": "address",
          "name": "addr",
          "type": "address"
        }
      ],
      "name": "forceRegister",
      "outputs": [],
      "stateMutability": "nonpayable",
      "type": "function"
    },
    {
      "inputs": [],
      "name": "getPoolSize",
      "outputs": [
        {
          "internalType": "uint256",
          "name": "",
          "type": "uint256"
        }
      ],
      "stateMutability": "view",
      "type": "function"
    },
    {
      "inputs": [
        {
          "internalType": "address",
          "name": "",
          "type": "address"
        }
      ],
      "name": "isReviewer",
      "outputs": [
        {
          "internalType": "bool",
          "name": "",
          "type": "bool"
        }
      ],
      "stateMutability": "view",
      "type": "function"
    },
    {
      "inputs": [],
      "name": "marketContract",
      "outputs": [
        {
          "internalType": "address",
          "name": "",
          "type": "address"
        }
      ],
      "stateMutability": "view",
      "type": "function"
    },
    {
      "inputs": [
        {
          "internalType": "address",
          "name": "seller",
          "type": "address"
        }
      ],
      "name": "recordSale",
      "outputs": [],
      "stateMutability": "nonpayable",
      "type": "function"
    },
    {
      "inputs": [],
      "name": "registerAsReviewer",
      "outputs": [],
      "stateMutability": "nonpayable",
      "type": "function"
    },
    {
      "inputs": [
        {
          "internalType": "address",
          "name": "exclude1",
          "type": "address"
        },
        {
          "internalType": "address",
          "name": "exclude2",
          "type": "address"
        },
        {
          "internalType": "uint256",
          "name": "count",
          "type": "uint256"
        }
      ],
      "name": "selectReviewers",
      "outputs": [
        {
          "internalType": "address[]",
          "name": "",
          "type": "address[]"
        }
      ],
      "stateMutability": "view",
      "type": "function"
    },
    {
      "inputs": [
        {
          "internalType": "address",
          "name": "_market",
          "type": "address"
        }
      ],
      "name": "setMarketContract",
      "outputs": [],
      "stateMutability": "nonpayable",
      "type": "function"
    }
  ],
  "bytecode": "0x608060405234801561001057600080fd5b50604051611289380380611289833981810160405281019061003291906100db565b806000806101000a81548173ffffffffffffffffffffffffffffffffffffffff021916908373ffffffffffffffffffffffffffffffffffffffff16021790555050610108565b600080fd5b600073ffffffffffffffffffffffffffffffffffffffff82169050919050565b60006100a88261007d565b9050919050565b6100b88161009d565b81146100c357600080fd5b50565b6000815190506100d5816100af565b92915050565b6000602082840312156100f1576100f0610078565b5b60006100ff848285016100c6565b91505092915050565b611172806101176000396000f3fe608060405234801561001057600080fd5b50600436106100935760003560e01c8063a1794bcd11610066578063a1794bcd14610132578063d339885414610150578063d62bad611461016c578063f85ea2ab14610176578063fdc6258a1461019257610093565b8063190934601461009857806323845e4b146100c8578063492b2b37146100e65780636c1cb4cb14610102575b600080fd5b6100b260048036038101906100ad9190610ae6565b6101c2565b6040516100bf9190610b2c565b60405180910390f35b6100d06101da565b6040516100dd9190610b2c565b60405180910390f35b61010060048036038101906100fb9190610ae6565b6101e7565b005b61011c60048036038101906101179190610b73565b610374565b6040516101299190610c84565b60405180910390f35b61013a610707565b6040516101479190610cb5565b60405180910390f35b61016a60048036038101906101659190610ae6565b61072b565b005b610174610811565b005b610190600480360381019061018b9190610ae6565b610a20565b005b6101ac60048036038101906101a79190610ae6565b610a63565b6040516101b99190610ceb565b60405180910390f35b60026020528060005260406000206000915090505481565b6000600380549050905090565b600160008273ffffffffffffffffffffffffffffffffffffffff1673ffffffffffffffffffffffffffffffffffffffff16815260200190815260200160002060009054906101000a900460ff1615610274576040517f08c379a000000000000000000000000000000000000000000000000000000000815260040161026b90610d63565b60405180910390fd5b60018060008373ffffffffffffffffffffffffffffffffffffffff1673ffffffffffffffffffffffffffffffffffffffff16815260200190815260200160002060006101000a81548160ff0219169083151502179055506003819080600181540180825580915050600190039060005260206000200160009091909190916101000a81548173ffffffffffffffffffffffffffffffffffffffff021916908373ffffffffffffffffffffffffffffffffffffffff1602179055508073ffffffffffffffffffffffffffffffffffffffff167f7480236920fc0a1f04cac50fb0a77787e7bc4c17392cf683ec4c9cbb12dc49e360405160405180910390a250565b6060600060038054905067ffffffffffffffff81111561039757610396610d83565b5b6040519080825280602002602001820160405280156103c55781602001602082028036833780820191505090505b5090506000805b6003805490508110156104f2576000600382815481106103ef576103ee610db2565b5b9060005260206000200160009054906101000a900473ffffffffffffffffffffffffffffffffffffffff1690508773ffffffffffffffffffffffffffffffffffffffff168173ffffffffffffffffffffffffffffffffffffffff161415801561048457508673ffffffffffffffffffffffffffffffffffffffff168173ffffffffffffffffffffffffffffffffffffffff1614155b156104e4578084848061049690610e10565b9550815181106104a9576104a8610db2565b5b602002602001019073ffffffffffffffffffffffffffffffffffffffff16908173ffffffffffffffffffffffffffffffffffffffff16815250505b5080806001019150506103cc565b5083811015610536576040517f08c379a000000000000000000000000000000000000000000000000000000000815260040161052d90610ea4565b60405180910390fd5b60008467ffffffffffffffff81111561055257610551610d83565b5b6040519080825280602002602001820160405280156105805781602001602082028036833780820191505090505b50905060004244898960405160200161059c9493929190610f2d565b6040516020818303038152906040528051906020012060001c905060005b868110156106f857600084836105d09190610faa565b90508581815181106105e5576105e4610db2565b5b6020026020010151848381518110610600576105ff610db2565b5b602002602001019073ffffffffffffffffffffffffffffffffffffffff16908173ffffffffffffffffffffffffffffffffffffffff1681525050856001866106489190610fdb565b8151811061065957610658610db2565b5b602002602001015186828151811061067457610673610db2565b5b602002602001019073ffffffffffffffffffffffffffffffffffffffff16908173ffffffffffffffffffffffffffffffffffffffff168152505084806106b99061100f565b95505082826040516020016106cf929190611038565b6040516020818303038152906040528051906020012060001c92505080806001019150506105ba565b50819450505050509392505050565b60008054906101000a900473ffffffffffffffffffffffffffffffffffffffff1681565b60008054906101000a900473ffffffffffffffffffffffffffffffffffffffff1673ffffffffffffffffffffffffffffffffffffffff163373ffffffffffffffffffffffffffffffffffffffff16146107b9576040517f08c379a00000000000000000000000000000000000000000000000000000000081526004016107b0906110b0565b60405180910390fd5b600260008273ffffffffffffffffffffffffffffffffffffffff1673ffffffffffffffffffffffffffffffffffffffff168152602001908152602001600020600081548092919061080990610e10565b919050555050565b600a600260003373ffffffffffffffffffffffffffffffffffffffff1673ffffffffffffffffffffffffffffffffffffffff168152602001908152602001600020541015610894576040517f08c379a000000000000000000000000000000000000000000000000000000000815260040161088b9061111c565b60405180910390fd5b600160003373ffffffffffffffffffffffffffffffffffffffff1673ffffffffffffffffffffffffffffffffffffffff16815260200190815260200160002060009054906101000a900460ff1615610921576040517f08c379a000000000000000000000000000000000000000000000000000000000815260040161091890610d63565b60405180910390fd5b60018060003373ffffffffffffffffffffffffffffffffffffffff1673ffffffffffffffffffffffffffffffffffffffff16815260200190815260200160002060006101000a81548160ff0219169083151502179055506003339080600181540180825580915050600190039060005260206000200160009091909190916101000a81548173ffffffffffffffffffffffffffffffffffffffff021916908373ffffffffffffffffffffffffffffffffffffffff1602179055503373ffffffffffffffffffffffffffffffffffffffff167f7480236920fc0a1f04cac50fb0a77787e7bc4c17392cf683ec4c9cbb12dc49e360405160405180910390a2565b806000806101000a81548173ffffffffffffffffffffffffffffffffffffffff021916908373ffffffffffffffffffffffffffffffffffffffff16021790555050565b60016020528060005260406000206000915054906101000a900460ff1681565b600080fd5b600073ffffffffffffffffffffffffffffffffffffffff82169050919050565b6000610ab382610a88565b9050919050565b610ac381610aa8565b8114610ace57600080fd5b50565b600081359050610ae081610aba565b92915050565b600060208284031215610afc57610afb610a83565b5b6000610b0a84828501610ad1565b91505092915050565b6000819050919050565b610b2681610b13565b82525050565b6000602082019050610b416000830184610b1d565b92915050565b610b5081610b13565b8114610b5b57600080fd5b50565b600081359050610b6d81610b47565b92915050565b600080600060608486031215610b8c57610b8b610a83565b5b6000610b9a86828701610ad1565b9350506020610bab86828701610ad1565b9250506040610bbc86828701610b5e565b9150509250925092565b600081519050919050565b600082825260208201905092915050565b6000819050602082019050919050565b610bfb81610aa8565b82525050565b6000610c0d8383610bf2565b60208301905092915050565b6000602082019050919050565b6000610c3182610bc6565b610c3b8185610bd1565b9350610c4683610be2565b8060005b83811015610c77578151610c5e8882610c01565b9750610c6983610c19565b925050600181019050610c4a565b5085935050505092915050565b60006020820190508181036000830152610c9e8184610c26565b905092915050565b610caf81610aa8565b82525050565b6000602082019050610cca6000830184610ca6565b92915050565b60008115159050919050565b610ce581610cd0565b82525050565b6000602082019050610d006000830184610cdc565b92915050565b600082825260208201905092915050565b7f416c726561647920612072657669657765720000000000000000000000000000600082015250565b6000610d4d601283610d06565b9150610d5882610d17565b602082019050919050565b60006020820190508181036000830152610d7c81610d40565b9050919050565b7f4e487b7100000000000000000000000000000000000000000000000000000000600052604160045260246000fd5b7f4e487b7100000000000000000000000000000000000000000000000000000000600052603260045260246000fd5b7f4e487b7100000000000000000000000000000000000000000000000000000000600052601160045260246000fd5b6000610e1b82610b13565b91507fffffffffffffffffffffffffffffffffffffffffffffffffffffffffffffffff8203610e4d57610e4c610de1565b5b600182019050919050565b7f4e6f7420656e6f7567682072657669657765727320696e20706f6f6c00000000600082015250565b6000610e8e601c83610d06565b9150610e9982610e58565b602082019050919050565b60006020820190508181036000830152610ebd81610e81565b9050919050565b6000819050919050565b610edf610eda82610b13565b610ec4565b82525050565b60008160601b9050919050565b6000610efd82610ee5565b9050919050565b6000610f0f82610ef2565b9050919050565b610f27610f2282610aa8565b610f04565b82525050565b6000610f398287610ece565b602082019150610f498286610ece565b602082019150610f598285610f16565b601482019150610f698284610f16565b60148201915081905095945050505050565b7f4e487b7100000000000000000000000000000000000000000000000000000000600052601260045260246000fd5b6000610fb582610b13565b9150610fc083610b13565b925082610fd057610fcf610f7b565b5b828206905092915050565b6000610fe682610b13565b9150610ff183610b13565b925082820390508181111561100957611008610de1565b5b92915050565b600061101a82610b13565b91506000820361102d5761102c610de1565b5b600182039050919050565b60006110448285610ece565b6020820191506110548284610ece565b6020820191508190509392505050565b7f4f6e6c79206d61726b657420636f6e7472616374000000000000000000000000600082015250565b600061109a601483610d06565b91506110a582611064565b602082019050919050565b600060208201905081810360008301526110c98161108d565b9050919050565b7f4e65656420313020636f6d706c657465642073616c6573000000000000000000600082015250565b6000611106601783610d06565b9150611111826110d0565b602082019050919050565b60006020820190508181036000830152611135816110f9565b905091905056fea264697066735822122016d13d3765567b2a8fe1bd3ec56040a9ebd722998f8d4e18b053cacf98e7045d64736f6c634300081c0033",
  "linkReferences": {},
  "deployedLinkReferences": {}
}