{
  "_format": "hh-sol-artifact-1",
  "contractName": "ReviewerRegistry",
  "sourceName": "contracts/ReviewerRegistry.sol",
  "abi": [
    {
      "inputs": [
        {
          "internalType": "address",
          "name": "_marketContract",
          "type": "address"
        }
      ],
      "stateMutability": "nonpayable",
      "type": "constructor"
    },
    {
      "anonymous": false,
      "inputs": [
        {
          "indexed": true,
          "internalType": "address",
          "name": "reviewer",
          "type": "address"
        }
      ],
      "name": "ReviewerRegistered",
      "type": "event"
    },
    {
      "inputs": [
        {
          "internalType": "address",
          "name": "",
          "type": "address"
        }
      ],
      "name": "completedSales",
      "outputs": [
        {
          "internalType": "uint256",
          "name": "",
          "type": "uint256"
        }
      ],
      "stateMutability": "view",
      "type": "function"
    },
    {
      "inputs": [
        {
          "internalType": "address",
          "name": "addr",
          "type": "address"
        }
      ],
      "name": "forceRegister",
      "outputs": [],
      "stateMutability": "nonpayable",
      "type": "function"
    },
    {
      "inputs": [],
      "name": "getPoolSize",
      "outputs": [
        {
          "internalType": "uint256",
          "name": "",
          "type": "uint256"
        }
      ],
      "stateMutability": "view",
      "type": "function"
    },
    {
      "inputs": [
        {
          "internalType": "address",
          "name": "",
          "type": "address"
        }
      ],
      "name": "isReviewer",
      "outputs": [
        {
          "internalType": "bool",
          "name": "",
          "type": "bool"
        }
      ],
      "stateMutability": "view",
      "type": "function"
    },
    {
      "inputs": [],
      "name": "marketContract",
      "outputs": [
        {
          "internalType": "address",
          "name": "",
          "type": "address"
        }
      ],
      "stateMutability": "view",
      "type": "function"
    },
    {
      "inputs": [
        {
          "internalType": "address",
          "name": "seller",
          "type": "address"
        }
      ],
      "name": "recordSale",
      "outputs": [],
      "stateMutability": "nonpayable",
      "type": "function"
    },
    {
      "inputs": [],
      "name": "registerAsReviewer",
      "outputs": [],
      "stateMutability": "nonpayable",
      "type": "function"
    },
    {
      "inputs": [
        {
          "internalType": "address",
          "name": "exclude1",
          "type": "address"
        },
        {
          "internalType": "address",
          "name": "exclude2",
          "type": "address"
        },
        {
          "internalType": "uint256",
          "name": "count",
          "type": "uint256"
        }
      ],
      "name": "selectReviewers",
      "outputs": [
        {
          "internalType": "address[]",
          "name": "",
          "type": "address[]"
        }
      ],
      "stateMutability": "view",
      "type": "function"
    },
    {
      "inputs": [
        {
          "internalType": "address",
          "name": "_market",
          "type": "address"
        }
      ],
      "name": "setMarketContract",
      "outputs": [],
      "stateMutability": "nonpayable",
      "type": "function"
    }
  ],
  "bytecode": "0x608060405234801561001057600080fd5b5060405161128b38038061128b833981810160405281019061003291906100db565b806000806101000a81548173ffffffffffffffffffffffffffffffffffffffff021916908373ffffffffffffffffffffffffffffffffffffffff16021790555050610108565b600080fd5b600073ffffffffffffffffffffffffffffffffffffffff82169050919050565b60006100a88261007d565b9050919050565b6100b88161009d565b81146100c357600080fd5b50565b6000815190506100d5816100af565b92915050565b6000602082840312156100f1576100f0610078565b5b60006100ff848285016100c6565b91505092915050565b611174806101176000396000f3fe608060405234801561001057600080fd5b50600436106100935760003560e01c8063a1794bcd11610066578063a1794bcd14610132578063d339885414610150578063d62bad611461016c578063f85ea2ab14610176578063fdc6258a1461019257610093565b8063190934601461009857806323845e4b146100c8578063492b2b37146100e65780636c1cb4cb14610102575b600080fd5b6100b260048036038101906100ad9190610ae8565b6101c2565b6040516100bf9190610b2e565b60405180910390f35b6100d06101da565b6040516100dd9190610b2e565b60405180910390f35b61010060048036038101906100fb9190610ae8565b6101e7565b005b61011c60048036038101906101179190610b75565b610374565b6040516101299190610c86565b60405180910390f35b61013a610709565b6040516101479190610cb7565b60405180910390f35b61016a60048036038101906101659190610ae8565b61072d565b005b610174610813565b005b610190600480360381019061018b9190610ae8565b610a22565b005b6101ac60048036038101906101a79190610ae8565b610a65565b6040516101b99190610ced565b60405180910390f35b60026020528060005260406000206000915090505481565b6000600380549050905090565b600160008273ffffffffffffffffffffffffffffffffffffffff1673ffffffffffffffffffffffffffffffffffffffff16815260200190815260200160002060009054906101000a900460ff1615610274576040517f08c379a000000000000000000000000000000000000000000000000000000000815260040161026b90610d65565b60405180910390fd5b60018060008373ffffffffffffffffffffffffffffffffffffffff1673ffffffffffffffffffffffffffffffffffffffff16815260200190815260200160002060006101000a81548160ff0219169083151502179055506003819080600181540180825580915050600190039060005260206000200160009091909190916101000a81548173ffffffffffffffffffffffffffffffffffffffff021916908373ffffffffffffffffffffffffffffffffffffffff1602179055508073ffffffffffffffffffffffffffffffffffffffff167f7480236920fc0a1f04cac50fb0a77787e7bc4c17392cf683ec4c9cbb12dc49e360405160405180910390a250565b6060600060038054905067ffffffffffffffff81111561039757610396610d85565b5b6040519080825280602002602001820160405280156103c55781602001602082028036833780820191505090505b5090506000805b6003805490508110156104f4576000600382815481106103ef576103ee610db4565b5b9060005260206000200160009054906101000a900473ffffffffffffffffffffffffffffffffffffffff1690508773ffffffffffffffffffffffffffffffffffffffff168173ffffffffffffffffffffffffffffffffffffffff161415801561048457508673ffffffffffffffffffffffffffffffffffffffff168173ffffffffffffffffffffffffffffffffffffffff1614155b156104e6578084848151811061049d5761049c610db4565b5b602002602001019073ffffffffffffffffffffffffffffffffffffffff16908173ffffffffffffffffffffffffffffffffffffffff168152505082806104e290610e12565b9350505b5080806001019150506103cc565b5083811015610538576040517f08c379a000000000000000000000000000000000000000000000000000000000815260040161052f90610ea6565b60405180910390fd5b60008467ffffffffffffffff81111561055457610553610d85565b5b6040519080825280602002602001820160405280156105825781602001602082028036833780820191505090505b50905060004244898960405160200161059e9493929190610f2f565b6040516020818303038152906040528051906020012060001c905060005b868110156106fa57600084836105d29190610fac565b90508581815181106105e7576105e6610db4565b5b602002602001015184838151811061060257610601610db4565b5b602002602001019073ffffffffffffffffffffffffffffffffffffffff16908173ffffffffffffffffffffffffffffffffffffffff16815250508560018661064a9190610fdd565b8151811061065b5761065a610db4565b5b602002602001015186828151811061067657610675610db4565b5b602002602001019073ffffffffffffffffffffffffffffffffffffffff16908173ffffffffffffffffffffffffffffffffffffffff168152505084806106bb90611011565b95505082826040516020016106d192919061103a565b6040516020818303038152906040528051906020012060001c92505080806001019150506105bc565b50819450505050509392505050565b60008054906101000a900473ffffffffffffffffffffffffffffffffffffffff1681565b60008054906101000a900473ffffffffffffffffffffffffffffffffffffffff1673ffffffffffffffffffffffffffffffffffffffff163373ffffffffffffffffffffffffffffffffffffffff16146107bb576040517f08c379a00000000000000000000000000000000000000000000000000000000081526004016107b2906110b2565b60405180910390fd5b600260008273ffffffffffffffffffffffffffffffffffffffff1673ffffffffffffffffffffffffffffffffffffffff168152602001908152602001600020600081548092919061080b90610e12565b919050555050565b600a600260003373ffffffffffffffffffffffffffffffffffffffff1673ffffffffffffffffffffffffffffffffffffffff168152602001908152602001600020541015610896576040517f08c379a000000000000000000000000000000000000000000000000000000000815260040161088d9061111e565b60405180910390fd5b600160003373ffffffffffffffffffffffffffffffffffffffff1673ffffffffffffffffffffffffffffffffffffffff16815260200190815260200160002060009054906101000a900460ff1615610923576040517f08c379a000000000000000000000000000000000000000000000000000000000815260040161091a90610d65565b60405180910390fd5b60018060003373ffffffffffffffffffffffffffffffffffffffff1673ffffffffffffffffffffffffffffffffffffffff16815260200190815260200160002060006101000a81548160ff0219169083151502179055506003339080600181540180825580915050600190039060005260206000200160009091909190916101000a81548173ffffffffffffffffffffffffffffffffffffffff021916908373ffffffffffffffffffffffffffffffffffffffff1602179055503373ffffffffffffffffffffffffffffffffffffffff167f7480236920fc0a1f04cac50fb0a77787e7bc4c17392cf683ec4c9cbb12dc49e360405160405180910390a2565b806000806101000a81548173ffffffffffffffffffffffffffffffffffffffff021916908373ffffffffffffffffffffffffffffffffffffffff16021790555050565b60016020528060005260406000206000915054906101000a900460ff1681565b600080fd5b600073ffffffffffffffffffffffffffffffffffffffff82169050919050565b6000610ab582610a8a565b9050919050565b610ac581610aaa565b8114610ad057600080fd5b50565b600081359050610ae281610abc565b92915050565b600060208284031215610afe57610afd610a85565b5b6000610b0c84828501610ad3565b91505092915050565b6000819050919050565b610b2881610b15565b82525050565b6000602082019050610b436000830184610b1f565b92915050565b610b5281610b15565b8114610b5d57600080fd5b50565b600081359050610b6f81610b49565b92915050565b600080600060608486031215610b8e57610b8d610a85565b5b6000610b9c86828701610ad3565b9350506020610bad86828701610ad3565b9250506040610bbe86828701610b60565b9150509250925092565b600081519050919050565b600082825260208201905092915050565b6000819050602082019050919050565b610bfd81610aaa565b82525050565b6000610c0f8383610bf4565b60208301905092915050565b6000602082019050919050565b6000610c3382610bc8565b610c3d8185610bd3565b9350610c4883610be4565b8060005b83811015610c79578151610c608882610c03565b9750610c6b83610c1b565b925050600181019050610c4c565b5085935050505092915050565b60006020820190508181036000830152610ca08184610c28565b905092915050565b610cb181610aaa565b82525050565b6000602082019050610ccc6000830184610ca8565b92915050565b60008115159050919050565b610ce781610cd2565b82525050565b6000602082019050610d026000830184610cde565b92915050565b600082825260208201905092915050565b7f416c726561647920612072657669657765720000000000000000000000000000600082015250565b6000610d4f601283610d08565b9150610d5a82610d19565b602082019050919050565b60006020820190508181036000830152610d7e81610d42565b9050919050565b7f4e487b7100000000000000000000000000000000000000000000000000000000600052604160045260246000fd5b7f4e487b7100000000000000000000000000000000000000000000000000000000600052603260045260246000fd5b7f4e487b7100000000000000000000000000000000000000000000000000000000600052601160045260246000fd5b6000610e1d82610b15565b91507fffffffffffffffffffffffffffffffffffffffffffffffffffffffffffffffff8203610e4f57610e4e610de3565b5b600182019050919050565b7f4e6f7420656e6f7567682072657669657765727320696e20706f6f6c00000000600082015250565b6000610e90601c83610d08565b9150610e9b82610e5a565b602082019050919050565b60006020820190508181036000830152610ebf81610e83565b9050919050565b6000819050919050565b610ee1610edc82610b15565b610ec6565b82525050565b60008160601b9050919050565b6000610eff82610ee7565b9050919050565b6000610f1182610ef4565b9050919050565b610f29610f2482610aaa565b610f06565b82525050565b6000610f3b8287610ed0565b602082019150610f4b8286610ed0565b602082019150610f5b8285610f18565b601482019150610f6b8284610f18565b60148201915081905095945050505050565b7f4e487b7100000000000000000000000000000000000000000000000000000000600052601260045260246000fd5b6000610fb782610b15565b9150610fc283610b15565b925082610fd257610fd1610f7d565b5b828206905092915050565b6000610fe882610b15565b9150610ff383610b15565b925082820390508181111561100b5761100a610de3565b5b92915050565b600061101c82610b15565b91506000820361102f5761102e610de3565b5b600182039050919050565b60006110468285610ed0565b6020820191506110568284610ed0565b6020820191508190509392505050565b7f4f6e6c79206d61726b657420636f6e7472616374000000000000000000000000600082015250565b600061109c601483610d08565b91506110a782611066565b602082019050919050565b600060208201905081810360008301526110cb8161108f565b9050919050565b7f4e65656420313020636f6d706c657465642073616c6573000000000000000000600082015250565b6000611108601783610d08565b9150611113826110d2565b602082019050919050565b60006020820190508181036000830152611137816110fb565b905091905056fea26469706673582212203a0406667e0a98a47690b2474f31caf11cd77a5b29c3b022dd6232b33182049e64736f6c634300081c0033",
  "linkReferences": {},
  "deployedLinkReferences": {}
}